{
  "address": "0xb7278A61aa25c888815aFC32Ad3cC52fF24fE575",
  "abi": [
    {
      "inputs": [
        {
          "internalType": "address",
          "name": "initialOwner",
          "type": "address"
        },
        {
          "internalType": "address",
          "name": "_farmCoin",
          "type": "address"
        },
        {
          "internalType": "address",
          "name": "_plantNFT",
          "type": "address"
        },
        {
          "internalType": "address",
          "name": "_farmLand",
          "type": "address"
        },
        {
          "internalType": "address",
          "name": "_gameEvents",
          "type": "address"
        },
        {
          "internalType": "address",
          "name": "_gameEffects",
          "type": "address"
        },
        {
          "internalType": "address",
          "name": "_priceOracle",
          "type": "address"
        }
      ],
      "stateMutability": "nonpayable",
      "type": "constructor"
    },
    {
      "inputs": [
        {
          "internalType": "address",
          "name": "owner",
          "type": "address"
        }
      ],
      "name": "OwnableInvalidOwner",
      "type": "error"
    },
    {
      "inputs": [
        {
          "internalType": "address",
          "name": "account",
          "type": "address"
        }
      ],
      "name": "OwnableUnauthorizedAccount",
      "type": "error"
    },
    {
      "inputs": [],
      "name": "ReentrancyGuardReentrantCall",
      "type": "error"
    },
    {
      "anonymous": false,
      "inputs": [
        {
          "indexed": true,
          "internalType": "address",
          "name": "farmer",
          "type": "address"
        },
        {
          "indexed": false,
          "internalType": "uint256",
          "name": "plantTokenId",
          "type": "uint256"
        },
        {
          "indexed": false,
          "internalType": "uint256",
          "name": "reward",
          "type": "uint256"
        }
      ],
      "name": "CropHarvested",
      "type": "event"
    },
    {
      "anonymous": false,
      "inputs": [
        {
          "indexed": true,
          "internalType": "address",
          "name": "seller",
          "type": "address"
        },
        {
          "indexed": false,
          "internalType": "enum PlantNFT.PlantType",
          "name": "cropType",
          "type": "uint8"
        },
        {
          "indexed": false,
          "internalType": "uint256",
          "name": "quantity",
          "type": "uint256"
        },
        {
          "indexed": false,
          "internalType": "uint256",
          "name": "totalEarned",
          "type": "uint256"
        }
      ],
      "name": "CropSold",
      "type": "event"
    },
    {
      "anonymous": false,
      "inputs": [
        {
          "indexed": true,
          "internalType": "uint256",
          "name": "eventId",
          "type": "uint256"
        },
        {
          "indexed": true,
          "internalType": "address",
          "name": "farmer",
          "type": "address"
        }
      ],
      "name": "EventTriggeredAndApplied",
      "type": "event"
    },
    {
      "anonymous": false,
      "inputs": [
        {
          "indexed": true,
          "internalType": "address",
          "name": "previousOwner",
          "type": "address"
        },
        {
          "indexed": true,
          "internalType": "address",
          "name": "newOwner",
          "type": "address"
        }
      ],
      "name": "OwnershipTransferred",
      "type": "event"
    },
    {
      "anonymous": false,
      "inputs": [
        {
          "indexed": true,
          "internalType": "address",
          "name": "farmer",
          "type": "address"
        },
        {
          "indexed": false,
          "internalType": "uint256",
          "name": "plantTokenId",
          "type": "uint256"
        },
        {
          "indexed": false,
          "internalType": "uint256",
          "name": "landTokenId",
          "type": "uint256"
        }
      ],
      "name": "PlantPlanted",
      "type": "event"
    },
    {
      "anonymous": false,
      "inputs": [
        {
          "indexed": true,
          "internalType": "address",
          "name": "buyer",
          "type": "address"
        },
        {
          "indexed": false,
          "internalType": "enum PriceOracle.SeedType",
          "name": "seedType",
          "type": "uint8"
        },
        {
          "indexed": false,
          "internalType": "uint256",
          "name": "quantity",
          "type": "uint256"
        },
        {
          "indexed": false,
          "internalType": "uint256",
          "name": "totalCost",
          "type": "uint256"
        }
      ],
      "name": "SeedPurchased",
      "type": "event"
    },
    {
      "inputs": [
        {
          "internalType": "enum PriceOracle.SeedType",
          "name": "seedType",
          "type": "uint8"
        },
        {
          "internalType": "uint256",
          "name": "quantity",
          "type": "uint256"
        }
      ],
      "name": "buySeed",
      "outputs": [],
      "stateMutability": "nonpayable",
      "type": "function"
    },
    {
      "inputs": [],
      "name": "emergencyWithdraw",
      "outputs": [],
      "stateMutability": "nonpayable",
      "type": "function"
    },
    {
      "inputs": [],
      "name": "farmCoin",
      "outputs": [
        {
          "internalType": "contract FarmCoin",
          "name": "",
          "type": "address"
        }
      ],
      "stateMutability": "view",
      "type": "function"
    },
    {
      "inputs": [],
      "name": "farmLand",
      "outputs": [
        {
          "internalType": "contract FarmLand",
          "name": "",
          "type": "address"
        }
      ],
      "stateMutability": "view",
      "type": "function"
    },
    {
      "inputs": [],
      "name": "gameEffects",
      "outputs": [
        {
          "internalType": "contract GameEffects",
          "name": "",
          "type": "address"
        }
      ],
      "stateMutability": "view",
      "type": "function"
    },
    {
      "inputs": [],
      "name": "gameEvents",
      "outputs": [
        {
          "internalType": "contract GameEvents",
          "name": "",
          "type": "address"
        }
      ],
      "stateMutability": "view",
      "type": "function"
    },
    {
      "inputs": [
        {
          "internalType": "address",
          "name": "player",
          "type": "address"
        }
      ],
      "name": "getPlayerStatus",
      "outputs": [
        {
          "internalType": "uint256",
          "name": "coinBalance",
          "type": "uint256"
        },
        {
          "internalType": "uint256",
          "name": "landCount",
          "type": "uint256"
        },
        {
          "internalType": "uint256[]",
          "name": "landTokenIds",
          "type": "uint256[]"
        }
      ],
      "stateMutability": "view",
      "type": "function"
    },
    {
      "inputs": [
        {
          "internalType": "address",
          "name": "player",
          "type": "address"
        },
        {
          "internalType": "uint256",
          "name": "amount",
          "type": "uint256"
        }
      ],
      "name": "giveStarterCoins",
      "outputs": [],
      "stateMutability": "nonpayable",
      "type": "function"
    },
    {
      "inputs": [
        {
          "internalType": "uint256",
          "name": "plantTokenId",
          "type": "uint256"
        }
      ],
      "name": "harvestCrop",
      "outputs": [],
      "stateMutability": "nonpayable",
      "type": "function"
    },
    {
      "inputs": [
        {
          "internalType": "address",
          "name": "player",
          "type": "address"
        }
      ],
      "name": "mintStarterLand",
      "outputs": [],
      "stateMutability": "nonpayable",
      "type": "function"
    },
    {
      "inputs": [],
      "name": "owner",
      "outputs": [
        {
          "internalType": "address",
          "name": "",
          "type": "address"
        }
      ],
      "stateMutability": "view",
      "type": "function"
    },
    {
      "inputs": [],
      "name": "plantNFT",
      "outputs": [
        {
          "internalType": "contract PlantNFT",
          "name": "",
          "type": "address"
        }
      ],
      "stateMutability": "view",
      "type": "function"
    },
    {
      "inputs": [
        {
          "internalType": "enum PriceOracle.SeedType",
          "name": "seedType",
          "type": "uint8"
        },
        {
          "internalType": "uint256",
          "name": "landTokenId",
          "type": "uint256"
        }
      ],
      "name": "plantSeed",
      "outputs": [
        {
          "internalType": "uint256",
          "name": "plantTokenId",
          "type": "uint256"
        }
      ],
      "stateMutability": "nonpayable",
      "type": "function"
    },
    {
      "inputs": [],
      "name": "priceOracle",
      "outputs": [
        {
          "internalType": "contract PriceOracle",
          "name": "",
          "type": "address"
        }
      ],
      "stateMutability": "view",
      "type": "function"
    },
    {
      "inputs": [],
      "name": "renounceOwnership",
      "outputs": [],
      "stateMutability": "nonpayable",
      "type": "function"
    },
    {
      "inputs": [
        {
          "internalType": "enum PriceOracle.SeedType",
          "name": "",
          "type": "uint8"
        }
      ],
      "name": "seedInventory",
      "outputs": [
        {
          "internalType": "uint256",
          "name": "",
          "type": "uint256"
        }
      ],
      "stateMutability": "view",
      "type": "function"
    },
    {
      "inputs": [
        {
          "internalType": "address",
          "name": "newOwner",
          "type": "address"
        }
      ],
      "name": "transferOwnership",
      "outputs": [],
      "stateMutability": "nonpayable",
      "type": "function"
    },
    {
      "inputs": [],
      "name": "triggerRandomEvent",
      "outputs": [],
      "stateMutability": "nonpayable",
      "type": "function"
    },
    {
      "stateMutability": "payable",
      "type": "receive"
    }
  ],
  "transactionHash": "0xf631a7f3f82cd452513fd1edc991ae75c852830a36920e0cfcbe222936641011",
  "args": [
    "0xf39Fd6e51aad88F6F4ce6aB8827279cffFb92266",
    "0x5eb3Bc0a489C5A8288765d2336659EbCA68FCd00",
    "0x36C02dA8a0983159322a80FFE9F24b1acfF8B570",
    "0x809d550fca64d94Bd9F66E60752A544199cfAC3D",
    "0x4c5859f0F772848b2D91F1D83E2Fe57935348029",
    "0x1291Be112d480055DaFd8a610b7d1e203891C274",
    "0x5f3f1dBD7B74C6B46e8c44f98792A1dAf8d69154"
  ],
  "numDeployments": 1,
  "solcInputHash": "5a7c913e832cbcb2622e48effc3e7d82",
  "bytecode": "0x60806040523480156200001157600080fd5b5060405162001770380380620017708339810160408190526200003491620001cc565b866001600160a01b0381166200006457604051631e4fbdf760e01b81526000600482015260240160405180910390fd5b6200006f816200015f565b5060018055600280546001600160a01b03199081166001600160a01b0398891617825560038054821697891697909717909655600480548716958816959095179094556005805486169387169390931790925560068054851691861691909117905560078054909316931692909217905560086020526000197f5eff886ea0ce6ca488a3d6e336d6c0f75f46d19b42c06ce5ee98e42c96d256c78190557fad67d757c34507f157cacfa2e3153e9f260a2244f30428821be7be64587ac55f8190556000919091527f6add646517a5b0f6793cd5891b7937d28a5b2981a5d88ebc7cd776088fea9041555062000261565b600080546001600160a01b038381166001600160a01b0319831681178455604051919092169283917f8be0079c531659141344cd1fd0a4f28419497f9722a3daafe3b4186f6b6457e09190a35050565b80516001600160a01b0381168114620001c757600080fd5b919050565b600080600080600080600060e0888a031215620001e857600080fd5b620001f388620001af565b96506200020360208901620001af565b95506200021360408901620001af565b94506200022360608901620001af565b93506200023360808901620001af565b92506200024360a08901620001af565b91506200025360c08901620001af565b905092959891949750929550565b6114ff80620002716000396000f3fe60806040526004361061010d5760003560e01c80639e95239511610095578063d8fa005711610064578063d8fa0057146102ee578063db2e21bc1461030e578063dccff22314610323578063ef7786fe14610343578063f2fde38b1461036357600080fd5b80639e95239514610279578063abf084a314610299578063ae7ea1c8146102b9578063bbef6cbe146102ce57600080fd5b80635d0cc38f116100dc5780635d0cc38f146101cb5780636aea7ca1146101eb5780636f8c0a2a14610226578063715018a6146102465780638da5cb5b1461025b57600080fd5b80630f45db91146101195780631cf0069f146101515780632630c12f146101895780635a670d50146101a957600080fd5b3661011457005b600080fd5b34801561012557600080fd5b50610139610134366004611055565b610383565b60405161014893929190611079565b60405180910390f35b34801561015d57600080fd5b50600254610171906001600160a01b031681565b6040516001600160a01b039091168152602001610148565b34801561019557600080fd5b50600754610171906001600160a01b031681565b3480156101b557600080fd5b506101c96101c43660046110dd565b61047c565b005b3480156101d757600080fd5b506101c96101e6366004611109565b6106c6565b3480156101f757600080fd5b50610218610206366004611122565b60086020526000908152604090205481565b604051908152602001610148565b34801561023257600080fd5b50600654610171906001600160a01b031681565b34801561025257600080fd5b506101c9610a8c565b34801561026757600080fd5b506000546001600160a01b0316610171565b34801561028557600080fd5b506101c961029436600461113f565b610aa0565b3480156102a557600080fd5b50600354610171906001600160a01b031681565b3480156102c557600080fd5b506101c9610b12565b3480156102da57600080fd5b506102186102e93660046110dd565b610c95565b3480156102fa57600080fd5b50600454610171906001600160a01b031681565b34801561031a57600080fd5b506101c9610e61565b34801561032f57600080fd5b506101c961033e366004611055565b610ea3565b34801561034f57600080fd5b50600554610171906001600160a01b031681565b34801561036f57600080fd5b506101c961037e366004611055565b610f5e565b6002546040516370a0823160e01b81526001600160a01b0383811660048301526000928392606092909116906370a0823190602401602060405180830381865afa1580156103d5573d6000803e3d6000fd5b505050506040513d601f19601f820116820180604052508101906103f9919061115d565b6004805460405163455b9d2360e01b81526001600160a01b0388811693820193909352929550169063455b9d2390602401600060405180830381865afa158015610447573d6000803e3d6000fd5b505050506040513d6000823e601f3d908101601f1916820160405261046f91908101906111bd565b9050805191509193909250565b610484610f99565b600081116104cc5760405162461bcd60e51b815260206004820152601060248201526f496e76616c6964207175616e7469747960801b60448201526064015b60405180910390fd5b80600860008460028111156104e3576104e3611263565b60028111156104f4576104f4611263565b815260200190815260200160002054101561054a5760405162461bcd60e51b8152602060048201526016602482015275496e73756666696369656e7420696e76656e746f727960501b60448201526064016104c3565b600754604051636604c5fb60e11b81526000916001600160a01b03169063cc098bf69061057b908690600401611297565b602060405180830381865afa158015610598573d6000803e3d6000fd5b505050506040513d601f19601f820116820180604052508101906105bc919061115d565b905060006105ca83836112c0565b60025460405163079cc67960e41b8152336004820152602481018390529192506001600160a01b0316906379cc679090604401600060405180830381600087803b15801561061757600080fd5b505af115801561062b573d6000803e3d6000fd5b50505050826008600086600281111561064657610646611263565b600281111561065757610657611263565b8152602001908152602001600020600082825461067491906112d7565b909155505060405133907f0e32514dbaf7f1886ac4330923873113293d0abf52459dffaa2189c2282083b5906106af908790879086906112ea565b60405180910390a250506106c260018055565b5050565b6106ce610f99565b6003546040516331a9108f60e11b81526004810183905233916001600160a01b031690636352211e90602401602060405180830381865afa158015610717573d6000803e3d6000fd5b505050506040513d601f19601f8201168201806040525081019061073b919061130b565b6001600160a01b0316146107835760405162461bcd60e51b815260206004820152600f60248201526e2737ba10383630b73a1037bbb732b960891b60448201526064016104c3565b60035460405163d902c92760e01b8152600481018390526001600160a01b039091169063d902c92790602401602060405180830381865afa1580156107cc573d6000803e3d6000fd5b505050506040513d601f19601f820116820180604052508101906107f09190611328565b61082e5760405162461bcd60e51b815260206004820152600f60248201526e506c616e74206e6f7420726561647960881b60448201526064016104c3565b60035460405163ed0b1f5f60e01b8152600481018390526000916001600160a01b03169063ed0b1f5f9060240160a060405180830381865afa158015610878573d6000803e3d6000fd5b505050506040513d601f19601f8201168201806040525081019061089c9190611361565b9050600080825160028111156108b4576108b4611263565b036108c1575060006108e7565b6001825160028111156108d6576108d6611263565b036108e3575060016108e7565b5060025b60075460405163eea138e160e01b81526000916001600160a01b03169063eea138e190610918908590600401611297565b602060405180830381865afa158015610935573d6000803e3d6000fd5b505050506040513d601f19601f82011682018060405250810190610959919061115d565b905060006103e8846040015161ffff168361097491906112c0565b61097e91906113ee565b6002546040516340c10f1960e01b8152336004820152602481018390529192506001600160a01b0316906340c10f1990604401600060405180830381600087803b1580156109cb57600080fd5b505af11580156109df573d6000803e3d6000fd5b5050600354604051630852cd8d60e31b8152600481018990526001600160a01b0390911692506342966c689150602401600060405180830381600087803b158015610a2957600080fd5b505af1158015610a3d573d6000803e3d6000fd5b505060408051888152602081018590523393507f1d2744d484bfd6c11eb698d6664c8bf1eb4260fbe4b9f99912e87eff5dd2ff8292500160405180910390a250505050610a8960018055565b50565b610a94610fc3565b610a9e6000610ff0565b565b610aa8610fc3565b6002546040516340c10f1960e01b81526001600160a01b03848116600483015260248201849052909116906340c10f1990604401600060405180830381600087803b158015610af657600080fd5b505af1158015610b0a573d6000803e3d6000fd5b505050505050565b610b1a610f99565b6005546040805163ede48fb760e01b815290516000926001600160a01b03169163ede48fb7916004808301926020929190829003018187875af1158015610b65573d6000803e3d6000fd5b505050506040513d601f19601f82011682018060405250810190610b89919061115d565b60065460405163199c00f760e21b8152600481018390523360248201529192506001600160a01b03169063667003dc906044016080604051808303816000875af1158015610bdb573d6000803e3d6000fd5b505050506040513d601f19601f82011682018060405250810190610bff9190611422565b5060075460405163ae7e8d8160e01b8152600481018390526001600160a01b039091169063ae7e8d8190602401600060405180830381600087803b158015610c4657600080fd5b505af1158015610c5a573d6000803e3d6000fd5b50506040513392508391507fdd8b8ce95c50047bcd62f9d282a770d6b42aa1866ac0ea2bbfe7275ce2fc1e5d90600090a350610a9e60018055565b6000610c9f610f99565b600480546040516331a9108f60e11b815291820184905233916001600160a01b0390911690636352211e90602401602060405180830381865afa158015610cea573d6000803e3d6000fd5b505050506040513d601f19601f82011682018060405250810190610d0e919061130b565b6001600160a01b031614610d555760405162461bcd60e51b815260206004820152600e60248201526d2737ba103630b7321037bbb732b960911b60448201526064016104c3565b600080846002811115610d6a57610d6a611263565b03610d7757506000610d9c565b6001846002811115610d8b57610d8b611263565b03610d9857506001610d9c565b5060025b600354604051632769c3d960e11b81526001600160a01b0390911690634ed387b290610dd09033908590889060040161149f565b6020604051808303816000875af1158015610def573d6000803e3d6000fd5b505050506040513d601f19601f82011682018060405250810190610e13919061115d565b604080518281526020810186905291935033917f443deb677b158d42d9989f309feeb2c861adadb2ea82bd1592611542218579ef910160405180910390a250610e5b60018055565b92915050565b610e69610fc3565b600080546040516001600160a01b03909116914780156108fc02929091818181858888f19350505050158015610a89573d6000803e3d6000fd5b610eab610fc3565b60005b60068160ff1610156106c25760005b60088160ff161015610f5557600480546040516306a524d560e31b81526001600160a01b038681169382019390935260ff80851660248301528516604482015291169063352926a8906064016020604051808303816000875af1158015610f28573d6000803e3d6000fd5b505050506040513d601f19601f82011682018060405250810190610f4c919061115d565b50600101610ebd565b50600101610eae565b610f66610fc3565b6001600160a01b038116610f9057604051631e4fbdf760e01b8152600060048201526024016104c3565b610a8981610ff0565b600260015403610fbc57604051633ee5aeb560e01b815260040160405180910390fd5b6002600155565b6000546001600160a01b03163314610a9e5760405163118cdaa760e01b81523360048201526024016104c3565b600080546001600160a01b038381166001600160a01b0319831681178455604051919092169283917f8be0079c531659141344cd1fd0a4f28419497f9722a3daafe3b4186f6b6457e09190a35050565b6001600160a01b0381168114610a8957600080fd5b60006020828403121561106757600080fd5b813561107281611040565b9392505050565b60006060820185835260208560208501526060604085015281855180845260808601915060208701935060005b818110156110c2578451835293830193918301916001016110a6565b509098975050505050505050565b60038110610a8957600080fd5b600080604083850312156110f057600080fd5b82356110fb816110d0565b946020939093013593505050565b60006020828403121561111b57600080fd5b5035919050565b60006020828403121561113457600080fd5b8135611072816110d0565b6000806040838503121561115257600080fd5b82356110fb81611040565b60006020828403121561116f57600080fd5b5051919050565b634e487b7160e01b600052604160045260246000fd5b604051601f8201601f1916810167ffffffffffffffff811182821017156111b5576111b5611176565b604052919050565b600060208083850312156111d057600080fd5b825167ffffffffffffffff808211156111e857600080fd5b818501915085601f8301126111fc57600080fd5b81518181111561120e5761120e611176565b8060051b915061121f84830161118c565b818152918301840191848101908884111561123957600080fd5b938501935b838510156112575784518252938501939085019061123e565b98975050505050505050565b634e487b7160e01b600052602160045260246000fd5b60038110610a8957634e487b7160e01b600052602160045260246000fd5b602081016112a483611279565b91905290565b634e487b7160e01b600052601160045260246000fd5b8082028115828204841417610e5b57610e5b6112aa565b81810381811115610e5b57610e5b6112aa565b606081016112f785611279565b938152602081019290925260409091015290565b60006020828403121561131d57600080fd5b815161107281611040565b60006020828403121561133a57600080fd5b8151801515811461107257600080fd5b805161ffff8116811461135c57600080fd5b919050565b600060a0828403121561137357600080fd5b60405160a0810181811067ffffffffffffffff8211171561139657611396611176565b60405282516113a4816110d0565b8152602083015160ff811681146113ba57600080fd5b60208201526113cb6040840161134a565b604082015260608301516060820152608083015160808201528091505092915050565b60008261140b57634e487b7160e01b600052601260045260246000fd5b500490565b8051600181900b811461135c57600080fd5b60006080828403121561143457600080fd5b6040516080810181811067ffffffffffffffff8211171561145757611457611176565b60405261146383611410565b815261147160208401611410565b60208201526114826040840161134a565b60408201526114936060840161134a565b60608201529392505050565b6001600160a01b0384168152606081016114b884611279565b60208201939093526040015291905056fea26469706673582212207d3e41f1a6b4495b794e7808a67e2f3a6cb5448282dbb9f882d7aebaccaaa4b164736f6c63430008180033",
  "devdoc": {
    "details": "Orchestrates the entire chain reaction: Buy -> Plant -> Event -> Effect -> Price Change",
    "errors": {
      "OwnableInvalidOwner(address)": [
        {
          "details": "The owner is not a valid owner account. (eg. `address(0)`)"
        }
      ],
      "OwnableUnauthorizedAccount(address)": [
        {
          "details": "The caller account is not authorized to perform an operation."
        }
      ],
      "ReentrancyGuardReentrantCall()": [
        {
          "details": "Unauthorized reentrant call."
        }
      ]
    },
    "kind": "dev",
    "methods": {
      "owner()": {
        "details": "Returns the address of the current owner."
      },
      "renounceOwnership()": {
        "details": "Leaves the contract without owner. It will not be possible to call `onlyOwner` functions. Can only be called by the current owner. NOTE: Renouncing ownership will leave the contract without an owner, thereby disabling any functionality that is only available to the owner."
      },
      "transferOwnership(address)": {
        "details": "Transfers ownership of the contract to a new account (`newOwner`). Can only be called by the current owner."
      },
      "triggerRandomEvent()": {
        "details": "Anyone can trigger events, but effects apply to their own farm"
      }
    },
    "title": "FarmMarketplace",
    "version": 1
  },
  "userdoc": {
    "kind": "user",
    "methods": {
      "buySeed(uint8,uint256)": {
        "notice": "Buy seeds from shop using FarmCoin"
      },
      "emergencyWithdraw()": {
        "notice": "Emergency withdraw (owner only)"
      },
      "getPlayerStatus(address)": {
        "notice": "Get player's farm status"
      },
      "giveStarterCoins(address,uint256)": {
        "notice": "Give starter coins to new players"
      },
      "harvestCrop(uint256)": {
        "notice": "Harvest a mature plant"
      },
      "mintStarterLand(address)": {
        "notice": "Mint initial land plots to a new player"
      },
      "plantSeed(uint8,uint256)": {
        "notice": "Plant a seed on owned land"
      },
      "triggerRandomEvent()": {
        "notice": "Trigger random event and apply effects (CHAIN REACTION STARTS HERE!)"
      }
    },
    "notice": "Main marketplace for buying seeds, planting, harvesting, and selling crops",
    "version": 1
  },
  "storageLayout": {
    "storage": [
      {
        "astId": 8,
        "contract": "contracts/FarmMarketplace.sol:FarmMarketplace",
        "label": "_owner",
        "offset": 0,
        "slot": "0",
        "type": "t_address"
      },
      {
        "astId": 2116,
        "contract": "contracts/FarmMarketplace.sol:FarmMarketplace",
        "label": "_status",
        "offset": 0,
        "slot": "1",
        "type": "t_uint256"
      },
      {
        "astId": 4041,
        "contract": "contracts/FarmMarketplace.sol:FarmMarketplace",
        "label": "farmCoin",
        "offset": 0,
        "slot": "2",
        "type": "t_contract(FarmCoin)3746"
      },
      {
        "astId": 4044,
        "contract": "contracts/FarmMarketplace.sol:FarmMarketplace",
        "label": "plantNFT",
        "offset": 0,
        "slot": "3",
        "type": "t_contract(PlantNFT)5822"
      },
      {
        "astId": 4047,
        "contract": "contracts/FarmMarketplace.sol:FarmMarketplace",
        "label": "farmLand",
        "offset": 0,
        "slot": "4",
        "type": "t_contract(FarmLand)4023"
      },
      {
        "astId": 4050,
        "contract": "contracts/FarmMarketplace.sol:FarmMarketplace",
        "label": "gameEvents",
        "offset": 0,
        "slot": "5",
        "type": "t_contract(GameEvents)5496"
      },
      {
        "astId": 4053,
        "contract": "contracts/FarmMarketplace.sol:FarmMarketplace",
        "label": "gameEffects",
        "offset": 0,
        "slot": "6",
        "type": "t_contract(GameEffects)5193"
      },
      {
        "astId": 4056,
        "contract": "contracts/FarmMarketplace.sol:FarmMarketplace",
        "label": "priceOracle",
        "offset": 0,
        "slot": "7",
        "type": "t_contract(PriceOracle)6644"
      },
      {
        "astId": 4061,
        "contract": "contracts/FarmMarketplace.sol:FarmMarketplace",
        "label": "seedInventory",
        "offset": 0,
        "slot": "8",
        "type": "t_mapping(t_enum(SeedType)5844,t_uint256)"
      }
    ],
    "types": {
      "t_address": {
        "encoding": "inplace",
        "label": "address",
        "numberOfBytes": "20"
      },
      "t_contract(FarmCoin)3746": {
        "encoding": "inplace",
        "label": "contract FarmCoin",
        "numberOfBytes": "20"
      },
      "t_contract(FarmLand)4023": {
        "encoding": "inplace",
        "label": "contract FarmLand",
        "numberOfBytes": "20"
      },
      "t_contract(GameEffects)5193": {
        "encoding": "inplace",
        "label": "contract GameEffects",
        "numberOfBytes": "20"
      },
      "t_contract(GameEvents)5496": {
        "encoding": "inplace",
        "label": "contract GameEvents",
        "numberOfBytes": "20"
      },
      "t_contract(PlantNFT)5822": {
        "encoding": "inplace",
        "label": "contract PlantNFT",
        "numberOfBytes": "20"
      },
      "t_contract(PriceOracle)6644": {
        "encoding": "inplace",
        "label": "contract PriceOracle",
        "numberOfBytes": "20"
      },
      "t_enum(SeedType)5844": {
        "encoding": "inplace",
        "label": "enum PriceOracle.SeedType",
        "numberOfBytes": "1"
      },
      "t_mapping(t_enum(SeedType)5844,t_uint256)": {
        "encoding": "mapping",
        "key": "t_enum(SeedType)5844",
        "label": "mapping(enum PriceOracle.SeedType => uint256)",
        "numberOfBytes": "32",
        "value": "t_uint256"
      },
      "t_uint256": {
        "encoding": "inplace",
        "label": "uint256",
        "numberOfBytes": "32"
      }
    }
  }
}