{
  "address": "0xe53C4e69fE14fE4f85ffA4E946F6172d93eE2305",
  "abi": [
    {
      "anonymous": false,
      "inputs": [
        {
          "indexed": true,
          "internalType": "uint256",
          "name": "gardenId",
          "type": "uint256"
        },
        {
          "indexed": true,
          "internalType": "uint256",
          "name": "roundId",
          "type": "uint256"
        },
        {
          "indexed": false,
          "internalType": "enum IFarmEvents.EventType",
          "name": "eventType",
          "type": "uint8"
        },
        {
          "indexed": false,
          "internalType": "uint16",
          "name": "severity",
          "type": "uint16"
        }
      ],
      "name": "EventGenerated",
      "type": "event"
    },
    {
      "inputs": [],
      "name": "PROB_DROUGHT",
      "outputs": [
        {
          "internalType": "uint16",
          "name": "",
          "type": "uint16"
        }
      ],
      "stateMutability": "view",
      "type": "function"
    },
    {
      "inputs": [],
      "name": "PROB_FROST",
      "outputs": [
        {
          "internalType": "uint16",
          "name": "",
          "type": "uint16"
        }
      ],
      "stateMutability": "view",
      "type": "function"
    },
    {
      "inputs": [],
      "name": "PROB_LOCUSTS",
      "outputs": [
        {
          "internalType": "uint16",
          "name": "",
          "type": "uint16"
        }
      ],
      "stateMutability": "view",
      "type": "function"
    },
    {
      "inputs": [],
      "name": "PROB_NONE",
      "outputs": [
        {
          "internalType": "uint16",
          "name": "",
          "type": "uint16"
        }
      ],
      "stateMutability": "view",
      "type": "function"
    },
    {
      "inputs": [],
      "name": "PROB_PESTS",
      "outputs": [
        {
          "internalType": "uint16",
          "name": "",
          "type": "uint16"
        }
      ],
      "stateMutability": "view",
      "type": "function"
    },
    {
      "inputs": [],
      "name": "PROB_RAIN",
      "outputs": [
        {
          "internalType": "uint16",
          "name": "",
          "type": "uint16"
        }
      ],
      "stateMutability": "view",
      "type": "function"
    },
    {
      "inputs": [],
      "name": "PROB_SUNSTORM",
      "outputs": [
        {
          "internalType": "uint16",
          "name": "",
          "type": "uint16"
        }
      ],
      "stateMutability": "view",
      "type": "function"
    },
    {
      "inputs": [],
      "name": "PROB_WIND",
      "outputs": [
        {
          "internalType": "uint16",
          "name": "",
          "type": "uint16"
        }
      ],
      "stateMutability": "view",
      "type": "function"
    },
    {
      "inputs": [
        {
          "internalType": "uint256",
          "name": "gardenId",
          "type": "uint256"
        },
        {
          "internalType": "uint256",
          "name": "roundId",
          "type": "uint256"
        },
        {
          "internalType": "bytes32",
          "name": "seed",
          "type": "bytes32"
        }
      ],
      "name": "generateEvent",
      "outputs": [
        {
          "components": [
            {
              "internalType": "enum IFarmEvents.EventType",
              "name": "eventType",
              "type": "uint8"
            },
            {
              "internalType": "uint16",
              "name": "severity",
              "type": "uint16"
            },
            {
              "internalType": "uint32",
              "name": "timestamp",
              "type": "uint32"
            },
            {
              "internalType": "bytes32",
              "name": "seed",
              "type": "bytes32"
            }
          ],
          "internalType": "struct IFarmEvents.EventData",
          "name": "",
          "type": "tuple"
        }
      ],
      "stateMutability": "nonpayable",
      "type": "function"
    }
  ],
  "transactionHash": "0x1bab4a4374b93c4a3f5b91540920111d56d2a67940f636b677aa95fa551c2b3d",
  "args": [],
  "numDeployments": 1,
  "solcInputHash": "2c880685ebef2f561b9dccee97fd02f5",
  "bytecode": "0x608060405234801561001057600080fd5b50610529806100206000396000f3fe608060405234801561001057600080fd5b50600436106100925760003560e01c806354aa31e01161006657806354aa31e0146100d35780636c7e43e8146100f3578063755aef7f146100fc578063c108f4f014610105578063c6c75103146100c157600080fd5b80626ca84c1461009757806309c264de146100b85780630a73d710146100c157806351e40aab146100ca575b600080fd5b6100a06105dc81565b60405161ffff90911681526020015b60405180910390f35b6100a06107d081565b6100a06103e881565b6100a061032081565b6100e66100e13660046103d1565b61010e565b6040516100af9190610435565b6100a06104b081565b6100a0610bb881565b6100a06101f481565b60408051608081018252600080825260208201819052918101829052606081018290529061013e61271084610476565b9050600061014b826101e1565b9050600061015985836102bd565b90506000604051806080016040528084600781111561017a5761017a6103fd565b81526020018361ffff1681526020014263ffffffff16815260200187815250905086887fa5d3400a154cb9874e25a3ac1f748297cbb586c7ec09d34bff475242e84f614d85856040516101ce929190610498565b60405180910390a3979650505050505050565b6000610bb88210156101f557506000919050565b610201610bb8836104cd565b91506103e882101561021557506001919050565b6102216103e8836104cd565b91506105dc82101561023557506002919050565b6102416105dc836104cd565b91506107d082101561025557506003919050565b6102616107d0836104cd565b91506103e882101561027557506004919050565b6102816103e8836104cd565b915061032082101561029557506005919050565b6102a1610320836104cd565b91506104b08210156102b557506006919050565b506007919050565b6000808260078111156102d2576102d26103fd565b036102df575060006103cb565b60006103e88460405160200161030891815267736576657269747960c01b602082015260280190565b6040516020818303038152906040528051906020012060001c61032b9190610476565b90506001836007811115610341576103416103fd565b148061035e5750600583600781111561035c5761035c6103fd565b145b156103835761036f6101f482610476565b61037b906101f46104e0565b9150506103cb565b6007836007811115610397576103976103fd565b036103b4576103a861019082610476565b61037b9061012c6104e0565b6103c061019082610476565b61037b9060c86104e0565b92915050565b6000806000606084860312156103e657600080fd5b505081359360208301359350604090920135919050565b634e487b7160e01b600052602160045260246000fd5b6008811061043157634e487b7160e01b600052602160045260246000fd5b9052565b6000608082019050610448828451610413565b61ffff602084015116602083015263ffffffff60408401511660408301526060830151606083015292915050565b60008261049357634e487b7160e01b600052601260045260246000fd5b500690565b604081016104a68285610413565b61ffff831660208301529392505050565b634e487b7160e01b600052601160045260246000fd5b818103818111156103cb576103cb6104b7565b808201808211156103cb576103cb6104b756fea26469706673582212208d7eb8e30cfe9dcb5a4558f6e2194f79a097694b639a93868ee982646ebbae6c64736f6c63430008180033",
  "devdoc": {
    "kind": "dev",
    "methods": {},
    "title": "FarmEvents",
    "version": 1
  },
  "userdoc": {
    "kind": "user",
    "methods": {
      "generateEvent(uint256,uint256,bytes32)": {
        "notice": "Генерирует событие на основе детерминированного seed"
      }
    },
    "notice": "Генерирует случайные события для огорода на основе seed",
    "version": 1
  },
  "storageLayout": {
    "storage": [],
    "types": null
  }
}