{
  "address": "0x5B7816672e967F5B5706889D1051AbFcB20250bC",
  "abi": [
    {
      "inputs": [
        {
          "internalType": "address",
          "name": "initialOwner",
          "type": "address"
        },
        {
          "internalType": "address",
          "name": "_farmCoin",
          "type": "address"
        },
        {
          "internalType": "address",
          "name": "_plantNFT",
          "type": "address"
        },
        {
          "internalType": "address",
          "name": "_cropNFT",
          "type": "address"
        },
        {
          "internalType": "address",
          "name": "_farmLand",
          "type": "address"
        },
        {
          "internalType": "address",
          "name": "_gameEvents",
          "type": "address"
        },
        {
          "internalType": "address",
          "name": "_gameEffects",
          "type": "address"
        },
        {
          "internalType": "address",
          "name": "_priceOracle",
          "type": "address"
        }
      ],
      "stateMutability": "nonpayable",
      "type": "constructor"
    },
    {
      "inputs": [
        {
          "internalType": "address",
          "name": "owner",
          "type": "address"
        }
      ],
      "name": "OwnableInvalidOwner",
      "type": "error"
    },
    {
      "inputs": [
        {
          "internalType": "address",
          "name": "account",
          "type": "address"
        }
      ],
      "name": "OwnableUnauthorizedAccount",
      "type": "error"
    },
    {
      "inputs": [],
      "name": "ReentrancyGuardReentrantCall",
      "type": "error"
    },
    {
      "anonymous": false,
      "inputs": [
        {
          "indexed": true,
          "internalType": "address",
          "name": "farmer",
          "type": "address"
        },
        {
          "indexed": false,
          "internalType": "uint256",
          "name": "plantTokenId",
          "type": "uint256"
        },
        {
          "indexed": false,
          "internalType": "uint256",
          "name": "cropNFTId",
          "type": "uint256"
        }
      ],
      "name": "CropHarvested",
      "type": "event"
    },
    {
      "anonymous": false,
      "inputs": [
        {
          "indexed": true,
          "internalType": "address",
          "name": "seller",
          "type": "address"
        },
        {
          "indexed": false,
          "internalType": "uint256",
          "name": "cropTokenId",
          "type": "uint256"
        },
        {
          "indexed": false,
          "internalType": "uint256",
          "name": "reward",
          "type": "uint256"
        }
      ],
      "name": "CropSold",
      "type": "event"
    },
    {
      "anonymous": false,
      "inputs": [
        {
          "indexed": true,
          "internalType": "uint256",
          "name": "eventId",
          "type": "uint256"
        },
        {
          "indexed": true,
          "internalType": "address",
          "name": "farmer",
          "type": "address"
        }
      ],
      "name": "EventTriggeredAndApplied",
      "type": "event"
    },
    {
      "anonymous": false,
      "inputs": [
        {
          "indexed": true,
          "internalType": "address",
          "name": "previousOwner",
          "type": "address"
        },
        {
          "indexed": true,
          "internalType": "address",
          "name": "newOwner",
          "type": "address"
        }
      ],
      "name": "OwnershipTransferred",
      "type": "event"
    },
    {
      "anonymous": false,
      "inputs": [
        {
          "indexed": true,
          "internalType": "address",
          "name": "farmer",
          "type": "address"
        },
        {
          "indexed": false,
          "internalType": "uint256",
          "name": "plantTokenId",
          "type": "uint256"
        },
        {
          "indexed": false,
          "internalType": "uint256",
          "name": "landTokenId",
          "type": "uint256"
        }
      ],
      "name": "PlantPlanted",
      "type": "event"
    },
    {
      "anonymous": false,
      "inputs": [
        {
          "indexed": true,
          "internalType": "address",
          "name": "buyer",
          "type": "address"
        },
        {
          "indexed": false,
          "internalType": "enum PriceOracle.SeedType",
          "name": "seedType",
          "type": "uint8"
        },
        {
          "indexed": false,
          "internalType": "uint256",
          "name": "quantity",
          "type": "uint256"
        },
        {
          "indexed": false,
          "internalType": "uint256",
          "name": "totalCost",
          "type": "uint256"
        }
      ],
      "name": "SeedPurchased",
      "type": "event"
    },
    {
      "inputs": [
        {
          "internalType": "enum PriceOracle.SeedType",
          "name": "seedType",
          "type": "uint8"
        },
        {
          "internalType": "uint256",
          "name": "quantity",
          "type": "uint256"
        }
      ],
      "name": "buySeed",
      "outputs": [],
      "stateMutability": "nonpayable",
      "type": "function"
    },
    {
      "inputs": [],
      "name": "cropNFT",
      "outputs": [
        {
          "internalType": "contract CropNFT",
          "name": "",
          "type": "address"
        }
      ],
      "stateMutability": "view",
      "type": "function"
    },
    {
      "inputs": [],
      "name": "emergencyWithdraw",
      "outputs": [],
      "stateMutability": "nonpayable",
      "type": "function"
    },
    {
      "inputs": [],
      "name": "farmCoin",
      "outputs": [
        {
          "internalType": "contract FarmCoin",
          "name": "",
          "type": "address"
        }
      ],
      "stateMutability": "view",
      "type": "function"
    },
    {
      "inputs": [],
      "name": "farmLand",
      "outputs": [
        {
          "internalType": "contract FarmLand",
          "name": "",
          "type": "address"
        }
      ],
      "stateMutability": "view",
      "type": "function"
    },
    {
      "inputs": [],
      "name": "gameEffects",
      "outputs": [
        {
          "internalType": "contract GameEffects",
          "name": "",
          "type": "address"
        }
      ],
      "stateMutability": "view",
      "type": "function"
    },
    {
      "inputs": [],
      "name": "gameEvents",
      "outputs": [
        {
          "internalType": "contract GameEvents",
          "name": "",
          "type": "address"
        }
      ],
      "stateMutability": "view",
      "type": "function"
    },
    {
      "inputs": [
        {
          "internalType": "address",
          "name": "player",
          "type": "address"
        }
      ],
      "name": "getPlayerStatus",
      "outputs": [
        {
          "internalType": "uint256",
          "name": "coinBalance",
          "type": "uint256"
        },
        {
          "internalType": "uint256",
          "name": "landCount",
          "type": "uint256"
        },
        {
          "internalType": "uint256[]",
          "name": "landTokenIds",
          "type": "uint256[]"
        }
      ],
      "stateMutability": "view",
      "type": "function"
    },
    {
      "inputs": [
        {
          "internalType": "address",
          "name": "player",
          "type": "address"
        },
        {
          "internalType": "uint256",
          "name": "amount",
          "type": "uint256"
        }
      ],
      "name": "giveStarterCoins",
      "outputs": [],
      "stateMutability": "nonpayable",
      "type": "function"
    },
    {
      "inputs": [
        {
          "internalType": "uint256",
          "name": "plantTokenId",
          "type": "uint256"
        }
      ],
      "name": "harvestCrop",
      "outputs": [
        {
          "internalType": "uint256",
          "name": "",
          "type": "uint256"
        }
      ],
      "stateMutability": "nonpayable",
      "type": "function"
    },
    {
      "inputs": [
        {
          "internalType": "address",
          "name": "",
          "type": "address"
        }
      ],
      "name": "hasClaimedStarterLand",
      "outputs": [
        {
          "internalType": "bool",
          "name": "",
          "type": "bool"
        }
      ],
      "stateMutability": "view",
      "type": "function"
    },
    {
      "inputs": [],
      "name": "mintStarterLand",
      "outputs": [],
      "stateMutability": "nonpayable",
      "type": "function"
    },
    {
      "inputs": [],
      "name": "owner",
      "outputs": [
        {
          "internalType": "address",
          "name": "",
          "type": "address"
        }
      ],
      "stateMutability": "view",
      "type": "function"
    },
    {
      "inputs": [],
      "name": "plantNFT",
      "outputs": [
        {
          "internalType": "contract PlantNFT",
          "name": "",
          "type": "address"
        }
      ],
      "stateMutability": "view",
      "type": "function"
    },
    {
      "inputs": [
        {
          "internalType": "enum PriceOracle.SeedType",
          "name": "seedType",
          "type": "uint8"
        }
      ],
      "name": "plantSeed",
      "outputs": [
        {
          "internalType": "uint256",
          "name": "plantTokenId",
          "type": "uint256"
        }
      ],
      "stateMutability": "nonpayable",
      "type": "function"
    },
    {
      "inputs": [],
      "name": "priceOracle",
      "outputs": [
        {
          "internalType": "contract PriceOracle",
          "name": "",
          "type": "address"
        }
      ],
      "stateMutability": "view",
      "type": "function"
    },
    {
      "inputs": [],
      "name": "renounceOwnership",
      "outputs": [],
      "stateMutability": "nonpayable",
      "type": "function"
    },
    {
      "inputs": [
        {
          "internalType": "enum PriceOracle.SeedType",
          "name": "",
          "type": "uint8"
        }
      ],
      "name": "seedInventory",
      "outputs": [
        {
          "internalType": "uint256",
          "name": "",
          "type": "uint256"
        }
      ],
      "stateMutability": "view",
      "type": "function"
    },
    {
      "inputs": [
        {
          "internalType": "uint256",
          "name": "cropTokenId",
          "type": "uint256"
        }
      ],
      "name": "sellCrop",
      "outputs": [],
      "stateMutability": "nonpayable",
      "type": "function"
    },
    {
      "inputs": [
        {
          "internalType": "address",
          "name": "newOwner",
          "type": "address"
        }
      ],
      "name": "transferOwnership",
      "outputs": [],
      "stateMutability": "nonpayable",
      "type": "function"
    },
    {
      "stateMutability": "payable",
      "type": "receive"
    }
  ],
  "transactionHash": "0x1d2c0f86d2d3053076cad37cdb59a3f5ff2715c29e3fb2ee2b6dc584c6045eb4",
  "args": [
    "0x38048c9AcEF95Cb2866e58Da69dd96B71870c55C",
    "0x9bFd73140f2A8F35923eee518BFb79F36aa80Eec",
    "0x9ad4856377525Fc21e29b0D9Abed6eF5D94Da130",
    "0x2d1A96E3fBA3446FcB4f05492B88178a01B3622b",
    "0x803A3cAf16f47a01cbBeB99c22213b580911Bf9d",
    "0x05A4930B039ceF4AC69d9E74511268ae6E39e766",
    "0x95d788d1Ec916462b8945CD451D90731eA0B4B31",
    "0xa41CcD8f7c9F51a032A9d27571092279C7172f5B"
  ],
  "numDeployments": 2,
  "solcInputHash": "4bc3966e97119a09571f78af33771c4b",
  "bytecode": "0x60806040523480156200001157600080fd5b5060405162001965380380620019658339810160408190526200003491620001c6565b876001600160a01b0381166200006457604051631e4fbdf760e01b81526000600482015260240160405180910390fd5b6200006f8162000159565b506001808055600280546001600160a01b03199081166001600160a01b038b81169190911783556003805483168b83161790556004805483168a831617905560058054831689831617905560068054831688831617905560078054831687831617905560088054909216908516179055600960208190526000197fec8156718a8372b1db44bb411437d0870f3e3790d4a08526d024ce1b0b668f6b81905560009384527f92e85d02570a8092d09a6e3a57665bc3815a2699a4074001bf1ccabf660f5a3681905592909181526020019081526020016000208190555050505050505050506200026e565b600080546001600160a01b038381166001600160a01b0319831681178455604051919092169283917f8be0079c531659141344cd1fd0a4f28419497f9722a3daafe3b4186f6b6457e09190a35050565b80516001600160a01b0381168114620001c157600080fd5b919050565b600080600080600080600080610100898b031215620001e457600080fd5b620001ef89620001a9565b9750620001ff60208a01620001a9565b96506200020f60408a01620001a9565b95506200021f60608a01620001a9565b94506200022f60808a01620001a9565b93506200023f60a08a01620001a9565b92506200024f60c08a01620001a9565b91506200025f60e08a01620001a9565b90509295985092959890939650565b6116e7806200027e6000396000f3fe6080604052600436106101235760003560e01c806385c73b9c116100a0578063db2e21bc11610064578063db2e21bc14610360578063e2e9ae5314610375578063e35ec00d14610395578063ef7786fe146103b5578063f2fde38b146103d557600080fd5b806385c73b9c146102cd5780638da5cb5b146102e25780639e95239514610300578063abf084a314610320578063d8fa00571461034057600080fd5b80635a670d50116100e75780635a670d501461021d5780635d0cc38f1461023d5780636aea7ca11461026b5780636f8c0a2a14610298578063715018a6146102b857600080fd5b806306e030e11461012f5780630f45db91146101745780631320c97e146101a35780631cf0069f146101c55780632630c12f146101fd57600080fd5b3661012a57005b600080fd5b34801561013b57600080fd5b5061015f61014a3660046111e7565b600a6020526000908152604090205460ff1681565b60405190151581526020015b60405180910390f35b34801561018057600080fd5b5061019461018f3660046111e7565b6103f5565b60405161016b9392919061120b565b3480156101af57600080fd5b506101c36101be366004611262565b6104ec565b005b3480156101d157600080fd5b506002546101e5906001600160a01b031681565b6040516001600160a01b03909116815260200161016b565b34801561020957600080fd5b506008546101e5906001600160a01b031681565b34801561022957600080fd5b506101c3610238366004611288565b610809565b34801561024957600080fd5b5061025d610258366004611262565b610a4e565b60405190815260200161016b565b34801561027757600080fd5b5061025d6102863660046112b4565b60096020526000908152604090205481565b3480156102a457600080fd5b506007546101e5906001600160a01b031681565b3480156102c457600080fd5b506101c3610df9565b3480156102d957600080fd5b506101c3610e0d565b3480156102ee57600080fd5b506000546001600160a01b03166101e5565b34801561030c57600080fd5b506101c361031b3660046112d1565b610f2b565b34801561032c57600080fd5b506003546101e5906001600160a01b031681565b34801561034c57600080fd5b506005546101e5906001600160a01b031681565b34801561036c57600080fd5b506101c3610f9d565b34801561038157600080fd5b506004546101e5906001600160a01b031681565b3480156103a157600080fd5b5061025d6103b03660046112b4565b610fdf565b3480156103c157600080fd5b506006546101e5906001600160a01b031681565b3480156103e157600080fd5b506101c36103f03660046111e7565b6110f0565b6002546040516370a0823160e01b81526001600160a01b0383811660048301526000928392606092909116906370a0823190602401602060405180830381865afa158015610447573d6000803e3d6000fd5b505050506040513d601f19601f8201168201806040525081019061046b91906112ef565b60055460405163455b9d2360e01b81526001600160a01b03878116600483015292955091169063455b9d2390602401600060405180830381865afa1580156104b7573d6000803e3d6000fd5b505050506040513d6000823e601f3d908101601f191682016040526104df9190810190611378565b9050805191509193909250565b6104f461112b565b600480546040516331a9108f60e11b815291820183905233916001600160a01b0390911690636352211e90602401602060405180830381865afa15801561053f573d6000803e3d6000fd5b505050506040513d601f19601f820116820180604052508101906105639190611429565b6001600160a01b0316146105af5760405162461bcd60e51b815260206004820152600e60248201526d2737ba1031b937b81037bbb732b960911b60448201526064015b60405180910390fd5b600480546040516322f1fea760e21b81529182018390526000916001600160a01b0390911690638bc7fa9c90602401608060405180830381865afa1580156105fb573d6000803e3d6000fd5b505050506040513d601f19601f8201168201806040525081019061061f9190611446565b905060008082516002811115610637576106376114bb565b036106445750600061066a565b600182516002811115610659576106596114bb565b036106665750600161066a565b5060025b60085460405163eea138e160e01b81526000916001600160a01b03169063eea138e19061069b9085906004016114ef565b602060405180830381865afa1580156106b8573d6000803e3d6000fd5b505050506040513d601f19601f820116820180604052508101906106dc91906112ef565b905060006103e88460200151836106f39190611518565b6106fd9190611535565b6002546040516340c10f1960e01b8152336004820152602481018390529192506001600160a01b0316906340c10f1990604401600060405180830381600087803b15801561074a57600080fd5b505af115801561075e573d6000803e3d6000fd5b505060048054604051630852cd8d60e31b81529182018990526001600160a01b031692506342966c689150602401600060405180830381600087803b1580156107a657600080fd5b505af11580156107ba573d6000803e3d6000fd5b505060408051888152602081018590523393507f7d2113fe9194981b7b193b07ea03da5a6fd912b51506acf6d67453cd3455cabe92500160405180910390a25050505061080660018055565b50565b61081161112b565b600081116108545760405162461bcd60e51b815260206004820152601060248201526f496e76616c6964207175616e7469747960801b60448201526064016105a6565b806009600084600281111561086b5761086b6114bb565b600281111561087c5761087c6114bb565b81526020019081526020016000205410156108d25760405162461bcd60e51b8152602060048201526016602482015275496e73756666696369656e7420696e76656e746f727960501b60448201526064016105a6565b600854604051636604c5fb60e11b81526000916001600160a01b03169063cc098bf6906109039086906004016114ef565b602060405180830381865afa158015610920573d6000803e3d6000fd5b505050506040513d601f19601f8201168201806040525081019061094491906112ef565b905060006109528383611518565b60025460405163079cc67960e41b8152336004820152602481018390529192506001600160a01b0316906379cc679090604401600060405180830381600087803b15801561099f57600080fd5b505af11580156109b3573d6000803e3d6000fd5b5050505082600960008660028111156109ce576109ce6114bb565b60028111156109df576109df6114bb565b815260200190815260200160002060008282546109fc9190611557565b909155505060405133907f0e32514dbaf7f1886ac4330923873113293d0abf52459dffaa2189c2282083b590610a379087908790869061156a565b60405180910390a25050610a4a60018055565b5050565b6000610a5861112b565b6003546040516331a9108f60e11b81526004810184905233916001600160a01b031690636352211e90602401602060405180830381865afa158015610aa1573d6000803e3d6000fd5b505050506040513d601f19601f82011682018060405250810190610ac59190611429565b6001600160a01b031614610b0d5760405162461bcd60e51b815260206004820152600f60248201526e2737ba10383630b73a1037bbb732b960891b60448201526064016105a6565b60035460405163d902c92760e01b8152600481018490526001600160a01b039091169063d902c92790602401602060405180830381865afa158015610b56573d6000803e3d6000fd5b505050506040513d601f19601f82011682018060405250810190610b7a919061159b565b610bb85760405162461bcd60e51b815260206004820152600f60248201526e506c616e74206e6f7420726561647960881b60448201526064016105a6565b60035460405163ed0b1f5f60e01b8152600481018490526000916001600160a01b03169063ed0b1f5f9060240160e060405180830381865afa158015610c02573d6000803e3d6000fd5b505050506040513d601f19601f82011682018060405250810190610c2691906115c8565b905060008082516002811115610c3e57610c3e6114bb565b03610c4b57506000610c71565b600182516002811115610c6057610c606114bb565b03610c6d57506001610c71565b5060025b6003546040516381297c0360e01b8152600481018690526001600160a01b03909116906381297c0390602401600060405180830381600087803b158015610cb757600080fd5b505af1158015610ccb573d6000803e3d6000fd5b5050600480546040808701519051632769c3d960e11b8152600095506001600160a01b039092169350634ed387b292610d0a9233928892909101611656565b6020604051808303816000875af1158015610d29573d6000803e3d6000fd5b505050506040513d601f19601f82011682018060405250810190610d4d91906112ef565b600354604051630852cd8d60e31b8152600481018890529192506001600160a01b0316906342966c6890602401600060405180830381600087803b158015610d9457600080fd5b505af1158015610da8573d6000803e3d6000fd5b505060408051888152602081018590523393507f1d2744d484bfd6c11eb698d6664c8bf1eb4260fbe4b9f99912e87eff5dd2ff8292500160405180910390a292505050610df460018055565b919050565b610e01611155565b610e0b6000611182565b565b336000908152600a602052604090205460ff1615610e645760405162461bcd60e51b815260206004820152601460248201527313185b9908185b1c9958591e4818db185a5b595960621b60448201526064016105a6565b336000908152600a60205260408120805460ff191660011790555b60068160ff1610156108065760005b60088160ff161015610f22576005546040516306a524d560e31b815233600482015260ff8084166024830152841660448201526001600160a01b039091169063352926a8906064016020604051808303816000875af1158015610ef5573d6000803e3d6000fd5b505050506040513d601f19601f82011682018060405250810190610f1991906112ef565b50600101610e8e565b50600101610e7f565b610f33611155565b6002546040516340c10f1960e01b81526001600160a01b03848116600483015260248201849052909116906340c10f1990604401600060405180830381600087803b158015610f8157600080fd5b505af1158015610f95573d6000803e3d6000fd5b505050505050565b610fa5611155565b600080546040516001600160a01b03909116914780156108fc02929091818181858888f19350505050158015610806573d6000803e3d6000fd5b6000610fe961112b565b600080836002811115610ffe57610ffe6114bb565b0361100b57506000611030565b600183600281111561101f5761101f6114bb565b0361102c57506001611030565b5060025b600354604051632769c3d960e11b81526001600160a01b0390911690634ed387b2906110659033908590600090600401611687565b6020604051808303816000875af1158015611084573d6000803e3d6000fd5b505050506040513d601f19601f820116820180604052508101906110a891906112ef565b604080518281526000602082015291935033917f443deb677b158d42d9989f309feeb2c861adadb2ea82bd1592611542218579ef910160405180910390a250610df460018055565b6110f8611155565b6001600160a01b03811661112257604051631e4fbdf760e01b8152600060048201526024016105a6565b61080681611182565b60026001540361114e57604051633ee5aeb560e01b815260040160405180910390fd5b6002600155565b6000546001600160a01b03163314610e0b5760405163118cdaa760e01b81523360048201526024016105a6565b600080546001600160a01b038381166001600160a01b0319831681178455604051919092169283917f8be0079c531659141344cd1fd0a4f28419497f9722a3daafe3b4186f6b6457e09190a35050565b6001600160a01b038116811461080657600080fd5b6000602082840312156111f957600080fd5b8135611204816111d2565b9392505050565b60006060820185835260208560208501526060604085015281855180845260808601915060208701935060005b8181101561125457845183529383019391830191600101611238565b509098975050505050505050565b60006020828403121561127457600080fd5b5035919050565b6003811061080657600080fd5b6000806040838503121561129b57600080fd5b82356112a68161127b565b946020939093013593505050565b6000602082840312156112c657600080fd5b81356112048161127b565b600080604083850312156112e457600080fd5b82356112a6816111d2565b60006020828403121561130157600080fd5b5051919050565b634e487b7160e01b600052604160045260246000fd5b60405160e0810167ffffffffffffffff8111828210171561134157611341611308565b60405290565b604051601f8201601f1916810167ffffffffffffffff8111828210171561137057611370611308565b604052919050565b6000602080838503121561138b57600080fd5b825167ffffffffffffffff808211156113a357600080fd5b818501915085601f8301126113b757600080fd5b8151818111156113c9576113c9611308565b8060051b91506113da848301611347565b81815291830184019184810190888411156113f457600080fd5b938501935b83851015611412578451825293850193908501906113f9565b98975050505050505050565b8051610df4816111d2565b60006020828403121561143b57600080fd5b8151611204816111d2565b60006080828403121561145857600080fd5b6040516080810181811067ffffffffffffffff8211171561147b5761147b611308565b60405282516114898161127b565b80825250602083015160208201526040830151604082015260608301516114af816111d2565b60608201529392505050565b634e487b7160e01b600052602160045260246000fd5b6003811061080657634e487b7160e01b600052602160045260246000fd5b602081016114fc836114d1565b91905290565b634e487b7160e01b600052601160045260246000fd5b808202811582820484141761152f5761152f611502565b92915050565b60008261155257634e487b7160e01b600052601260045260246000fd5b500490565b8181038181111561152f5761152f611502565b60608101611577856114d1565b938152602081019290925260409091015290565b80518015158114610df457600080fd5b6000602082840312156115ad57600080fd5b6112048261158b565b805161ffff81168114610df457600080fd5b600060e082840312156115da57600080fd5b6115e261131e565b82516115ed8161127b565b8152602083015160ff8116811461160357600080fd5b6020820152611614604084016115b6565b6040820152606083015160608201526080830151608082015261163960a0840161158b565b60a082015261164a60c0840161141e565b60c08201529392505050565b6001600160a01b03841681526060810161166f846114d1565b83602083015261ffff83166040830152949350505050565b6001600160a01b0384168152606081016116a0846114d1565b60208201939093526040015291905056fea26469706673582212201471f509dc30877e368e2aaf194fb1a5af593e9cf69053f1d4f206cab21ae59e64736f6c63430008180033",
  "devdoc": {
    "details": "Orchestrates the entire chain reaction: Buy -> Plant -> Event -> Effect -> Price Change",
    "errors": {
      "OwnableInvalidOwner(address)": [
        {
          "details": "The owner is not a valid owner account. (eg. `address(0)`)"
        }
      ],
      "OwnableUnauthorizedAccount(address)": [
        {
          "details": "The caller account is not authorized to perform an operation."
        }
      ],
      "ReentrancyGuardReentrantCall()": [
        {
          "details": "Unauthorized reentrant call."
        }
      ]
    },
    "kind": "dev",
    "methods": {
      "owner()": {
        "details": "Returns the address of the current owner."
      },
      "renounceOwnership()": {
        "details": "Leaves the contract without owner. It will not be possible to call `onlyOwner` functions. Can only be called by the current owner. NOTE: Renouncing ownership will leave the contract without an owner, thereby disabling any functionality that is only available to the owner."
      },
      "transferOwnership(address)": {
        "details": "Transfers ownership of the contract to a new account (`newOwner`). Can only be called by the current owner."
      }
    },
    "title": "FarmMarketplace",
    "version": 1
  },
  "userdoc": {
    "kind": "user",
    "methods": {
      "buySeed(uint8,uint256)": {
        "notice": "Buy seeds from shop using FarmCoin"
      },
      "emergencyWithdraw()": {
        "notice": "Emergency withdraw (owner only)"
      },
      "getPlayerStatus(address)": {
        "notice": "Get player's farm status"
      },
      "giveStarterCoins(address,uint256)": {
        "notice": "Give starter coins to new players"
      },
      "harvestCrop(uint256)": {
        "notice": "Harvest a mature plant and receive Crop NFT"
      },
      "mintStarterLand()": {
        "notice": "Mint initial land plots to a new player (one time only)"
      },
      "plantSeed(uint8)": {
        "notice": "Plant a seed on owned land"
      },
      "sellCrop(uint256)": {
        "notice": "Sell harvested crop for FarmCoin"
      }
    },
    "notice": "Main marketplace for buying seeds, planting, harvesting, and selling crops",
    "version": 1
  },
  "storageLayout": {
    "storage": [
      {
        "astId": 8,
        "contract": "contracts/FarmMarketplace.sol:FarmMarketplace",
        "label": "_owner",
        "offset": 0,
        "slot": "0",
        "type": "t_address"
      },
      {
        "astId": 2532,
        "contract": "contracts/FarmMarketplace.sol:FarmMarketplace",
        "label": "_status",
        "offset": 0,
        "slot": "1",
        "type": "t_uint256"
      },
      {
        "astId": 4808,
        "contract": "contracts/FarmMarketplace.sol:FarmMarketplace",
        "label": "farmCoin",
        "offset": 0,
        "slot": "2",
        "type": "t_contract(FarmCoin)4512"
      },
      {
        "astId": 4811,
        "contract": "contracts/FarmMarketplace.sol:FarmMarketplace",
        "label": "plantNFT",
        "offset": 0,
        "slot": "3",
        "type": "t_contract(PlantNFT)6630"
      },
      {
        "astId": 4814,
        "contract": "contracts/FarmMarketplace.sol:FarmMarketplace",
        "label": "cropNFT",
        "offset": 0,
        "slot": "4",
        "type": "t_contract(CropNFT)4332"
      },
      {
        "astId": 4817,
        "contract": "contracts/FarmMarketplace.sol:FarmMarketplace",
        "label": "farmLand",
        "offset": 0,
        "slot": "5",
        "type": "t_contract(FarmLand)4789"
      },
      {
        "astId": 4820,
        "contract": "contracts/FarmMarketplace.sol:FarmMarketplace",
        "label": "gameEvents",
        "offset": 0,
        "slot": "6",
        "type": "t_contract(GameEvents)6153"
      },
      {
        "astId": 4823,
        "contract": "contracts/FarmMarketplace.sol:FarmMarketplace",
        "label": "gameEffects",
        "offset": 0,
        "slot": "7",
        "type": "t_contract(GameEffects)5784"
      },
      {
        "astId": 4826,
        "contract": "contracts/FarmMarketplace.sol:FarmMarketplace",
        "label": "priceOracle",
        "offset": 0,
        "slot": "8",
        "type": "t_contract(PriceOracle)6954"
      },
      {
        "astId": 4831,
        "contract": "contracts/FarmMarketplace.sol:FarmMarketplace",
        "label": "seedInventory",
        "offset": 0,
        "slot": "9",
        "type": "t_mapping(t_enum(SeedType)6643,t_uint256)"
      },
      {
        "astId": 5332,
        "contract": "contracts/FarmMarketplace.sol:FarmMarketplace",
        "label": "hasClaimedStarterLand",
        "offset": 0,
        "slot": "10",
        "type": "t_mapping(t_address,t_bool)"
      }
    ],
    "types": {
      "t_address": {
        "encoding": "inplace",
        "label": "address",
        "numberOfBytes": "20"
      },
      "t_bool": {
        "encoding": "inplace",
        "label": "bool",
        "numberOfBytes": "1"
      },
      "t_contract(CropNFT)4332": {
        "encoding": "inplace",
        "label": "contract CropNFT",
        "numberOfBytes": "20"
      },
      "t_contract(FarmCoin)4512": {
        "encoding": "inplace",
        "label": "contract FarmCoin",
        "numberOfBytes": "20"
      },
      "t_contract(FarmLand)4789": {
        "encoding": "inplace",
        "label": "contract FarmLand",
        "numberOfBytes": "20"
      },
      "t_contract(GameEffects)5784": {
        "encoding": "inplace",
        "label": "contract GameEffects",
        "numberOfBytes": "20"
      },
      "t_contract(GameEvents)6153": {
        "encoding": "inplace",
        "label": "contract GameEvents",
        "numberOfBytes": "20"
      },
      "t_contract(PlantNFT)6630": {
        "encoding": "inplace",
        "label": "contract PlantNFT",
        "numberOfBytes": "20"
      },
      "t_contract(PriceOracle)6954": {
        "encoding": "inplace",
        "label": "contract PriceOracle",
        "numberOfBytes": "20"
      },
      "t_enum(SeedType)6643": {
        "encoding": "inplace",
        "label": "enum PriceOracle.SeedType",
        "numberOfBytes": "1"
      },
      "t_mapping(t_address,t_bool)": {
        "encoding": "mapping",
        "key": "t_address",
        "label": "mapping(address => bool)",
        "numberOfBytes": "32",
        "value": "t_bool"
      },
      "t_mapping(t_enum(SeedType)6643,t_uint256)": {
        "encoding": "mapping",
        "key": "t_enum(SeedType)6643",
        "label": "mapping(enum PriceOracle.SeedType => uint256)",
        "numberOfBytes": "32",
        "value": "t_uint256"
      },
      "t_uint256": {
        "encoding": "inplace",
        "label": "uint256",
        "numberOfBytes": "32"
      }
    }
  }
}