{
  "address": "0x1291Be112d480055DaFd8a610b7d1e203891C274",
  "abi": [
    {
      "inputs": [
        {
          "internalType": "address",
          "name": "initialOwner",
          "type": "address"
        },
        {
          "internalType": "address",
          "name": "_plantNFT",
          "type": "address"
        },
        {
          "internalType": "address",
          "name": "_farmLand",
          "type": "address"
        },
        {
          "internalType": "address",
          "name": "_gameEvents",
          "type": "address"
        }
      ],
      "stateMutability": "nonpayable",
      "type": "constructor"
    },
    {
      "inputs": [
        {
          "internalType": "address",
          "name": "owner",
          "type": "address"
        }
      ],
      "name": "OwnableInvalidOwner",
      "type": "error"
    },
    {
      "inputs": [
        {
          "internalType": "address",
          "name": "account",
          "type": "address"
        }
      ],
      "name": "OwnableUnauthorizedAccount",
      "type": "error"
    },
    {
      "anonymous": false,
      "inputs": [
        {
          "indexed": true,
          "internalType": "uint256",
          "name": "eventId",
          "type": "uint256"
        },
        {
          "indexed": false,
          "internalType": "int16",
          "name": "avgHealthChange",
          "type": "int16"
        },
        {
          "indexed": false,
          "internalType": "int16",
          "name": "avgFertilityChange",
          "type": "int16"
        },
        {
          "indexed": false,
          "internalType": "uint16",
          "name": "affectedPlants",
          "type": "uint16"
        },
        {
          "indexed": false,
          "internalType": "uint16",
          "name": "affectedLand",
          "type": "uint16"
        }
      ],
      "name": "EffectsApplied",
      "type": "event"
    },
    {
      "anonymous": false,
      "inputs": [
        {
          "indexed": true,
          "internalType": "address",
          "name": "previousOwner",
          "type": "address"
        },
        {
          "indexed": true,
          "internalType": "address",
          "name": "newOwner",
          "type": "address"
        }
      ],
      "name": "OwnershipTransferred",
      "type": "event"
    },
    {
      "inputs": [
        {
          "internalType": "uint256",
          "name": "plantTokenId",
          "type": "uint256"
        },
        {
          "internalType": "uint256",
          "name": "eventId",
          "type": "uint256"
        }
      ],
      "name": "applyEffectToPlant",
      "outputs": [],
      "stateMutability": "nonpayable",
      "type": "function"
    },
    {
      "inputs": [
        {
          "internalType": "uint256",
          "name": "eventId",
          "type": "uint256"
        },
        {
          "internalType": "address",
          "name": "farmer",
          "type": "address"
        }
      ],
      "name": "applyEffects",
      "outputs": [
        {
          "components": [
            {
              "internalType": "int16",
              "name": "healthChange",
              "type": "int16"
            },
            {
              "internalType": "int16",
              "name": "fertilityChange",
              "type": "int16"
            },
            {
              "internalType": "uint16",
              "name": "affectedPlants",
              "type": "uint16"
            },
            {
              "internalType": "uint16",
              "name": "affectedLand",
              "type": "uint16"
            }
          ],
          "internalType": "struct GameEffects.EffectResult",
          "name": "",
          "type": "tuple"
        }
      ],
      "stateMutability": "nonpayable",
      "type": "function"
    },
    {
      "inputs": [],
      "name": "farmLand",
      "outputs": [
        {
          "internalType": "contract FarmLand",
          "name": "",
          "type": "address"
        }
      ],
      "stateMutability": "view",
      "type": "function"
    },
    {
      "inputs": [],
      "name": "gameEvents",
      "outputs": [
        {
          "internalType": "contract GameEvents",
          "name": "",
          "type": "address"
        }
      ],
      "stateMutability": "view",
      "type": "function"
    },
    {
      "inputs": [],
      "name": "owner",
      "outputs": [
        {
          "internalType": "address",
          "name": "",
          "type": "address"
        }
      ],
      "stateMutability": "view",
      "type": "function"
    },
    {
      "inputs": [],
      "name": "plantNFT",
      "outputs": [
        {
          "internalType": "contract PlantNFT",
          "name": "",
          "type": "address"
        }
      ],
      "stateMutability": "view",
      "type": "function"
    },
    {
      "inputs": [],
      "name": "priceOracle",
      "outputs": [
        {
          "internalType": "address",
          "name": "",
          "type": "address"
        }
      ],
      "stateMutability": "view",
      "type": "function"
    },
    {
      "inputs": [],
      "name": "renounceOwnership",
      "outputs": [],
      "stateMutability": "nonpayable",
      "type": "function"
    },
    {
      "inputs": [
        {
          "internalType": "address",
          "name": "_priceOracle",
          "type": "address"
        }
      ],
      "name": "setPriceOracle",
      "outputs": [],
      "stateMutability": "nonpayable",
      "type": "function"
    },
    {
      "inputs": [
        {
          "internalType": "address",
          "name": "newOwner",
          "type": "address"
        }
      ],
      "name": "transferOwnership",
      "outputs": [],
      "stateMutability": "nonpayable",
      "type": "function"
    }
  ],
  "transactionHash": "0xcbafe7fe1fd6c5303674eda30e6b1ea71572cb208fd55a6043dfb50c33080095",
  "args": [
    "0xf39Fd6e51aad88F6F4ce6aB8827279cffFb92266",
    "0x36C02dA8a0983159322a80FFE9F24b1acfF8B570",
    "0x809d550fca64d94Bd9F66E60752A544199cfAC3D",
    "0x4c5859f0F772848b2D91F1D83E2Fe57935348029"
  ],
  "numDeployments": 1,
  "solcInputHash": "5a7c913e832cbcb2622e48effc3e7d82",
  "bytecode": "0x60806040523480156200001157600080fd5b506040516200102338038062001023833981016040819052620000349162000121565b836001600160a01b0381166200006457604051631e4fbdf760e01b81526000600482015260240160405180910390fd5b6200006f81620000b4565b50600180546001600160a01b039485166001600160a01b031991821617909155600280549385169382169390931790925560038054919093169116179055506200017e565b600080546001600160a01b038381166001600160a01b0319831681178455604051919092169283917f8be0079c531659141344cd1fd0a4f28419497f9722a3daafe3b4186f6b6457e09190a35050565b80516001600160a01b03811681146200011c57600080fd5b919050565b600080600080608085870312156200013857600080fd5b620001438562000104565b9350620001536020860162000104565b9250620001636040860162000104565b9150620001736060860162000104565b905092959194509250565b610e95806200018e6000396000f3fe608060405234801561001057600080fd5b506004361061009e5760003560e01c80638da5cb5b116100665780638da5cb5b1461015e578063abf084a31461016f578063d8fa005714610182578063ef7786fe14610195578063f2fde38b146101a857600080fd5b80630c5f5744146100a35780632630c12f146100b8578063530e784f146100e8578063667003dc146100fb578063715018a614610156575b600080fd5b6100b66100b1366004610a1f565b6101bb565b005b6004546100cb906001600160a01b031681565b6040516001600160a01b0390911681526020015b60405180910390f35b6100b66100f6366004610a56565b6103f0565b61010e610109366004610a73565b61041a565b6040516100df91906000608082019050825160010b8252602083015160010b6020830152604083015161ffff8082166040850152806060860151166060850152505092915050565b6100b661072b565b6000546001600160a01b03166100cb565b6001546100cb906001600160a01b031681565b6002546100cb906001600160a01b031681565b6003546100cb906001600160a01b031681565b6100b66101b6366004610a56565b61073f565b6001546040516331a9108f60e11b81526004810184905233916001600160a01b031690636352211e90602401602060405180830381865afa158015610204573d6000803e3d6000fd5b505050506040513d601f19601f820116820180604052508101906102289190610aa3565b6001600160a01b0316146102755760405162461bcd60e51b815260206004820152600f60248201526e2737ba10383630b73a1037bbb732b960891b60448201526064015b60405180910390fd5b600354604051630368c42760e51b8152600481018390526000916001600160a01b031690636d1884e090602401608060405180830381865afa1580156102bf573d6000803e3d6000fd5b505050506040513d601f19601f820116820180604052508101906102e39190610b47565b60015460405163ed0b1f5f60e01b8152600481018690529192506000916001600160a01b039091169063ed0b1f5f9060240160a060405180830381865afa158015610332573d6000803e3d6000fd5b505050506040513d601f19601f820116820180604052508101906103569190610bb2565b9050600061036c8360000151846020015161077d565b509050600061037f836040015183610956565b60015460405163283d26d760e21b81526004810189905261ffff831660248201529192506001600160a01b03169063a0f49b5c90604401600060405180830381600087803b1580156103d057600080fd5b505af11580156103e4573d6000803e3d6000fd5b50505050505050505050565b6103f86109a2565b600480546001600160a01b0319166001600160a01b0392909216919091179055565b604080516080810182526000808252602082018190529181018290526060810191909152600354604051630368c42760e51b8152600481018590526000916001600160a01b031690636d1884e090602401608060405180830381865afa158015610488573d6000803e3d6000fd5b505050506040513d601f19601f820116820180604052508101906104ac9190610b47565b60025460405163455b9d2360e01b81526001600160a01b0386811660048301529293506000929091169063455b9d2390602401600060405180830381865afa1580156104fc573d6000803e3d6000fd5b505050506040513d6000823e601f3d908101601f191682016040526105249190810190610c3b565b604080516080810182526000808252602080830182905292820181905260608201819052855192860151939450909290918291610561919061077d565b9150915060005b84518110156106c057600085828151811061058557610585610ce1565b60209081029190910101516002546040516306b43eb760e41b8152600481018390529192506000916001600160a01b0390911690636b43eb7090602401608060405180830381865afa1580156105df573d6000803e3d6000fd5b505050506040513d601f19601f820116820180604052508101906106039190610cf7565b90506000610615826040015186610956565b600254604051636e67df7d60e11b81526004810186905261ffff831660248201529192506001600160a01b03169063dccfbefa90604401600060405180830381600087803b15801561066657600080fd5b505af115801561067a573d6000803e3d6000fd5b505050606088018051915061068e82610d68565b61ffff169052506020870180518691906106a9908390610d89565b600190810b90915294909401935061056892505050565b506040838101516060808601518351600187810b825286900b602082015261ffff93841681860152921690820152905189917f2c09593b6c2c9824525ba7c28fd676774dc20662177ebe050d266f286ba2a9f4919081900360800190a2509093505050505b92915050565b6107336109a2565b61073d60006109cf565b565b6107476109a2565b6001600160a01b03811661077157604051631e4fbdf760e01b81526000600482015260240161026c565b61077a816109cf565b50565b6000808084600781111561079357610793610dac565b036107a35750600090508061094f565b60038460078111156107b7576107b7610dac565b036107db576107c7600584610dc2565b91506107d4600a84610dc2565b905061094f565b60068460078111156107ef576107ef610dac565b0361080c576107ff600384610dc2565b91506107d4600584610dc2565b600184600781111561082057610820610dac565b0361084f57610830600284610dc2565b61083990610df1565b9150610846600484610dc2565b6107d490610df1565b600584600781111561086357610863610dac565b0361089557600a610875846007610e12565b61087f9190610dc2565b61088890610df1565b9150610846600384610dc2565b60048460078111156108a9576108a9610dac565b036108cf576108b9600384610dc2565b6108c290610df1565b9150610846600584610dc2565b60028460078111156108e3576108e3610dac565b03610909576108f3600584610dc2565b6108fc90610df1565b9150610846600a84610dc2565b600784600781111561091d5761091d610dac565b0361094f5761092d600484610dc2565b61093690610df1565b9150610943600684610dc2565b61094c90610df1565b90505b9250929050565b6000808260010b8460010b61096b9190610e38565b905060008160030b1215610983576000915050610725565b6103e88160030b131561099b576103e8915050610725565b9392505050565b6000546001600160a01b0316331461073d5760405163118cdaa760e01b815233600482015260240161026c565b600080546001600160a01b038381166001600160a01b0319831681178455604051919092169283917f8be0079c531659141344cd1fd0a4f28419497f9722a3daafe3b4186f6b6457e09190a35050565b60008060408385031215610a3257600080fd5b50508035926020909101359150565b6001600160a01b038116811461077a57600080fd5b600060208284031215610a6857600080fd5b813561099b81610a41565b60008060408385031215610a8657600080fd5b823591506020830135610a9881610a41565b809150509250929050565b600060208284031215610ab557600080fd5b815161099b81610a41565b634e487b7160e01b600052604160045260246000fd5b6040516080810167ffffffffffffffff81118282101715610af957610af9610ac0565b60405290565b604051601f8201601f1916810167ffffffffffffffff81118282101715610b2857610b28610ac0565b604052919050565b805161ffff81168114610b4257600080fd5b919050565b600060808284031215610b5957600080fd5b610b61610ad6565b825160088110610b7057600080fd5b8152610b7e60208401610b30565b602082015260408301516040820152606083015160608201528091505092915050565b805160ff81168114610b4257600080fd5b600060a08284031215610bc457600080fd5b60405160a0810181811067ffffffffffffffff82111715610be757610be7610ac0565b604052825160038110610bf957600080fd5b8152610c0760208401610ba1565b6020820152610c1860408401610b30565b604082015260608301516060820152608083015160808201528091505092915050565b60006020808385031215610c4e57600080fd5b825167ffffffffffffffff80821115610c6657600080fd5b818501915085601f830112610c7a57600080fd5b815181811115610c8c57610c8c610ac0565b8060051b9150610c9d848301610aff565b8181529183018401918481019088841115610cb757600080fd5b938501935b83851015610cd557845182529385019390850190610cbc565b98975050505050505050565b634e487b7160e01b600052603260045260246000fd5b600060808284031215610d0957600080fd5b610d11610ad6565b610d1a83610ba1565b8152610d2860208401610ba1565b6020820152610d3960408401610b30565b6040820152606083015160608201528091505092915050565b634e487b7160e01b600052601160045260246000fd5b600061ffff808316818103610d7f57610d7f610d52565b6001019392505050565b600181810b9083900b01617fff8113617fff198212171561072557610725610d52565b634e487b7160e01b600052602160045260246000fd5b600061ffff80841680610de557634e487b7160e01b600052601260045260246000fd5b92169190910492915050565b60008160010b617fff198103610e0957610e09610d52565b60000392915050565b61ffff818116838216028082169190828114610e3057610e30610d52565b505092915050565b600381810b9083900b01637fffffff8113637fffffff198212171561072557610725610d5256fea264697066735822122043ffe2f4100f54e63e78031422d441f97474648625671e9cba3ab3df771d193a64736f6c63430008180033",
  "devdoc": {
    "details": "Second contract in the chain reaction (called after GameEvents)",
    "errors": {
      "OwnableInvalidOwner(address)": [
        {
          "details": "The owner is not a valid owner account. (eg. `address(0)`)"
        }
      ],
      "OwnableUnauthorizedAccount(address)": [
        {
          "details": "The caller account is not authorized to perform an operation."
        }
      ]
    },
    "kind": "dev",
    "methods": {
      "applyEffects(uint256,address)": {
        "details": "Called automatically after event is triggered"
      },
      "owner()": {
        "details": "Returns the address of the current owner."
      },
      "renounceOwnership()": {
        "details": "Leaves the contract without owner. It will not be possible to call `onlyOwner` functions. Can only be called by the current owner. NOTE: Renouncing ownership will leave the contract without an owner, thereby disabling any functionality that is only available to the owner."
      },
      "transferOwnership(address)": {
        "details": "Transfers ownership of the contract to a new account (`newOwner`). Can only be called by the current owner."
      }
    },
    "title": "GameEffects",
    "version": 1
  },
  "userdoc": {
    "kind": "user",
    "methods": {
      "applyEffectToPlant(uint256,uint256)": {
        "notice": "Apply effect to a specific plant"
      },
      "applyEffects(uint256,address)": {
        "notice": "Apply effects to a player's farm based on event"
      },
      "setPriceOracle(address)": {
        "notice": "Set price oracle contract"
      }
    },
    "notice": "Applies event effects to plants and land",
    "version": 1
  },
  "storageLayout": {
    "storage": [
      {
        "astId": 8,
        "contract": "contracts/GameEffects.sol:GameEffects",
        "label": "_owner",
        "offset": 0,
        "slot": "0",
        "type": "t_address"
      },
      {
        "astId": 4628,
        "contract": "contracts/GameEffects.sol:GameEffects",
        "label": "plantNFT",
        "offset": 0,
        "slot": "1",
        "type": "t_contract(PlantNFT)5822"
      },
      {
        "astId": 4631,
        "contract": "contracts/GameEffects.sol:GameEffects",
        "label": "farmLand",
        "offset": 0,
        "slot": "2",
        "type": "t_contract(FarmLand)4023"
      },
      {
        "astId": 4634,
        "contract": "contracts/GameEffects.sol:GameEffects",
        "label": "gameEvents",
        "offset": 0,
        "slot": "3",
        "type": "t_contract(GameEvents)5496"
      },
      {
        "astId": 4636,
        "contract": "contracts/GameEffects.sol:GameEffects",
        "label": "priceOracle",
        "offset": 0,
        "slot": "4",
        "type": "t_address"
      }
    ],
    "types": {
      "t_address": {
        "encoding": "inplace",
        "label": "address",
        "numberOfBytes": "20"
      },
      "t_contract(FarmLand)4023": {
        "encoding": "inplace",
        "label": "contract FarmLand",
        "numberOfBytes": "20"
      },
      "t_contract(GameEvents)5496": {
        "encoding": "inplace",
        "label": "contract GameEvents",
        "numberOfBytes": "20"
      },
      "t_contract(PlantNFT)5822": {
        "encoding": "inplace",
        "label": "contract PlantNFT",
        "numberOfBytes": "20"
      }
    }
  }
}