{
  "address": "0x4c5859f0F772848b2D91F1D83E2Fe57935348029",
  "abi": [
    {
      "inputs": [
        {
          "internalType": "address",
          "name": "initialOwner",
          "type": "address"
        }
      ],
      "stateMutability": "nonpayable",
      "type": "constructor"
    },
    {
      "inputs": [
        {
          "internalType": "address",
          "name": "owner",
          "type": "address"
        }
      ],
      "name": "OwnableInvalidOwner",
      "type": "error"
    },
    {
      "inputs": [
        {
          "internalType": "address",
          "name": "account",
          "type": "address"
        }
      ],
      "name": "OwnableUnauthorizedAccount",
      "type": "error"
    },
    {
      "anonymous": false,
      "inputs": [
        {
          "indexed": true,
          "internalType": "uint256",
          "name": "eventId",
          "type": "uint256"
        },
        {
          "indexed": false,
          "internalType": "enum GameEvents.EventType",
          "name": "eventType",
          "type": "uint8"
        },
        {
          "indexed": false,
          "internalType": "uint16",
          "name": "severity",
          "type": "uint16"
        },
        {
          "indexed": false,
          "internalType": "uint256",
          "name": "timestamp",
          "type": "uint256"
        }
      ],
      "name": "EventTriggered",
      "type": "event"
    },
    {
      "anonymous": false,
      "inputs": [
        {
          "indexed": true,
          "internalType": "address",
          "name": "previousOwner",
          "type": "address"
        },
        {
          "indexed": true,
          "internalType": "address",
          "name": "newOwner",
          "type": "address"
        }
      ],
      "name": "OwnershipTransferred",
      "type": "event"
    },
    {
      "inputs": [],
      "name": "effectsContract",
      "outputs": [
        {
          "internalType": "address",
          "name": "",
          "type": "address"
        }
      ],
      "stateMutability": "view",
      "type": "function"
    },
    {
      "inputs": [
        {
          "internalType": "uint256",
          "name": "",
          "type": "uint256"
        }
      ],
      "name": "eventHistory",
      "outputs": [
        {
          "internalType": "enum GameEvents.EventType",
          "name": "eventType",
          "type": "uint8"
        },
        {
          "internalType": "uint16",
          "name": "severity",
          "type": "uint16"
        },
        {
          "internalType": "uint256",
          "name": "timestamp",
          "type": "uint256"
        },
        {
          "internalType": "uint256",
          "name": "blockNumber",
          "type": "uint256"
        }
      ],
      "stateMutability": "view",
      "type": "function"
    },
    {
      "inputs": [
        {
          "internalType": "uint256",
          "name": "eventId",
          "type": "uint256"
        }
      ],
      "name": "getEvent",
      "outputs": [
        {
          "components": [
            {
              "internalType": "enum GameEvents.EventType",
              "name": "eventType",
              "type": "uint8"
            },
            {
              "internalType": "uint16",
              "name": "severity",
              "type": "uint16"
            },
            {
              "internalType": "uint256",
              "name": "timestamp",
              "type": "uint256"
            },
            {
              "internalType": "uint256",
              "name": "blockNumber",
              "type": "uint256"
            }
          ],
          "internalType": "struct GameEvents.GameEvent",
          "name": "",
          "type": "tuple"
        }
      ],
      "stateMutability": "view",
      "type": "function"
    },
    {
      "inputs": [],
      "name": "getEventsCount",
      "outputs": [
        {
          "internalType": "uint256",
          "name": "",
          "type": "uint256"
        }
      ],
      "stateMutability": "view",
      "type": "function"
    },
    {
      "inputs": [
        {
          "internalType": "uint256",
          "name": "count",
          "type": "uint256"
        }
      ],
      "name": "getRecentEvents",
      "outputs": [
        {
          "components": [
            {
              "internalType": "enum GameEvents.EventType",
              "name": "eventType",
              "type": "uint8"
            },
            {
              "internalType": "uint16",
              "name": "severity",
              "type": "uint16"
            },
            {
              "internalType": "uint256",
              "name": "timestamp",
              "type": "uint256"
            },
            {
              "internalType": "uint256",
              "name": "blockNumber",
              "type": "uint256"
            }
          ],
          "internalType": "struct GameEvents.GameEvent[]",
          "name": "",
          "type": "tuple[]"
        }
      ],
      "stateMutability": "view",
      "type": "function"
    },
    {
      "inputs": [],
      "name": "owner",
      "outputs": [
        {
          "internalType": "address",
          "name": "",
          "type": "address"
        }
      ],
      "stateMutability": "view",
      "type": "function"
    },
    {
      "inputs": [],
      "name": "renounceOwnership",
      "outputs": [],
      "stateMutability": "nonpayable",
      "type": "function"
    },
    {
      "inputs": [
        {
          "internalType": "address",
          "name": "_effectsContract",
          "type": "address"
        }
      ],
      "name": "setEffectsContract",
      "outputs": [],
      "stateMutability": "nonpayable",
      "type": "function"
    },
    {
      "inputs": [
        {
          "internalType": "address",
          "name": "newOwner",
          "type": "address"
        }
      ],
      "name": "transferOwnership",
      "outputs": [],
      "stateMutability": "nonpayable",
      "type": "function"
    },
    {
      "inputs": [],
      "name": "triggerEvent",
      "outputs": [
        {
          "internalType": "uint256",
          "name": "eventId",
          "type": "uint256"
        }
      ],
      "stateMutability": "nonpayable",
      "type": "function"
    }
  ],
  "transactionHash": "0x9df75c0870a58dddb4db1dcc9d03238e87d640e81972615f4e98983c2255101d",
  "args": [
    "0xf39Fd6e51aad88F6F4ce6aB8827279cffFb92266"
  ],
  "numDeployments": 1,
  "solcInputHash": "5a7c913e832cbcb2622e48effc3e7d82",
  "bytecode": "0x608060405234801561001057600080fd5b50604051610a56380380610a5683398101604081905261002f916100be565b806001600160a01b03811661005e57604051631e4fbdf760e01b81526000600482015260240160405180910390fd5b6100678161006e565b50506100ee565b600080546001600160a01b038381166001600160a01b0319831681178455604051919092169283917f8be0079c531659141344cd1fd0a4f28419497f9722a3daafe3b4186f6b6457e09190a35050565b6000602082840312156100d057600080fd5b81516001600160a01b03811681146100e757600080fd5b9392505050565b610959806100fd6000396000f3fe608060405234801561001057600080fd5b506004361061009e5760003560e01c80638da5cb5b116100665780638da5cb5b1461012757806398ec739c1461014c578063deca76061461015f578063ede48fb714610172578063f2fde38b1461017a57600080fd5b806330366d5f146100a35780634803b90d146100ba5780636d1884e0146100dd57806370e9e623146100fd578063715018a61461011d575b600080fd5b6001545b6040519081526020015b60405180910390f35b6100cd6100c8366004610735565b61018d565b6040516100b19493929190610786565b6100f06100eb366004610735565b6101cf565b6040516100b191906107e4565b61011061010b366004610735565b6102c5565b6040516100b191906107f8565b610125610414565b005b6000546001600160a01b03165b6040516001600160a01b0390911681526020016100b1565b61012561015a366004610846565b610428565b600254610134906001600160a01b031681565b6100a7610452565b610125610188366004610846565b6105f9565b6001818154811061019d57600080fd5b600091825260209091206003909102018054600182015460029092015460ff8216935061010090910461ffff16919084565b60408051608081018252600080825260208201819052918101829052606081019190915260015482106102405760405162461bcd60e51b8152602060048201526014602482015273115d995b9d08191bd95cc81b9bdd08195e1a5cdd60621b60448201526064015b60405180910390fd5b6001828154811061025357610253610876565b6000918252602090912060408051608081019091526003909202018054829060ff1660078111156102865761028661074e565b60078111156102975761029761074e565b81528154610100900461ffff1660208201526001820154604082015260029091015460609091015292915050565b600154606090808311156102d7578092505b60008367ffffffffffffffff8111156102f2576102f261088c565b60405190808252806020026020018201604052801561034457816020015b6040805160808101825260008082526020808301829052928201819052606082015282526000199092019101816103105790505b50905060005b8481101561040c5760018161035f87866108b8565b61036991906108cb565b8154811061037957610379610876565b6000918252602090912060408051608081019091526003909202018054829060ff1660078111156103ac576103ac61074e565b60078111156103bd576103bd61074e565b81528154610100900461ffff1660208201526001820154604082015260029091015460609091015282518390839081106103f9576103f9610876565b602090810291909101015260010161034a565b509392505050565b61041c610637565b6104266000610664565b565b610430610637565b600280546001600160a01b0319166001600160a01b0392909216919091179055565b600154604051600091829161049791429144913391602001938452602084019290925260601b6bffffffffffffffffffffffff19166040830152605482015260740190565b60408051601f198184030181529190528051602090910120905060006104c66104c16064846108de565b6106b4565b905060006104da6103e9600885901c6108de565b9050600060405180608001604052808460078111156104fb576104fb61074e565b815261ffff84166020820152426040820152436060909101526001805480820182556000829052825160039091027fb10e2d527612073b26eecdfd717e6a320cf44b4afac2b0732d9fcbe2b7fa0cf601805493945084939092839160ff19169083600781111561056d5761056d61074e565b02179055506020820151815461ffff9091166101000262ffff0019909116178155604082015160018083019190915560609092015160029091015580546105b491906108b8565b9450847f66866f9f4804f83ab9720333b769bc5f8575f4113585c9526c1570592c291e148484426040516105ea93929190610900565b60405180910390a25050505090565b610601610637565b6001600160a01b03811661062b57604051631e4fbdf760e01b815260006004820152602401610237565b61063481610664565b50565b6000546001600160a01b031633146104265760405163118cdaa760e01b8152336004820152602401610237565b600080546001600160a01b038381166001600160a01b0319831681178455604051919092169283917f8be0079c531659141344cd1fd0a4f28419497f9722a3daafe3b4186f6b6457e09190a35050565b6000601e8210156106c757506000919050565b60328210156106d857506003919050565b60418210156106e957506001919050565b604b8210156106fa57506002919050565b605582101561070b57506004919050565b605a82101561071c57506006919050565b605f82101561072d57506005919050565b506007919050565b60006020828403121561074757600080fd5b5035919050565b634e487b7160e01b600052602160045260246000fd5b6008811061078257634e487b7160e01b600052602160045260246000fd5b9052565b608081016107948287610764565b61ffff8516602083015283604083015282606083015295945050505050565b6107be828251610764565b61ffff602082015116602083015260408101516040830152606081015160608301525050565b608081016107f282846107b3565b92915050565b6020808252825182820181905260009190848201906040850190845b8181101561083a576108278385516107b3565b9284019260809290920191600101610814565b50909695505050505050565b60006020828403121561085857600080fd5b81356001600160a01b038116811461086f57600080fd5b9392505050565b634e487b7160e01b600052603260045260246000fd5b634e487b7160e01b600052604160045260246000fd5b634e487b7160e01b600052601160045260246000fd5b818103818111156107f2576107f26108a2565b808201808211156107f2576107f26108a2565b6000826108fb57634e487b7160e01b600052601260045260246000fd5b500690565b6060810161090e8286610764565b61ffff9390931660208201526040015291905056fea26469706673582212202625acdf9f3ea05a16e672613518a7c195dfce615787c0250b5ffcd6a29fab2164736f6c63430008180033",
  "devdoc": {
    "details": "First contract in the chain reaction",
    "errors": {
      "OwnableInvalidOwner(address)": [
        {
          "details": "The owner is not a valid owner account. (eg. `address(0)`)"
        }
      ],
      "OwnableUnauthorizedAccount(address)": [
        {
          "details": "The caller account is not authorized to perform an operation."
        }
      ]
    },
    "kind": "dev",
    "methods": {
      "owner()": {
        "details": "Returns the address of the current owner."
      },
      "renounceOwnership()": {
        "details": "Leaves the contract without owner. It will not be possible to call `onlyOwner` functions. Can only be called by the current owner. NOTE: Renouncing ownership will leave the contract without an owner, thereby disabling any functionality that is only available to the owner."
      },
      "transferOwnership(address)": {
        "details": "Transfers ownership of the contract to a new account (`newOwner`). Can only be called by the current owner."
      }
    },
    "title": "GameEvents",
    "version": 1
  },
  "userdoc": {
    "kind": "user",
    "methods": {
      "getEvent(uint256)": {
        "notice": "Get event by ID"
      },
      "getEventsCount()": {
        "notice": "Get total events count"
      },
      "getRecentEvents(uint256)": {
        "notice": "Get recent events"
      },
      "setEffectsContract(address)": {
        "notice": "Set the effects contract address"
      },
      "triggerEvent()": {
        "notice": "Generate a random event (called by keeper or player action)"
      }
    },
    "notice": "Generates random farm events (locusts, wind, rain, etc.)",
    "version": 1
  },
  "storageLayout": {
    "storage": [
      {
        "astId": 8,
        "contract": "contracts/GameEvents.sol:GameEvents",
        "label": "_owner",
        "offset": 0,
        "slot": "0",
        "type": "t_address"
      },
      {
        "astId": 5222,
        "contract": "contracts/GameEvents.sol:GameEvents",
        "label": "eventHistory",
        "offset": 0,
        "slot": "1",
        "type": "t_array(t_struct(GameEvent)5218_storage)dyn_storage"
      },
      {
        "astId": 5224,
        "contract": "contracts/GameEvents.sol:GameEvents",
        "label": "effectsContract",
        "offset": 0,
        "slot": "2",
        "type": "t_address"
      }
    ],
    "types": {
      "t_address": {
        "encoding": "inplace",
        "label": "address",
        "numberOfBytes": "20"
      },
      "t_array(t_struct(GameEvent)5218_storage)dyn_storage": {
        "base": "t_struct(GameEvent)5218_storage",
        "encoding": "dynamic_array",
        "label": "struct GameEvents.GameEvent[]",
        "numberOfBytes": "32"
      },
      "t_enum(EventType)5208": {
        "encoding": "inplace",
        "label": "enum GameEvents.EventType",
        "numberOfBytes": "1"
      },
      "t_struct(GameEvent)5218_storage": {
        "encoding": "inplace",
        "label": "struct GameEvents.GameEvent",
        "members": [
          {
            "astId": 5211,
            "contract": "contracts/GameEvents.sol:GameEvents",
            "label": "eventType",
            "offset": 0,
            "slot": "0",
            "type": "t_enum(EventType)5208"
          },
          {
            "astId": 5213,
            "contract": "contracts/GameEvents.sol:GameEvents",
            "label": "severity",
            "offset": 1,
            "slot": "0",
            "type": "t_uint16"
          },
          {
            "astId": 5215,
            "contract": "contracts/GameEvents.sol:GameEvents",
            "label": "timestamp",
            "offset": 0,
            "slot": "1",
            "type": "t_uint256"
          },
          {
            "astId": 5217,
            "contract": "contracts/GameEvents.sol:GameEvents",
            "label": "blockNumber",
            "offset": 0,
            "slot": "2",
            "type": "t_uint256"
          }
        ],
        "numberOfBytes": "96"
      },
      "t_uint16": {
        "encoding": "inplace",
        "label": "uint16",
        "numberOfBytes": "2"
      },
      "t_uint256": {
        "encoding": "inplace",
        "label": "uint256",
        "numberOfBytes": "32"
      }
    }
  }
}