{
  "address": "0x9d689A794eF2877827938C9D740b17Fd5E6f2a25",
  "abi": [
    {
      "inputs": [],
      "name": "getGreet",
      "outputs": [
        {
          "internalType": "string",
          "name": "",
          "type": "string"
        }
      ],
      "stateMutability": "view",
      "type": "function"
    },
    {
      "inputs": [],
      "name": "greet",
      "outputs": [
        {
          "internalType": "string",
          "name": "",
          "type": "string"
        }
      ],
      "stateMutability": "view",
      "type": "function"
    },
    {
      "inputs": [
        {
          "internalType": "string",
          "name": "_greet",
          "type": "string"
        }
      ],
      "name": "setGreet",
      "outputs": [],
      "stateMutability": "nonpayable",
      "type": "function"
    }
  ],
  "transactionHash": "0xe24ad25ed8f389c3fc97ebaaf8290d652a6ead75b16b53b94ead004a4307079e",
  "args": [],
  "numDeployments": 1,
  "solcInputHash": "b7fe51b5e42be38bb382ae56a7820c1b",
  "bytecode": "0x60c0604052601660809081527f48656c6c6f2c20537461747573204e6574776f726b210000000000000000000060a05260009061003c90826100f0565b5034801561004957600080fd5b506101af565b634e487b7160e01b600052604160045260246000fd5b600181811c9082168061007957607f821691505b60208210810361009957634e487b7160e01b600052602260045260246000fd5b50919050565b601f8211156100eb576000816000526020600020601f850160051c810160208610156100c85750805b601f850160051c820191505b818110156100e7578281556001016100d4565b5050505b505050565b81516001600160401b038111156101095761010961004f565b61011d816101178454610065565b8461009f565b602080601f831160018114610152576000841561013a5750858301515b600019600386901b1c1916600185901b1785556100e7565b600085815260208120601f198616915b8281101561018157888601518255948401946001909101908401610162565b508582101561019f5787850151600019600388901b60f8161c191681555b5050505050600190811b01905550565b610448806101be6000396000f3fe608060405234801561001057600080fd5b50600436106100415760003560e01c80639698086b14610046578063cfae32171461005b578063d705a4b514610079575b600080fd5b6100596100543660046101c7565b610081565b005b610063610091565b6040516100709190610278565b60405180910390f35b61006361011f565b600061008d8282610352565b5050565b6000805461009e906102c7565b80601f01602080910402602001604051908101604052809291908181526020018280546100ca906102c7565b80156101175780601f106100ec57610100808354040283529160200191610117565b820191906000526020600020905b8154815290600101906020018083116100fa57829003601f168201915b505050505081565b60606000805461012e906102c7565b80601f016020809104026020016040519081016040528092919081815260200182805461015a906102c7565b80156101a75780601f1061017c576101008083540402835291602001916101a7565b820191906000526020600020905b81548152906001019060200180831161018a57829003601f168201915b5050505050905090565b634e487b7160e01b600052604160045260246000fd5b6000602082840312156101d957600080fd5b813567ffffffffffffffff808211156101f157600080fd5b818401915084601f83011261020557600080fd5b813581811115610217576102176101b1565b604051601f8201601f19908116603f0116810190838211818310171561023f5761023f6101b1565b8160405282815287602084870101111561025857600080fd5b826020860160208301376000928101602001929092525095945050505050565b60006020808352835180602085015260005b818110156102a65785810183015185820160400152820161028a565b506000604082860101526040601f19601f8301168501019250505092915050565b600181811c908216806102db57607f821691505b6020821081036102fb57634e487b7160e01b600052602260045260246000fd5b50919050565b601f82111561034d576000816000526020600020601f850160051c8101602086101561032a5750805b601f850160051c820191505b8181101561034957828155600101610336565b5050505b505050565b815167ffffffffffffffff81111561036c5761036c6101b1565b6103808161037a84546102c7565b84610301565b602080601f8311600181146103b5576000841561039d5750858301515b600019600386901b1c1916600185901b178555610349565b600085815260208120601f198616915b828110156103e4578886015182559484019460019091019084016103c5565b50858210156104025787850151600019600388901b60f8161c191681555b5050505050600190811b0190555056fea2646970667358221220a8b05d56e77daeeff087694d19a33bc4e94ee331a9aa1e37c1e09e5b988c41a364736f6c63430008180033",
  "devdoc": {
    "kind": "dev",
    "methods": {},
    "version": 1
  },
  "userdoc": {
    "kind": "user",
    "methods": {},
    "version": 1
  },
  "storageLayout": {
    "storage": [
      {
        "astId": 4,
        "contract": "contracts/HelloStatusNetwork.sol:HelloStatusNetwork",
        "label": "greet",
        "offset": 0,
        "slot": "0",
        "type": "t_string_storage"
      }
    ],
    "types": {
      "t_string_storage": {
        "encoding": "bytes",
        "label": "string",
        "numberOfBytes": "32"
      }
    }
  }
}