{
  "address": "0x36C02dA8a0983159322a80FFE9F24b1acfF8B570",
  "abi": [
    {
      "inputs": [
        {
          "internalType": "address",
          "name": "initialOwner",
          "type": "address"
        }
      ],
      "stateMutability": "nonpayable",
      "type": "constructor"
    },
    {
      "inputs": [
        {
          "internalType": "address",
          "name": "sender",
          "type": "address"
        },
        {
          "internalType": "uint256",
          "name": "tokenId",
          "type": "uint256"
        },
        {
          "internalType": "address",
          "name": "owner",
          "type": "address"
        }
      ],
      "name": "ERC721IncorrectOwner",
      "type": "error"
    },
    {
      "inputs": [
        {
          "internalType": "address",
          "name": "operator",
          "type": "address"
        },
        {
          "internalType": "uint256",
          "name": "tokenId",
          "type": "uint256"
        }
      ],
      "name": "ERC721InsufficientApproval",
      "type": "error"
    },
    {
      "inputs": [
        {
          "internalType": "address",
          "name": "approver",
          "type": "address"
        }
      ],
      "name": "ERC721InvalidApprover",
      "type": "error"
    },
    {
      "inputs": [
        {
          "internalType": "address",
          "name": "operator",
          "type": "address"
        }
      ],
      "name": "ERC721InvalidOperator",
      "type": "error"
    },
    {
      "inputs": [
        {
          "internalType": "address",
          "name": "owner",
          "type": "address"
        }
      ],
      "name": "ERC721InvalidOwner",
      "type": "error"
    },
    {
      "inputs": [
        {
          "internalType": "address",
          "name": "receiver",
          "type": "address"
        }
      ],
      "name": "ERC721InvalidReceiver",
      "type": "error"
    },
    {
      "inputs": [
        {
          "internalType": "address",
          "name": "sender",
          "type": "address"
        }
      ],
      "name": "ERC721InvalidSender",
      "type": "error"
    },
    {
      "inputs": [
        {
          "internalType": "uint256",
          "name": "tokenId",
          "type": "uint256"
        }
      ],
      "name": "ERC721NonexistentToken",
      "type": "error"
    },
    {
      "inputs": [
        {
          "internalType": "address",
          "name": "owner",
          "type": "address"
        }
      ],
      "name": "OwnableInvalidOwner",
      "type": "error"
    },
    {
      "inputs": [
        {
          "internalType": "address",
          "name": "account",
          "type": "address"
        }
      ],
      "name": "OwnableUnauthorizedAccount",
      "type": "error"
    },
    {
      "anonymous": false,
      "inputs": [
        {
          "indexed": true,
          "internalType": "address",
          "name": "owner",
          "type": "address"
        },
        {
          "indexed": true,
          "internalType": "address",
          "name": "approved",
          "type": "address"
        },
        {
          "indexed": true,
          "internalType": "uint256",
          "name": "tokenId",
          "type": "uint256"
        }
      ],
      "name": "Approval",
      "type": "event"
    },
    {
      "anonymous": false,
      "inputs": [
        {
          "indexed": true,
          "internalType": "address",
          "name": "owner",
          "type": "address"
        },
        {
          "indexed": true,
          "internalType": "address",
          "name": "operator",
          "type": "address"
        },
        {
          "indexed": false,
          "internalType": "bool",
          "name": "approved",
          "type": "bool"
        }
      ],
      "name": "ApprovalForAll",
      "type": "event"
    },
    {
      "anonymous": false,
      "inputs": [
        {
          "indexed": true,
          "internalType": "address",
          "name": "manager",
          "type": "address"
        },
        {
          "indexed": false,
          "internalType": "bool",
          "name": "authorized",
          "type": "bool"
        }
      ],
      "name": "ManagerAuthorized",
      "type": "event"
    },
    {
      "anonymous": false,
      "inputs": [
        {
          "indexed": true,
          "internalType": "address",
          "name": "previousOwner",
          "type": "address"
        },
        {
          "indexed": true,
          "internalType": "address",
          "name": "newOwner",
          "type": "address"
        }
      ],
      "name": "OwnershipTransferred",
      "type": "event"
    },
    {
      "anonymous": false,
      "inputs": [
        {
          "indexed": true,
          "internalType": "uint256",
          "name": "tokenId",
          "type": "uint256"
        },
        {
          "indexed": true,
          "internalType": "address",
          "name": "owner",
          "type": "address"
        },
        {
          "indexed": false,
          "internalType": "enum PlantNFT.PlantType",
          "name": "plantType",
          "type": "uint8"
        },
        {
          "indexed": false,
          "internalType": "uint256",
          "name": "landTokenId",
          "type": "uint256"
        }
      ],
      "name": "PlantCreated",
      "type": "event"
    },
    {
      "anonymous": false,
      "inputs": [
        {
          "indexed": true,
          "internalType": "uint256",
          "name": "tokenId",
          "type": "uint256"
        },
        {
          "indexed": false,
          "internalType": "uint8",
          "name": "newStage",
          "type": "uint8"
        }
      ],
      "name": "PlantGrown",
      "type": "event"
    },
    {
      "anonymous": false,
      "inputs": [
        {
          "indexed": true,
          "internalType": "uint256",
          "name": "tokenId",
          "type": "uint256"
        },
        {
          "indexed": false,
          "internalType": "uint16",
          "name": "newHealth",
          "type": "uint16"
        }
      ],
      "name": "PlantHealthChanged",
      "type": "event"
    },
    {
      "anonymous": false,
      "inputs": [
        {
          "indexed": true,
          "internalType": "address",
          "name": "from",
          "type": "address"
        },
        {
          "indexed": true,
          "internalType": "address",
          "name": "to",
          "type": "address"
        },
        {
          "indexed": true,
          "internalType": "uint256",
          "name": "tokenId",
          "type": "uint256"
        }
      ],
      "name": "Transfer",
      "type": "event"
    },
    {
      "inputs": [
        {
          "internalType": "address",
          "name": "to",
          "type": "address"
        },
        {
          "internalType": "uint256",
          "name": "tokenId",
          "type": "uint256"
        }
      ],
      "name": "approve",
      "outputs": [],
      "stateMutability": "nonpayable",
      "type": "function"
    },
    {
      "inputs": [
        {
          "internalType": "address",
          "name": "",
          "type": "address"
        }
      ],
      "name": "authorizedManagers",
      "outputs": [
        {
          "internalType": "bool",
          "name": "",
          "type": "bool"
        }
      ],
      "stateMutability": "view",
      "type": "function"
    },
    {
      "inputs": [
        {
          "internalType": "address",
          "name": "owner",
          "type": "address"
        }
      ],
      "name": "balanceOf",
      "outputs": [
        {
          "internalType": "uint256",
          "name": "",
          "type": "uint256"
        }
      ],
      "stateMutability": "view",
      "type": "function"
    },
    {
      "inputs": [
        {
          "internalType": "uint256",
          "name": "tokenId",
          "type": "uint256"
        }
      ],
      "name": "burn",
      "outputs": [],
      "stateMutability": "nonpayable",
      "type": "function"
    },
    {
      "inputs": [
        {
          "internalType": "uint256",
          "name": "tokenId",
          "type": "uint256"
        }
      ],
      "name": "getApproved",
      "outputs": [
        {
          "internalType": "address",
          "name": "",
          "type": "address"
        }
      ],
      "stateMutability": "view",
      "type": "function"
    },
    {
      "inputs": [
        {
          "internalType": "uint256",
          "name": "tokenId",
          "type": "uint256"
        }
      ],
      "name": "getPlant",
      "outputs": [
        {
          "components": [
            {
              "internalType": "enum PlantNFT.PlantType",
              "name": "plantType",
              "type": "uint8"
            },
            {
              "internalType": "uint8",
              "name": "growthStage",
              "type": "uint8"
            },
            {
              "internalType": "uint16",
              "name": "health",
              "type": "uint16"
            },
            {
              "internalType": "uint256",
              "name": "plantedAt",
              "type": "uint256"
            },
            {
              "internalType": "uint256",
              "name": "landTokenId",
              "type": "uint256"
            }
          ],
          "internalType": "struct PlantNFT.Plant",
          "name": "",
          "type": "tuple"
        }
      ],
      "stateMutability": "view",
      "type": "function"
    },
    {
      "inputs": [
        {
          "internalType": "address",
          "name": "owner",
          "type": "address"
        },
        {
          "internalType": "address",
          "name": "operator",
          "type": "address"
        }
      ],
      "name": "isApprovedForAll",
      "outputs": [
        {
          "internalType": "bool",
          "name": "",
          "type": "bool"
        }
      ],
      "stateMutability": "view",
      "type": "function"
    },
    {
      "inputs": [
        {
          "internalType": "uint256",
          "name": "tokenId",
          "type": "uint256"
        }
      ],
      "name": "isReadyToHarvest",
      "outputs": [
        {
          "internalType": "bool",
          "name": "",
          "type": "bool"
        }
      ],
      "stateMutability": "view",
      "type": "function"
    },
    {
      "inputs": [
        {
          "internalType": "address",
          "name": "to",
          "type": "address"
        },
        {
          "internalType": "enum PlantNFT.PlantType",
          "name": "plantType",
          "type": "uint8"
        },
        {
          "internalType": "uint256",
          "name": "landTokenId",
          "type": "uint256"
        }
      ],
      "name": "mint",
      "outputs": [
        {
          "internalType": "uint256",
          "name": "",
          "type": "uint256"
        }
      ],
      "stateMutability": "nonpayable",
      "type": "function"
    },
    {
      "inputs": [],
      "name": "name",
      "outputs": [
        {
          "internalType": "string",
          "name": "",
          "type": "string"
        }
      ],
      "stateMutability": "view",
      "type": "function"
    },
    {
      "inputs": [],
      "name": "owner",
      "outputs": [
        {
          "internalType": "address",
          "name": "",
          "type": "address"
        }
      ],
      "stateMutability": "view",
      "type": "function"
    },
    {
      "inputs": [
        {
          "internalType": "uint256",
          "name": "tokenId",
          "type": "uint256"
        }
      ],
      "name": "ownerOf",
      "outputs": [
        {
          "internalType": "address",
          "name": "",
          "type": "address"
        }
      ],
      "stateMutability": "view",
      "type": "function"
    },
    {
      "inputs": [
        {
          "internalType": "uint256",
          "name": "",
          "type": "uint256"
        }
      ],
      "name": "plants",
      "outputs": [
        {
          "internalType": "enum PlantNFT.PlantType",
          "name": "plantType",
          "type": "uint8"
        },
        {
          "internalType": "uint8",
          "name": "growthStage",
          "type": "uint8"
        },
        {
          "internalType": "uint16",
          "name": "health",
          "type": "uint16"
        },
        {
          "internalType": "uint256",
          "name": "plantedAt",
          "type": "uint256"
        },
        {
          "internalType": "uint256",
          "name": "landTokenId",
          "type": "uint256"
        }
      ],
      "stateMutability": "view",
      "type": "function"
    },
    {
      "inputs": [],
      "name": "renounceOwnership",
      "outputs": [],
      "stateMutability": "nonpayable",
      "type": "function"
    },
    {
      "inputs": [
        {
          "internalType": "address",
          "name": "from",
          "type": "address"
        },
        {
          "internalType": "address",
          "name": "to",
          "type": "address"
        },
        {
          "internalType": "uint256",
          "name": "tokenId",
          "type": "uint256"
        }
      ],
      "name": "safeTransferFrom",
      "outputs": [],
      "stateMutability": "nonpayable",
      "type": "function"
    },
    {
      "inputs": [
        {
          "internalType": "address",
          "name": "from",
          "type": "address"
        },
        {
          "internalType": "address",
          "name": "to",
          "type": "address"
        },
        {
          "internalType": "uint256",
          "name": "tokenId",
          "type": "uint256"
        },
        {
          "internalType": "bytes",
          "name": "data",
          "type": "bytes"
        }
      ],
      "name": "safeTransferFrom",
      "outputs": [],
      "stateMutability": "nonpayable",
      "type": "function"
    },
    {
      "inputs": [
        {
          "internalType": "address",
          "name": "operator",
          "type": "address"
        },
        {
          "internalType": "bool",
          "name": "approved",
          "type": "bool"
        }
      ],
      "name": "setApprovalForAll",
      "outputs": [],
      "stateMutability": "nonpayable",
      "type": "function"
    },
    {
      "inputs": [
        {
          "internalType": "address",
          "name": "manager",
          "type": "address"
        },
        {
          "internalType": "bool",
          "name": "authorized",
          "type": "bool"
        }
      ],
      "name": "setAuthorizedManager",
      "outputs": [],
      "stateMutability": "nonpayable",
      "type": "function"
    },
    {
      "inputs": [
        {
          "internalType": "bytes4",
          "name": "interfaceId",
          "type": "bytes4"
        }
      ],
      "name": "supportsInterface",
      "outputs": [
        {
          "internalType": "bool",
          "name": "",
          "type": "bool"
        }
      ],
      "stateMutability": "view",
      "type": "function"
    },
    {
      "inputs": [],
      "name": "symbol",
      "outputs": [
        {
          "internalType": "string",
          "name": "",
          "type": "string"
        }
      ],
      "stateMutability": "view",
      "type": "function"
    },
    {
      "inputs": [
        {
          "internalType": "uint256",
          "name": "tokenId",
          "type": "uint256"
        }
      ],
      "name": "tokenURI",
      "outputs": [
        {
          "internalType": "string",
          "name": "",
          "type": "string"
        }
      ],
      "stateMutability": "view",
      "type": "function"
    },
    {
      "inputs": [
        {
          "internalType": "address",
          "name": "from",
          "type": "address"
        },
        {
          "internalType": "address",
          "name": "to",
          "type": "address"
        },
        {
          "internalType": "uint256",
          "name": "tokenId",
          "type": "uint256"
        }
      ],
      "name": "transferFrom",
      "outputs": [],
      "stateMutability": "nonpayable",
      "type": "function"
    },
    {
      "inputs": [
        {
          "internalType": "address",
          "name": "newOwner",
          "type": "address"
        }
      ],
      "name": "transferOwnership",
      "outputs": [],
      "stateMutability": "nonpayable",
      "type": "function"
    },
    {
      "inputs": [
        {
          "internalType": "uint256",
          "name": "tokenId",
          "type": "uint256"
        },
        {
          "internalType": "uint8",
          "name": "newStage",
          "type": "uint8"
        }
      ],
      "name": "updateGrowthStage",
      "outputs": [],
      "stateMutability": "nonpayable",
      "type": "function"
    },
    {
      "inputs": [
        {
          "internalType": "uint256",
          "name": "tokenId",
          "type": "uint256"
        },
        {
          "internalType": "uint16",
          "name": "newHealth",
          "type": "uint16"
        }
      ],
      "name": "updateHealth",
      "outputs": [],
      "stateMutability": "nonpayable",
      "type": "function"
    }
  ],
  "transactionHash": "0x349f666f06775d1ab90b6b7e04f4457153a12b8f9965218a972c199de0753992",
  "args": [
    "0xf39Fd6e51aad88F6F4ce6aB8827279cffFb92266"
  ],
  "numDeployments": 1,
  "solcInputHash": "5a7c913e832cbcb2622e48effc3e7d82",
  "bytecode": "0x60806040523480156200001157600080fd5b5060405162001ce038038062001ce083398101604081905262000034916200012d565b806040518060400160405280600a81526020016911985c9b48141b185b9d60b21b81525060405180604001604052806005815260200164141310539560da1b815250816000908162000087919062000206565b50600162000096828262000206565b5050506001600160a01b038116620000c857604051631e4fbdf760e01b81526000600482015260240160405180910390fd5b620000d381620000db565b5050620002d2565b600680546001600160a01b038381166001600160a01b0319831681179093556040519116919082907f8be0079c531659141344cd1fd0a4f28419497f9722a3daafe3b4186f6b6457e090600090a35050565b6000602082840312156200014057600080fd5b81516001600160a01b03811681146200015857600080fd5b9392505050565b634e487b7160e01b600052604160045260246000fd5b600181811c908216806200018a57607f821691505b602082108103620001ab57634e487b7160e01b600052602260045260246000fd5b50919050565b601f82111562000201576000816000526020600020601f850160051c81016020861015620001dc5750805b601f850160051c820191505b81811015620001fd57828155600101620001e8565b5050505b505050565b81516001600160401b038111156200022257620002226200015f565b6200023a8162000233845462000175565b84620001b1565b602080601f831160018114620002725760008415620002595750858301515b600019600386901b1c1916600185901b178555620001fd565b600085815260208120601f198616915b82811015620002a35788860151825594840194600190910190840162000282565b5085821015620002c25787850151600019600388901b60f8161c191681555b5050505050600190811b01905550565b6119fe80620002e26000396000f3fe608060405234801561001057600080fd5b50600436106101735760003560e01c806370a08231116100de578063a22cb46511610097578063d902c92711610071578063d902c92714610382578063e985e9c514610395578063ed0b1f5f146103a8578063f2fde38b146103c857600080fd5b8063a22cb46514610349578063b88d4fde1461035c578063c87b56dd1461036f57600080fd5b806370a08231146102ab578063715018a6146102be5780638da5cb5b146102c65780638dd2361c146102d757806395d89b411461032e578063a0f49b5c1461033657600080fd5b80632b71fb3a116101305780632b71fb3a1461022b57806342842e0e1461023e57806342966c68146102515780634ed387b2146102645780636352211e1461028557806369acbffd1461029857600080fd5b806301ffc9a71461017857806306fdde03146101a0578063081812fc146101b5578063095ea7b3146101e05780630a3cb21b146101f557806323b872dd14610218575b600080fd5b61018b610186366004611498565b6103db565b60405190151581526020015b60405180910390f35b6101a861042d565b6040516101979190611505565b6101c86101c3366004611518565b6104bf565b6040516001600160a01b039091168152602001610197565b6101f36101ee36600461154d565b6104e8565b005b61018b610203366004611577565b60096020526000908152604090205460ff1681565b6101f3610226366004611592565b6104f7565b6101f36102393660046115ce565b610587565b6101f361024c366004611592565b6105ef565b6101f361025f366004611518565b61060f565b61027761027236600461160a565b610682565b604051908152602001610197565b6101c8610293366004611518565b6107f4565b6101f36102a636600461164d565b6107ff565b6102776102b9366004611577565b6108e7565b6101f361092f565b6006546001600160a01b03166101c8565b61031d6102e5366004611518565b60086020526000908152604090208054600182015460029092015460ff8083169361010084049091169262010000900461ffff169185565b6040516101979594939291906116b0565b6101a8610943565b6101f36103443660046116e7565b610952565b6101f36103573660046115ce565b610a3e565b6101f361036a366004611729565b610a49565b6101a861037d366004611518565b610a60565b61018b610390366004611518565b610ad5565b61018b6103a3366004611805565b610bde565b6103bb6103b6366004611518565b610c0c565b6040516101979190611838565b6101f36103d6366004611577565b610cb5565b60006001600160e01b031982166380ac58cd60e01b148061040c57506001600160e01b03198216635b5e139f60e01b145b8061042757506301ffc9a760e01b6001600160e01b03198316145b92915050565b60606000805461043c90611880565b80601f016020809104026020016040519081016040528092919081815260200182805461046890611880565b80156104b55780601f1061048a576101008083540402835291602001916104b5565b820191906000526020600020905b81548152906001019060200180831161049857829003601f168201915b5050505050905090565b60006104ca82610cf3565b506000828152600460205260409020546001600160a01b0316610427565b6104f3828233610d2c565b5050565b6001600160a01b03821661052657604051633250574960e11b8152600060048201526024015b60405180910390fd5b6000610533838333610d39565b9050836001600160a01b0316816001600160a01b031614610581576040516364283d7b60e01b81526001600160a01b038086166004830152602482018490528216604482015260640161051d565b50505050565b61058f610e32565b6001600160a01b038216600081815260096020908152604091829020805460ff191685151590811790915591519182527fde2879b38430cbc20b1709e6fa4a18f45793cfb37baa97f594b183021eca6d7d91015b60405180910390a25050565b61060a83838360405180602001604052806000815250610a49565b505050565b3360009081526009602052604090205460ff168061063757506006546001600160a01b031633145b6106535760405162461bcd60e51b815260040161051d906118ba565b61065c81610e5f565b6000908152600860205260408120805463ffffffff191681556001810182905560020155565b3360009081526009602052604081205460ff16806106aa57506006546001600160a01b031633145b6106c65760405162461bcd60e51b815260040161051d906118ba565b60078054600091826106d7836118f8565b9190505590506106e78582610e9a565b6040518060a0016040528085600281111561070457610704611678565b8152600060208083018290526103e86040808501919091524260608501526080909301879052848252600890522081518154829060ff1916600183600281111561075057610750611678565b02179055506020820151815460408085015161ffff16620100000263ffff00001960ff909416610100029390931663ffffff00199092169190911791909117825560608301516001830155608090920151600290910155516001600160a01b0386169082907f63c77d161703e2d20bcfd51f65d0845d43bf328b2e554cbf1b95698de18b02cd906107e49088908890611911565b60405180910390a3949350505050565b600061042782610cf3565b3360009081526009602052604090205460ff168061082757506006546001600160a01b031633145b6108435760405162461bcd60e51b815260040161051d906118ba565b60038160ff16111561088e5760405162461bcd60e51b8152602060048201526014602482015273496e76616c69642067726f77746820737461676560601b604482015260640161051d565b600082815260086020908152604091829020805461ff00191661010060ff861690810291909117909155915191825283917fff2689817113ef2393cf0db19158b9c9c598805a41589f440354dd1086411c8191016105e3565b60006001600160a01b038216610913576040516322718ad960e21b81526000600482015260240161051d565b506001600160a01b031660009081526003602052604090205490565b610937610e32565b6109416000610eb4565b565b60606001805461043c90611880565b3360009081526009602052604090205460ff168061097a57506006546001600160a01b031633145b6109965760405162461bcd60e51b815260040161051d906118ba565b6103e88161ffff1611156109e15760405162461bcd60e51b8152602060048201526012602482015271090cac2d8e8d040caf0c6cacac8e640dac2f60731b604482015260640161051d565b600082815260086020908152604091829020805463ffff000019166201000061ffff861690810291909117909155915191825283917f9656d37747b60a811f3fd87ba988a44952a8b9bc144583cd24c2bca80bac225d91016105e3565b6104f3338383610f06565b610a548484846104f7565b61058184848484610fa5565b6060610a6b82610cf3565b506000610a8360408051602081019091526000815290565b90506000815111610aa35760405180602001604052806000815250610ace565b80610aad846110ce565b604051602001610abe92919061192c565b6040516020818303038152906040525b9392505050565b600081815260086020526040808220815160a08101909252805483929190829060ff166002811115610b0957610b09611678565b6002811115610b1a57610b1a611678565b81528154610100810460ff16602083015262010000900461ffff16604082015260018201546060820152600290910154608090910152905060008082516002811115610b6857610b68611678565b03610b755750600f610b9b565b600182516002811115610b8a57610b8a611678565b03610b9757506019610b9b565b5060235b808260600151610bab919061195b565b4210158015610bc257506003826020015160ff1610155b8015610bd657506000826040015161ffff16115b949350505050565b6001600160a01b03918216600090815260056020908152604080832093909416825291909152205460ff1690565b6040805160a08101825260008082526020820181905291810182905260608101829052608081019190915260008281526008602052604090819020815160a081019092528054829060ff166002811115610c6857610c68611678565b6002811115610c7957610c79611678565b81528154610100810460ff16602083015262010000900461ffff1660408201526001820154606082015260029091015460809091015292915050565b610cbd610e32565b6001600160a01b038116610ce757604051631e4fbdf760e01b81526000600482015260240161051d565b610cf081610eb4565b50565b6000818152600260205260408120546001600160a01b03168061042757604051637e27328960e01b81526004810184905260240161051d565b61060a8383836001611161565b6000828152600260205260408120546001600160a01b0390811690831615610d6657610d66818486611267565b6001600160a01b03811615610da457610d83600085600080611161565b6001600160a01b038116600090815260036020526040902080546000190190555b6001600160a01b03851615610dd3576001600160a01b0385166000908152600360205260409020805460010190555b60008481526002602052604080822080546001600160a01b0319166001600160a01b0389811691821790925591518793918516917fddf252ad1be2c89b69c2b068fc378daa952ba7f163c4a11628f55a4df523b3ef91a4949350505050565b6006546001600160a01b031633146109415760405163118cdaa760e01b815233600482015260240161051d565b6000610e6e6000836000610d39565b90506001600160a01b0381166104f357604051637e27328960e01b81526004810183905260240161051d565b6104f38282604051806020016040528060008152506112cb565b600680546001600160a01b038381166001600160a01b0319831681179093556040519116919082907f8be0079c531659141344cd1fd0a4f28419497f9722a3daafe3b4186f6b6457e090600090a35050565b6001600160a01b038216610f3857604051630b61174360e31b81526001600160a01b038316600482015260240161051d565b6001600160a01b03838116600081815260056020908152604080832094871680845294825291829020805460ff191686151590811790915591519182527f17307eab39ab6107e8899845ad3d59bd9653f200f220920489ca2b5937696c31910160405180910390a3505050565b6001600160a01b0383163b1561058157604051630a85bd0160e11b81526001600160a01b0384169063150b7a0290610fe790339088908790879060040161196e565b6020604051808303816000875af1925050508015611022575060408051601f3d908101601f1916820190925261101f918101906119ab565b60015b61108b573d808015611050576040519150601f19603f3d011682016040523d82523d6000602084013e611055565b606091505b50805160000361108357604051633250574960e11b81526001600160a01b038516600482015260240161051d565b805181602001fd5b6001600160e01b03198116630a85bd0160e11b146110c757604051633250574960e11b81526001600160a01b038516600482015260240161051d565b5050505050565b606060006110db836112e2565b600101905060008167ffffffffffffffff8111156110fb576110fb611713565b6040519080825280601f01601f191660200182016040528015611125576020820181803683370190505b5090508181016020015b600019016f181899199a1a9b1b9c1cb0b131b232b360811b600a86061a8153600a850494508461112f57509392505050565b808061117557506001600160a01b03821615155b1561123757600061118584610cf3565b90506001600160a01b038316158015906111b15750826001600160a01b0316816001600160a01b031614155b80156111c457506111c28184610bde565b155b156111ed5760405163a9fbf51f60e01b81526001600160a01b038416600482015260240161051d565b81156112355783856001600160a01b0316826001600160a01b03167f8c5be1e5ebec7d5bd14f71427d1e84f3dd0314c0f7b2291e5b200ac8c7c3b92560405160405180910390a45b505b5050600090815260046020526040902080546001600160a01b0319166001600160a01b0392909216919091179055565b6112728383836113ba565b61060a576001600160a01b0383166112a057604051637e27328960e01b81526004810182905260240161051d565b60405163177e802f60e01b81526001600160a01b03831660048201526024810182905260440161051d565b6112d5838361141d565b61060a6000848484610fa5565b60008072184f03e93ff9f4daa797ed6e38ed64bf6a1f0160401b83106113215772184f03e93ff9f4daa797ed6e38ed64bf6a1f0160401b830492506040015b6d04ee2d6d415b85acef8100000000831061134d576d04ee2d6d415b85acef8100000000830492506020015b662386f26fc10000831061136b57662386f26fc10000830492506010015b6305f5e1008310611383576305f5e100830492506008015b612710831061139757612710830492506004015b606483106113a9576064830492506002015b600a83106104275760010192915050565b60006001600160a01b03831615801590610bd65750826001600160a01b0316846001600160a01b031614806113f457506113f48484610bde565b80610bd65750506000908152600460205260409020546001600160a01b03908116911614919050565b6001600160a01b03821661144757604051633250574960e11b81526000600482015260240161051d565b600061145583836000610d39565b90506001600160a01b0381161561060a576040516339e3563760e11b81526000600482015260240161051d565b6001600160e01b031981168114610cf057600080fd5b6000602082840312156114aa57600080fd5b8135610ace81611482565b60005b838110156114d05781810151838201526020016114b8565b50506000910152565b600081518084526114f18160208601602086016114b5565b601f01601f19169290920160200192915050565b602081526000610ace60208301846114d9565b60006020828403121561152a57600080fd5b5035919050565b80356001600160a01b038116811461154857600080fd5b919050565b6000806040838503121561156057600080fd5b61156983611531565b946020939093013593505050565b60006020828403121561158957600080fd5b610ace82611531565b6000806000606084860312156115a757600080fd5b6115b084611531565b92506115be60208501611531565b9150604084013590509250925092565b600080604083850312156115e157600080fd5b6115ea83611531565b9150602083013580151581146115ff57600080fd5b809150509250929050565b60008060006060848603121561161f57600080fd5b61162884611531565b925060208401356003811061163c57600080fd5b929592945050506040919091013590565b6000806040838503121561166057600080fd5b82359150602083013560ff811681146115ff57600080fd5b634e487b7160e01b600052602160045260246000fd5b600381106116ac57634e487b7160e01b600052602160045260246000fd5b9052565b60a081016116be828861168e565b60ff8616602083015261ffff851660408301528360608301528260808301529695505050505050565b600080604083850312156116fa57600080fd5b82359150602083013561ffff811681146115ff57600080fd5b634e487b7160e01b600052604160045260246000fd5b6000806000806080858703121561173f57600080fd5b61174885611531565b935061175660208601611531565b925060408501359150606085013567ffffffffffffffff8082111561177a57600080fd5b818701915087601f83011261178e57600080fd5b8135818111156117a0576117a0611713565b604051601f8201601f19908116603f011681019083821181831017156117c8576117c8611713565b816040528281528a60208487010111156117e157600080fd5b82602086016020830137600060208483010152809550505050505092959194509250565b6000806040838503121561181857600080fd5b61182183611531565b915061182f60208401611531565b90509250929050565b600060a08201905061184b82845161168e565b60ff602084015116602083015261ffff6040840151166040830152606083015160608301526080830151608083015292915050565b600181811c9082168061189457607f821691505b6020821081036118b457634e487b7160e01b600052602260045260246000fd5b50919050565b6020808252600e908201526d139bdd08185d5d1a1bdc9a5e995960921b604082015260600190565b634e487b7160e01b600052601160045260246000fd5b60006001820161190a5761190a6118e2565b5060010190565b6040810161191f828561168e565b8260208301529392505050565b6000835161193e8184602088016114b5565b8351908301906119528183602088016114b5565b01949350505050565b80820180821115610427576104276118e2565b6001600160a01b03858116825284166020820152604081018390526080606082018190526000906119a1908301846114d9565b9695505050505050565b6000602082840312156119bd57600080fd5b8151610ace8161148256fea264697066735822122086381d26c9e46d2855a9f7a99639897540e7cd3ebcf2d0f97dc97cca63f5c8a664736f6c63430008180033",
  "devdoc": {
    "details": "Each plant has type, growth stage, health, and planted timestamp",
    "errors": {
      "ERC721IncorrectOwner(address,uint256,address)": [
        {
          "details": "Indicates an error related to the ownership over a particular token. Used in transfers.",
          "params": {
            "owner": "Address of the current owner of a token.",
            "sender": "Address whose tokens are being transferred.",
            "tokenId": "Identifier number of a token."
          }
        }
      ],
      "ERC721InsufficientApproval(address,uint256)": [
        {
          "details": "Indicates a failure with the `operator`s approval. Used in transfers.",
          "params": {
            "operator": "Address that may be allowed to operate on tokens without being their owner.",
            "tokenId": "Identifier number of a token."
          }
        }
      ],
      "ERC721InvalidApprover(address)": [
        {
          "details": "Indicates a failure with the `approver` of a token to be approved. Used in approvals.",
          "params": {
            "approver": "Address initiating an approval operation."
          }
        }
      ],
      "ERC721InvalidOperator(address)": [
        {
          "details": "Indicates a failure with the `operator` to be approved. Used in approvals.",
          "params": {
            "operator": "Address that may be allowed to operate on tokens without being their owner."
          }
        }
      ],
      "ERC721InvalidOwner(address)": [
        {
          "details": "Indicates that an address can't be an owner. For example, `address(0)` is a forbidden owner in EIP-20. Used in balance queries.",
          "params": {
            "owner": "Address of the current owner of a token."
          }
        }
      ],
      "ERC721InvalidReceiver(address)": [
        {
          "details": "Indicates a failure with the token `receiver`. Used in transfers.",
          "params": {
            "receiver": "Address to which tokens are being transferred."
          }
        }
      ],
      "ERC721InvalidSender(address)": [
        {
          "details": "Indicates a failure with the token `sender`. Used in transfers.",
          "params": {
            "sender": "Address whose tokens are being transferred."
          }
        }
      ],
      "ERC721NonexistentToken(uint256)": [
        {
          "details": "Indicates a `tokenId` whose `owner` is the zero address.",
          "params": {
            "tokenId": "Identifier number of a token."
          }
        }
      ],
      "OwnableInvalidOwner(address)": [
        {
          "details": "The owner is not a valid owner account. (eg. `address(0)`)"
        }
      ],
      "OwnableUnauthorizedAccount(address)": [
        {
          "details": "The caller account is not authorized to perform an operation."
        }
      ]
    },
    "events": {
      "Approval(address,address,uint256)": {
        "details": "Emitted when `owner` enables `approved` to manage the `tokenId` token."
      },
      "ApprovalForAll(address,address,bool)": {
        "details": "Emitted when `owner` enables or disables (`approved`) `operator` to manage all of its assets."
      },
      "Transfer(address,address,uint256)": {
        "details": "Emitted when `tokenId` token is transferred from `from` to `to`."
      }
    },
    "kind": "dev",
    "methods": {
      "approve(address,uint256)": {
        "details": "See {IERC721-approve}."
      },
      "balanceOf(address)": {
        "details": "See {IERC721-balanceOf}."
      },
      "getApproved(uint256)": {
        "details": "See {IERC721-getApproved}."
      },
      "isApprovedForAll(address,address)": {
        "details": "See {IERC721-isApprovedForAll}."
      },
      "name()": {
        "details": "See {IERC721Metadata-name}."
      },
      "owner()": {
        "details": "Returns the address of the current owner."
      },
      "ownerOf(uint256)": {
        "details": "See {IERC721-ownerOf}."
      },
      "renounceOwnership()": {
        "details": "Leaves the contract without owner. It will not be possible to call `onlyOwner` functions. Can only be called by the current owner. NOTE: Renouncing ownership will leave the contract without an owner, thereby disabling any functionality that is only available to the owner."
      },
      "safeTransferFrom(address,address,uint256)": {
        "details": "See {IERC721-safeTransferFrom}."
      },
      "safeTransferFrom(address,address,uint256,bytes)": {
        "details": "See {IERC721-safeTransferFrom}."
      },
      "setApprovalForAll(address,bool)": {
        "details": "See {IERC721-setApprovalForAll}."
      },
      "supportsInterface(bytes4)": {
        "details": "See {IERC165-supportsInterface}."
      },
      "symbol()": {
        "details": "See {IERC721Metadata-symbol}."
      },
      "tokenURI(uint256)": {
        "details": "See {IERC721Metadata-tokenURI}."
      },
      "transferFrom(address,address,uint256)": {
        "details": "See {IERC721-transferFrom}."
      },
      "transferOwnership(address)": {
        "details": "Transfers ownership of the contract to a new account (`newOwner`). Can only be called by the current owner."
      }
    },
    "title": "PlantNFT",
    "version": 1
  },
  "userdoc": {
    "kind": "user",
    "methods": {
      "burn(uint256)": {
        "notice": "Burn plant NFT (when harvested)"
      },
      "getPlant(uint256)": {
        "notice": "Get plant info"
      },
      "isReadyToHarvest(uint256)": {
        "notice": "Check if plant is ready to harvest"
      },
      "mint(address,uint8,uint256)": {
        "notice": "Mint a new plant NFT"
      },
      "setAuthorizedManager(address,bool)": {
        "notice": "Authorize a contract to manage plants"
      },
      "updateGrowthStage(uint256,uint8)": {
        "notice": "Update plant growth stage"
      },
      "updateHealth(uint256,uint16)": {
        "notice": "Update plant health (called by FarmEffects contract)"
      }
    },
    "notice": "ERC721 NFT representing planted crops",
    "version": 1
  },
  "storageLayout": {
    "storage": [
      {
        "astId": 936,
        "contract": "contracts/PlantNFT.sol:PlantNFT",
        "label": "_name",
        "offset": 0,
        "slot": "0",
        "type": "t_string_storage"
      },
      {
        "astId": 938,
        "contract": "contracts/PlantNFT.sol:PlantNFT",
        "label": "_symbol",
        "offset": 0,
        "slot": "1",
        "type": "t_string_storage"
      },
      {
        "astId": 942,
        "contract": "contracts/PlantNFT.sol:PlantNFT",
        "label": "_owners",
        "offset": 0,
        "slot": "2",
        "type": "t_mapping(t_uint256,t_address)"
      },
      {
        "astId": 946,
        "contract": "contracts/PlantNFT.sol:PlantNFT",
        "label": "_balances",
        "offset": 0,
        "slot": "3",
        "type": "t_mapping(t_address,t_uint256)"
      },
      {
        "astId": 950,
        "contract": "contracts/PlantNFT.sol:PlantNFT",
        "label": "_tokenApprovals",
        "offset": 0,
        "slot": "4",
        "type": "t_mapping(t_uint256,t_address)"
      },
      {
        "astId": 956,
        "contract": "contracts/PlantNFT.sol:PlantNFT",
        "label": "_operatorApprovals",
        "offset": 0,
        "slot": "5",
        "type": "t_mapping(t_address,t_mapping(t_address,t_bool))"
      },
      {
        "astId": 8,
        "contract": "contracts/PlantNFT.sol:PlantNFT",
        "label": "_owner",
        "offset": 0,
        "slot": "6",
        "type": "t_address"
      },
      {
        "astId": 5507,
        "contract": "contracts/PlantNFT.sol:PlantNFT",
        "label": "_nextTokenId",
        "offset": 0,
        "slot": "7",
        "type": "t_uint256"
      },
      {
        "astId": 5528,
        "contract": "contracts/PlantNFT.sol:PlantNFT",
        "label": "plants",
        "offset": 0,
        "slot": "8",
        "type": "t_mapping(t_uint256,t_struct(Plant)5523_storage)"
      },
      {
        "astId": 5532,
        "contract": "contracts/PlantNFT.sol:PlantNFT",
        "label": "authorizedManagers",
        "offset": 0,
        "slot": "9",
        "type": "t_mapping(t_address,t_bool)"
      }
    ],
    "types": {
      "t_address": {
        "encoding": "inplace",
        "label": "address",
        "numberOfBytes": "20"
      },
      "t_bool": {
        "encoding": "inplace",
        "label": "bool",
        "numberOfBytes": "1"
      },
      "t_enum(PlantType)5511": {
        "encoding": "inplace",
        "label": "enum PlantNFT.PlantType",
        "numberOfBytes": "1"
      },
      "t_mapping(t_address,t_bool)": {
        "encoding": "mapping",
        "key": "t_address",
        "label": "mapping(address => bool)",
        "numberOfBytes": "32",
        "value": "t_bool"
      },
      "t_mapping(t_address,t_mapping(t_address,t_bool))": {
        "encoding": "mapping",
        "key": "t_address",
        "label": "mapping(address => mapping(address => bool))",
        "numberOfBytes": "32",
        "value": "t_mapping(t_address,t_bool)"
      },
      "t_mapping(t_address,t_uint256)": {
        "encoding": "mapping",
        "key": "t_address",
        "label": "mapping(address => uint256)",
        "numberOfBytes": "32",
        "value": "t_uint256"
      },
      "t_mapping(t_uint256,t_address)": {
        "encoding": "mapping",
        "key": "t_uint256",
        "label": "mapping(uint256 => address)",
        "numberOfBytes": "32",
        "value": "t_address"
      },
      "t_mapping(t_uint256,t_struct(Plant)5523_storage)": {
        "encoding": "mapping",
        "key": "t_uint256",
        "label": "mapping(uint256 => struct PlantNFT.Plant)",
        "numberOfBytes": "32",
        "value": "t_struct(Plant)5523_storage"
      },
      "t_string_storage": {
        "encoding": "bytes",
        "label": "string",
        "numberOfBytes": "32"
      },
      "t_struct(Plant)5523_storage": {
        "encoding": "inplace",
        "label": "struct PlantNFT.Plant",
        "members": [
          {
            "astId": 5514,
            "contract": "contracts/PlantNFT.sol:PlantNFT",
            "label": "plantType",
            "offset": 0,
            "slot": "0",
            "type": "t_enum(PlantType)5511"
          },
          {
            "astId": 5516,
            "contract": "contracts/PlantNFT.sol:PlantNFT",
            "label": "growthStage",
            "offset": 1,
            "slot": "0",
            "type": "t_uint8"
          },
          {
            "astId": 5518,
            "contract": "contracts/PlantNFT.sol:PlantNFT",
            "label": "health",
            "offset": 2,
            "slot": "0",
            "type": "t_uint16"
          },
          {
            "astId": 5520,
            "contract": "contracts/PlantNFT.sol:PlantNFT",
            "label": "plantedAt",
            "offset": 0,
            "slot": "1",
            "type": "t_uint256"
          },
          {
            "astId": 5522,
            "contract": "contracts/PlantNFT.sol:PlantNFT",
            "label": "landTokenId",
            "offset": 0,
            "slot": "2",
            "type": "t_uint256"
          }
        ],
        "numberOfBytes": "96"
      },
      "t_uint16": {
        "encoding": "inplace",
        "label": "uint16",
        "numberOfBytes": "2"
      },
      "t_uint256": {
        "encoding": "inplace",
        "label": "uint256",
        "numberOfBytes": "32"
      },
      "t_uint8": {
        "encoding": "inplace",
        "label": "uint8",
        "numberOfBytes": "1"
      }
    }
  }
}