{
  "address": "0xa41CcD8f7c9F51a032A9d27571092279C7172f5B",
  "abi": [
    {
      "inputs": [
        {
          "internalType": "address",
          "name": "initialOwner",
          "type": "address"
        }
      ],
      "stateMutability": "nonpayable",
      "type": "constructor"
    },
    {
      "inputs": [
        {
          "internalType": "address",
          "name": "owner",
          "type": "address"
        }
      ],
      "name": "OwnableInvalidOwner",
      "type": "error"
    },
    {
      "inputs": [
        {
          "internalType": "address",
          "name": "account",
          "type": "address"
        }
      ],
      "name": "OwnableUnauthorizedAccount",
      "type": "error"
    },
    {
      "anonymous": false,
      "inputs": [
        {
          "indexed": true,
          "internalType": "address",
          "name": "previousOwner",
          "type": "address"
        },
        {
          "indexed": true,
          "internalType": "address",
          "name": "newOwner",
          "type": "address"
        }
      ],
      "name": "OwnershipTransferred",
      "type": "event"
    },
    {
      "anonymous": false,
      "inputs": [
        {
          "indexed": true,
          "internalType": "enum PriceOracle.CropType",
          "name": "cropType",
          "type": "uint8"
        },
        {
          "indexed": false,
          "internalType": "uint256",
          "name": "multiplier",
          "type": "uint256"
        }
      ],
      "name": "PriceMultiplierUpdated",
      "type": "event"
    },
    {
      "inputs": [],
      "name": "BASE_GRAPE_CROP",
      "outputs": [
        {
          "internalType": "uint256",
          "name": "",
          "type": "uint256"
        }
      ],
      "stateMutability": "view",
      "type": "function"
    },
    {
      "inputs": [],
      "name": "BASE_GRAPE_SEED",
      "outputs": [
        {
          "internalType": "uint256",
          "name": "",
          "type": "uint256"
        }
      ],
      "stateMutability": "view",
      "type": "function"
    },
    {
      "inputs": [],
      "name": "BASE_PUMPKIN_CROP",
      "outputs": [
        {
          "internalType": "uint256",
          "name": "",
          "type": "uint256"
        }
      ],
      "stateMutability": "view",
      "type": "function"
    },
    {
      "inputs": [],
      "name": "BASE_PUMPKIN_SEED",
      "outputs": [
        {
          "internalType": "uint256",
          "name": "",
          "type": "uint256"
        }
      ],
      "stateMutability": "view",
      "type": "function"
    },
    {
      "inputs": [],
      "name": "BASE_WHEAT_CROP",
      "outputs": [
        {
          "internalType": "uint256",
          "name": "",
          "type": "uint256"
        }
      ],
      "stateMutability": "view",
      "type": "function"
    },
    {
      "inputs": [],
      "name": "BASE_WHEAT_SEED",
      "outputs": [
        {
          "internalType": "uint256",
          "name": "",
          "type": "uint256"
        }
      ],
      "stateMutability": "view",
      "type": "function"
    },
    {
      "inputs": [
        {
          "internalType": "address",
          "name": "",
          "type": "address"
        }
      ],
      "name": "authorizedManagers",
      "outputs": [
        {
          "internalType": "bool",
          "name": "",
          "type": "bool"
        }
      ],
      "stateMutability": "view",
      "type": "function"
    },
    {
      "inputs": [
        {
          "internalType": "enum PriceOracle.CropType",
          "name": "",
          "type": "uint8"
        }
      ],
      "name": "cropMultipliers",
      "outputs": [
        {
          "internalType": "uint256",
          "name": "",
          "type": "uint256"
        }
      ],
      "stateMutability": "view",
      "type": "function"
    },
    {
      "inputs": [],
      "name": "getAllPrices",
      "outputs": [
        {
          "internalType": "uint256",
          "name": "",
          "type": "uint256"
        },
        {
          "internalType": "uint256",
          "name": "",
          "type": "uint256"
        },
        {
          "internalType": "uint256",
          "name": "",
          "type": "uint256"
        },
        {
          "internalType": "uint256",
          "name": "",
          "type": "uint256"
        },
        {
          "internalType": "uint256",
          "name": "",
          "type": "uint256"
        },
        {
          "internalType": "uint256",
          "name": "",
          "type": "uint256"
        }
      ],
      "stateMutability": "view",
      "type": "function"
    },
    {
      "inputs": [
        {
          "internalType": "enum PriceOracle.CropType",
          "name": "cropType",
          "type": "uint8"
        }
      ],
      "name": "getCropPrice",
      "outputs": [
        {
          "internalType": "uint256",
          "name": "",
          "type": "uint256"
        }
      ],
      "stateMutability": "view",
      "type": "function"
    },
    {
      "inputs": [
        {
          "internalType": "enum PriceOracle.SeedType",
          "name": "seedType",
          "type": "uint8"
        }
      ],
      "name": "getSeedPrice",
      "outputs": [
        {
          "internalType": "uint256",
          "name": "",
          "type": "uint256"
        }
      ],
      "stateMutability": "view",
      "type": "function"
    },
    {
      "inputs": [],
      "name": "owner",
      "outputs": [
        {
          "internalType": "address",
          "name": "",
          "type": "address"
        }
      ],
      "stateMutability": "view",
      "type": "function"
    },
    {
      "inputs": [],
      "name": "renounceOwnership",
      "outputs": [],
      "stateMutability": "nonpayable",
      "type": "function"
    },
    {
      "inputs": [
        {
          "internalType": "enum PriceOracle.SeedType",
          "name": "",
          "type": "uint8"
        }
      ],
      "name": "seedMultipliers",
      "outputs": [
        {
          "internalType": "uint256",
          "name": "",
          "type": "uint256"
        }
      ],
      "stateMutability": "view",
      "type": "function"
    },
    {
      "inputs": [
        {
          "internalType": "address",
          "name": "manager",
          "type": "address"
        },
        {
          "internalType": "bool",
          "name": "authorized",
          "type": "bool"
        }
      ],
      "name": "setAuthorizedManager",
      "outputs": [],
      "stateMutability": "nonpayable",
      "type": "function"
    },
    {
      "inputs": [
        {
          "internalType": "uint256",
          "name": "multiplier",
          "type": "uint256"
        }
      ],
      "name": "setWheatMultiplier",
      "outputs": [],
      "stateMutability": "nonpayable",
      "type": "function"
    },
    {
      "inputs": [
        {
          "internalType": "address",
          "name": "newOwner",
          "type": "address"
        }
      ],
      "name": "transferOwnership",
      "outputs": [],
      "stateMutability": "nonpayable",
      "type": "function"
    }
  ],
  "transactionHash": "0xed195fdc295b2869cf8a5fca138e768c8df3a675d894c85fff6acc6608bffdca",
  "args": [
    "0x38048c9AcEF95Cb2866e58Da69dd96B71870c55C"
  ],
  "numDeployments": 2,
  "solcInputHash": "4bc3966e97119a09571f78af33771c4b",
  "bytecode": "0x608060405234801561001057600080fd5b5060405161095738038061095783398101604081905261002f916101a1565b806001600160a01b03811661005e57604051631e4fbdf760e01b81526000600482015260240160405180910390fd5b61006781610151565b50506103e87fa6eef7e35abe7026729641147f7915573c7e97b47efa546f5f6e3230263bcb498190557fcc69885fda6bcc1a4ace058b4a62bf5e179ea78fd58a1ccd71c22cc9b688792f8190557fd9d16d34ffb15ba3a3d852f0d403e2ce1d691fb54de27ac87cd2f993f3ec330f819055600260208190527fac33ff75c19e70fe83507db0d683fd3465c996598dc972688b7ace676c89077b8290557fe90b7bceb6e7df5418fb78d8ee546e97c83a08bbccc01a0644d599ccd2a7c2e08290556000527f679795a0195a1b76cdebb7c51d74e058aee92919b8c3389af86ef24535e8a28c556101d1565b600080546001600160a01b038381166001600160a01b0319831681178455604051919092169283917f8be0079c531659141344cd1fd0a4f28419497f9722a3daafe3b4186f6b6457e09190a35050565b6000602082840312156101b357600080fd5b81516001600160a01b03811681146101ca57600080fd5b9392505050565b610777806101e06000396000f3fe608060405234801561001057600080fd5b506004361061010b5760003560e01c8063984d9181116100a2578063cc098bf611610071578063cc098bf614610243578063db25978214610256578063e97eb13314610266578063eea138e114610276578063f2fde38b1461028957600080fd5b8063984d9181146102015780639d34688214610221578063c6b3c94c14610230578063c7cc48121461014857600080fd5b8063445df9d6116100de578063445df9d614610189578063715018a6146101be5780637d1c98ce146101c65780638da5cb5b146101e657600080fd5b80630a3cb21b1461011057806329dfcda1146101485780632b71fb3a146101655780632bd696fd1461017a575b600080fd5b61013361011e366004610644565b60036020526000908152604090205460ff1681565b60405190151581526020015b60405180910390f35b61015767d02ab486cedc000081565b60405190815260200161013f565b61017861017336600461065f565b61029c565b005b61015767a688906bd8b0000081565b6101916102cf565b604080519687526020870195909552938501929092526060840152608083015260a082015260c00161013f565b610178610327565b6101576101d43660046106a8565b60016020526000908152604090205481565b6000546040516001600160a01b03909116815260200161013f565b61015761020f3660046106a8565b60026020526000908152604090205481565b610157674563918244f4000081565b61017861023e3660046106c5565b61033b565b6101576102513660046106a8565b610443565b6101576801a055690d9db8000081565b61015768022b1c8c1227a0000081565b6101576102843660046106a8565b6104f5565b610178610297366004610644565b61056d565b6102a46105ab565b6001600160a01b03919091166000908152600360205260409020805460ff1916911515919091179055565b6000806000806000806102e26000610443565b6102ec6001610443565b6102f66002610443565b61030060006104f5565b61030a60016104f5565b61031460026104f5565b949b939a50919850965094509092509050565b61032f6105ab565b61033960006105d8565b565b3360009081526003602052604090205460ff168061036357506000546001600160a01b031633145b6103a55760405162461bcd60e51b815260206004820152600e60248201526d139bdd08185d5d1a1bdc9a5e995960921b60448201526064015b60405180910390fd5b60006103b3826103e86106de565b60008080527fa6eef7e35abe7026729641147f7915573c7e97b47efa546f5f6e3230263bcb49829055600260209081527fac33ff75c19e70fe83507db0d683fd3465c996598dc972688b7ace676c89077b83905560408051848152905193945091927f238022b1e6d385323bbf0d8d87ba282ac6120f8dc78ef82f08ab5630e2fad81a9281900390910190a25050565b6000808083600281111561045957610459610709565b0361046d5750674563918244f400006104a0565b600183600281111561048157610481610709565b03610495575067a688906bd8b000006104a0565b5067d02ab486cedc00005b6103e8600260008560028111156104b9576104b9610709565b60028111156104ca576104ca610709565b815260200190815260200160002054826104e491906106de565b6104ee919061071f565b9392505050565b6000808083600281111561050b5761050b610709565b0361051f575067d02ab486cedc0000610554565b600183600281111561053357610533610709565b0361054857506801a055690d9db80000610554565b5068022b1c8c1227a000005b6103e8600160008560028111156104b9576104b9610709565b6105756105ab565b6001600160a01b03811661059f57604051631e4fbdf760e01b81526000600482015260240161039c565b6105a8816105d8565b50565b6000546001600160a01b031633146103395760405163118cdaa760e01b815233600482015260240161039c565b600080546001600160a01b038381166001600160a01b0319831681178455604051919092169283917f8be0079c531659141344cd1fd0a4f28419497f9722a3daafe3b4186f6b6457e09190a35050565b80356001600160a01b038116811461063f57600080fd5b919050565b60006020828403121561065657600080fd5b6104ee82610628565b6000806040838503121561067257600080fd5b61067b83610628565b91506020830135801515811461069057600080fd5b809150509250929050565b600381106105a857600080fd5b6000602082840312156106ba57600080fd5b81356104ee8161069b565b6000602082840312156106d757600080fd5b5035919050565b808202811582820484141761070357634e487b7160e01b600052601160045260246000fd5b92915050565b634e487b7160e01b600052602160045260246000fd5b60008261073c57634e487b7160e01b600052601260045260246000fd5b50049056fea264697066735822122054840f6c1c327f2b38e9f751fc189ca04574185ece7b3f3d040dd333efd67de864736f6c63430008180033",
  "devdoc": {
    "errors": {
      "OwnableInvalidOwner(address)": [
        {
          "details": "The owner is not a valid owner account. (eg. `address(0)`)"
        }
      ],
      "OwnableUnauthorizedAccount(address)": [
        {
          "details": "The caller account is not authorized to perform an operation."
        }
      ]
    },
    "kind": "dev",
    "methods": {
      "owner()": {
        "details": "Returns the address of the current owner."
      },
      "renounceOwnership()": {
        "details": "Leaves the contract without owner. It will not be possible to call `onlyOwner` functions. Can only be called by the current owner. NOTE: Renouncing ownership will leave the contract without an owner, thereby disabling any functionality that is only available to the owner."
      },
      "transferOwnership(address)": {
        "details": "Transfers ownership of the contract to a new account (`newOwner`). Can only be called by the current owner."
      }
    },
    "version": 1
  },
  "userdoc": {
    "kind": "user",
    "methods": {},
    "version": 1
  },
  "storageLayout": {
    "storage": [
      {
        "astId": 8,
        "contract": "contracts/PriceOracle.sol:PriceOracle",
        "label": "_owner",
        "offset": 0,
        "slot": "0",
        "type": "t_address"
      },
      {
        "astId": 6690,
        "contract": "contracts/PriceOracle.sol:PriceOracle",
        "label": "cropMultipliers",
        "offset": 0,
        "slot": "1",
        "type": "t_mapping(t_enum(CropType)6639,t_uint256)"
      },
      {
        "astId": 6695,
        "contract": "contracts/PriceOracle.sol:PriceOracle",
        "label": "seedMultipliers",
        "offset": 0,
        "slot": "2",
        "type": "t_mapping(t_enum(SeedType)6643,t_uint256)"
      },
      {
        "astId": 6699,
        "contract": "contracts/PriceOracle.sol:PriceOracle",
        "label": "authorizedManagers",
        "offset": 0,
        "slot": "3",
        "type": "t_mapping(t_address,t_bool)"
      }
    ],
    "types": {
      "t_address": {
        "encoding": "inplace",
        "label": "address",
        "numberOfBytes": "20"
      },
      "t_bool": {
        "encoding": "inplace",
        "label": "bool",
        "numberOfBytes": "1"
      },
      "t_enum(CropType)6639": {
        "encoding": "inplace",
        "label": "enum PriceOracle.CropType",
        "numberOfBytes": "1"
      },
      "t_enum(SeedType)6643": {
        "encoding": "inplace",
        "label": "enum PriceOracle.SeedType",
        "numberOfBytes": "1"
      },
      "t_mapping(t_address,t_bool)": {
        "encoding": "mapping",
        "key": "t_address",
        "label": "mapping(address => bool)",
        "numberOfBytes": "32",
        "value": "t_bool"
      },
      "t_mapping(t_enum(CropType)6639,t_uint256)": {
        "encoding": "mapping",
        "key": "t_enum(CropType)6639",
        "label": "mapping(enum PriceOracle.CropType => uint256)",
        "numberOfBytes": "32",
        "value": "t_uint256"
      },
      "t_mapping(t_enum(SeedType)6643,t_uint256)": {
        "encoding": "mapping",
        "key": "t_enum(SeedType)6643",
        "label": "mapping(enum PriceOracle.SeedType => uint256)",
        "numberOfBytes": "32",
        "value": "t_uint256"
      },
      "t_uint256": {
        "encoding": "inplace",
        "label": "uint256",
        "numberOfBytes": "32"
      }
    }
  }
}