{
  "address": "0x5f3f1dBD7B74C6B46e8c44f98792A1dAf8d69154",
  "abi": [
    {
      "inputs": [
        {
          "internalType": "address",
          "name": "initialOwner",
          "type": "address"
        },
        {
          "internalType": "address",
          "name": "_gameEvents",
          "type": "address"
        },
        {
          "internalType": "address",
          "name": "_gameEffects",
          "type": "address"
        }
      ],
      "stateMutability": "nonpayable",
      "type": "constructor"
    },
    {
      "inputs": [
        {
          "internalType": "address",
          "name": "owner",
          "type": "address"
        }
      ],
      "name": "OwnableInvalidOwner",
      "type": "error"
    },
    {
      "inputs": [
        {
          "internalType": "address",
          "name": "account",
          "type": "address"
        }
      ],
      "name": "OwnableUnauthorizedAccount",
      "type": "error"
    },
    {
      "anonymous": false,
      "inputs": [
        {
          "indexed": true,
          "internalType": "address",
          "name": "previousOwner",
          "type": "address"
        },
        {
          "indexed": true,
          "internalType": "address",
          "name": "newOwner",
          "type": "address"
        }
      ],
      "name": "OwnershipTransferred",
      "type": "event"
    },
    {
      "anonymous": false,
      "inputs": [
        {
          "indexed": true,
          "internalType": "uint256",
          "name": "eventId",
          "type": "uint256"
        },
        {
          "indexed": false,
          "internalType": "uint256",
          "name": "wheatMultiplier",
          "type": "uint256"
        },
        {
          "indexed": false,
          "internalType": "uint256",
          "name": "grapeMultiplier",
          "type": "uint256"
        },
        {
          "indexed": false,
          "internalType": "uint256",
          "name": "pumpkinMultiplier",
          "type": "uint256"
        }
      ],
      "name": "PricesUpdated",
      "type": "event"
    },
    {
      "inputs": [],
      "name": "BASE_GRAPE_CROP",
      "outputs": [
        {
          "internalType": "uint256",
          "name": "",
          "type": "uint256"
        }
      ],
      "stateMutability": "view",
      "type": "function"
    },
    {
      "inputs": [],
      "name": "BASE_GRAPE_SEED",
      "outputs": [
        {
          "internalType": "uint256",
          "name": "",
          "type": "uint256"
        }
      ],
      "stateMutability": "view",
      "type": "function"
    },
    {
      "inputs": [],
      "name": "BASE_PUMPKIN_CROP",
      "outputs": [
        {
          "internalType": "uint256",
          "name": "",
          "type": "uint256"
        }
      ],
      "stateMutability": "view",
      "type": "function"
    },
    {
      "inputs": [],
      "name": "BASE_PUMPKIN_SEED",
      "outputs": [
        {
          "internalType": "uint256",
          "name": "",
          "type": "uint256"
        }
      ],
      "stateMutability": "view",
      "type": "function"
    },
    {
      "inputs": [],
      "name": "BASE_WHEAT_CROP",
      "outputs": [
        {
          "internalType": "uint256",
          "name": "",
          "type": "uint256"
        }
      ],
      "stateMutability": "view",
      "type": "function"
    },
    {
      "inputs": [],
      "name": "BASE_WHEAT_SEED",
      "outputs": [
        {
          "internalType": "uint256",
          "name": "",
          "type": "uint256"
        }
      ],
      "stateMutability": "view",
      "type": "function"
    },
    {
      "inputs": [
        {
          "internalType": "enum PriceOracle.CropType",
          "name": "",
          "type": "uint8"
        }
      ],
      "name": "cropMultipliers",
      "outputs": [
        {
          "internalType": "uint256",
          "name": "",
          "type": "uint256"
        }
      ],
      "stateMutability": "view",
      "type": "function"
    },
    {
      "inputs": [],
      "name": "gameEffects",
      "outputs": [
        {
          "internalType": "contract GameEffects",
          "name": "",
          "type": "address"
        }
      ],
      "stateMutability": "view",
      "type": "function"
    },
    {
      "inputs": [],
      "name": "gameEvents",
      "outputs": [
        {
          "internalType": "contract GameEvents",
          "name": "",
          "type": "address"
        }
      ],
      "stateMutability": "view",
      "type": "function"
    },
    {
      "inputs": [],
      "name": "getAllPrices",
      "outputs": [
        {
          "internalType": "uint256",
          "name": "wheatSeed",
          "type": "uint256"
        },
        {
          "internalType": "uint256",
          "name": "grapeSeed",
          "type": "uint256"
        },
        {
          "internalType": "uint256",
          "name": "pumpkinSeed",
          "type": "uint256"
        },
        {
          "internalType": "uint256",
          "name": "wheatCrop",
          "type": "uint256"
        },
        {
          "internalType": "uint256",
          "name": "grapeCrop",
          "type": "uint256"
        },
        {
          "internalType": "uint256",
          "name": "pumpkinCrop",
          "type": "uint256"
        }
      ],
      "stateMutability": "view",
      "type": "function"
    },
    {
      "inputs": [
        {
          "internalType": "enum PriceOracle.CropType",
          "name": "cropType",
          "type": "uint8"
        }
      ],
      "name": "getCropPrice",
      "outputs": [
        {
          "internalType": "uint256",
          "name": "",
          "type": "uint256"
        }
      ],
      "stateMutability": "view",
      "type": "function"
    },
    {
      "inputs": [
        {
          "internalType": "uint256",
          "name": "count",
          "type": "uint256"
        }
      ],
      "name": "getPriceHistory",
      "outputs": [
        {
          "components": [
            {
              "internalType": "uint256",
              "name": "timestamp",
              "type": "uint256"
            },
            {
              "internalType": "uint256",
              "name": "wheatPrice",
              "type": "uint256"
            },
            {
              "internalType": "uint256",
              "name": "grapePrice",
              "type": "uint256"
            },
            {
              "internalType": "uint256",
              "name": "pumpkinPrice",
              "type": "uint256"
            }
          ],
          "internalType": "struct PriceOracle.PriceSnapshot[]",
          "name": "",
          "type": "tuple[]"
        }
      ],
      "stateMutability": "view",
      "type": "function"
    },
    {
      "inputs": [
        {
          "internalType": "enum PriceOracle.SeedType",
          "name": "seedType",
          "type": "uint8"
        }
      ],
      "name": "getSeedPrice",
      "outputs": [
        {
          "internalType": "uint256",
          "name": "",
          "type": "uint256"
        }
      ],
      "stateMutability": "view",
      "type": "function"
    },
    {
      "inputs": [],
      "name": "owner",
      "outputs": [
        {
          "internalType": "address",
          "name": "",
          "type": "address"
        }
      ],
      "stateMutability": "view",
      "type": "function"
    },
    {
      "inputs": [
        {
          "internalType": "uint256",
          "name": "",
          "type": "uint256"
        }
      ],
      "name": "priceHistory",
      "outputs": [
        {
          "internalType": "uint256",
          "name": "timestamp",
          "type": "uint256"
        },
        {
          "internalType": "uint256",
          "name": "wheatPrice",
          "type": "uint256"
        },
        {
          "internalType": "uint256",
          "name": "grapePrice",
          "type": "uint256"
        },
        {
          "internalType": "uint256",
          "name": "pumpkinPrice",
          "type": "uint256"
        }
      ],
      "stateMutability": "view",
      "type": "function"
    },
    {
      "inputs": [],
      "name": "renounceOwnership",
      "outputs": [],
      "stateMutability": "nonpayable",
      "type": "function"
    },
    {
      "inputs": [
        {
          "internalType": "enum PriceOracle.SeedType",
          "name": "",
          "type": "uint8"
        }
      ],
      "name": "seedMultipliers",
      "outputs": [
        {
          "internalType": "uint256",
          "name": "",
          "type": "uint256"
        }
      ],
      "stateMutability": "view",
      "type": "function"
    },
    {
      "inputs": [
        {
          "internalType": "address",
          "name": "newOwner",
          "type": "address"
        }
      ],
      "name": "transferOwnership",
      "outputs": [],
      "stateMutability": "nonpayable",
      "type": "function"
    },
    {
      "inputs": [
        {
          "internalType": "uint256",
          "name": "eventId",
          "type": "uint256"
        }
      ],
      "name": "updatePrices",
      "outputs": [],
      "stateMutability": "nonpayable",
      "type": "function"
    }
  ],
  "transactionHash": "0x3053d5b1a36b90f5887b6a1164b4947243ae65d795cf19987df288cabdec6674",
  "args": [
    "0xf39Fd6e51aad88F6F4ce6aB8827279cffFb92266",
    "0x4c5859f0F772848b2D91F1D83E2Fe57935348029",
    "0x1291Be112d480055DaFd8a610b7d1e203891C274"
  ],
  "numDeployments": 1,
  "solcInputHash": "5a7c913e832cbcb2622e48effc3e7d82",
  "bytecode": "0x608060405234801561001057600080fd5b5060405161111d38038061111d83398101604081905261002f916101ea565b826001600160a01b03811661005e57604051631e4fbdf760e01b81526000600482015260240160405180910390fd5b6100678161017e565b50600180546001600160a01b039384166001600160a01b031991821617909155600280549290931691161781556103e87f3617319a054d772f909f7c479a2cebe5066e836a939412e32403c99029b92eff8190557fa15bc60c955c405d20d9149c709e2460f1c2d9a497496a7f46004d1772c3054c8190557fc3a24b0501bd2c13a7e57f2db4369ec4c223447539fc0724a9d55ac4a06ebd4d81905560046020527f17ef568e3e12ab5b9c7254a8d58478811de00f9e6eb34345acd53bf8fd09d3ec8190557fabd6e7cb50984ff9c2f3e18a2660c3353dadf4e3291deeb275dae2cd1e44fe058190556000919091527f91da3fd0782e51c6b3986e9e672fd566868e71f3dbc2d6c2cd6fbb3e361af2a7555061022d565b600080546001600160a01b038381166001600160a01b0319831681178455604051919092169283917f8be0079c531659141344cd1fd0a4f28419497f9722a3daafe3b4186f6b6457e09190a35050565b80516001600160a01b03811681146101e557600080fd5b919050565b6000806000606084860312156101ff57600080fd5b610208846101ce565b9250610216602085016101ce565b9150610224604085016101ce565b90509250925092565b610ee18061023c6000396000f3fe608060405234801561001057600080fd5b50600436106101215760003560e01c8063ae7e8d81116100ad578063e97eb13311610071578063e97eb13314610293578063eea138e1146102a1578063ef7786fe146102b4578063f2fde38b146102c7578063fd1a98a5146102da57600080fd5b8063ae7e8d811461021e578063b27a048414610231578063c7cc481214610264578063cc098bf614610272578063db2597821461028557600080fd5b8063715018a6116100f4578063715018a6146101b55780637d1c98ce146101bf5780638da5cb5b146101df578063984d9181146101f05780639d3468821461021057600080fd5b806329dfcda1146101265780632bd696fd14610147578063445df9d6146101555780636f8c0a2a1461018a575b600080fd5b610134662386f26fc1000081565b6040519081526020015b60405180910390f35b610134662aa1efb94e000081565b61015d6102fa565b604080519687526020870195909552938501929092526060840152608083015260a082015260c00161013e565b60025461019d906001600160a01b031681565b6040516001600160a01b03909116815260200161013e565b6101bd610352565b005b6101346101cd366004610bf2565b60036020526000908152604090205481565b6000546001600160a01b031661019d565b6101346101fe366004610bf2565b60046020526000908152604090205481565b6101346611c37937e0800081565b6101bd61022c366004610c0f565b610366565b61024461023f366004610c0f565b61065e565b60408051948552602085019390935291830152606082015260800161013e565b61013466470de4df82000081565b610134610280366004610bf2565b610698565b6101346658d15e1762800081565b610134669fdf42f6e4800081565b6101346102af366004610bf2565b610747565b60015461019d906001600160a01b031681565b6101bd6102d5366004610c28565b6107ba565b6102ed6102e8366004610c0f565b6107fd565b60405161013e9190610c51565b60008060008060008061030d6000610698565b6103176001610698565b6103216002610698565b61032b6000610747565b6103356001610747565b61033f6002610747565b949b939a50919850965094509092509050565b61035a610929565b6103646000610956565b565b600154604051630368c42760e51b8152600481018390526000916001600160a01b031690636d1884e090602401608060405180830381865afa1580156103b0573d6000803e3d6000fd5b505050506040513d601f19601f820116820180604052508101906103d49190610ccb565b905060008060006103ed846000015185602001516109a6565b600080526003602052600080516020610e8c8339815191525492955090935091506104189084610b93565b6003602052600080516020610e8c833981519152556001600052600080516020610e6c8339815191525461044c9083610b93565b6003602052600080516020610e6c8339815191525560026000527fc3a24b0501bd2c13a7e57f2db4369ec4c223447539fc0724a9d55ac4a06ebd4d546104929082610b93565b7fc3a24b0501bd2c13a7e57f2db4369ec4c223447539fc0724a9d55ac4a06ebd4d819055600080516020610e8c833981519152547f17ef568e3e12ab5b9c7254a8d58478811de00f9e6eb34345acd53bf8fd09d3ec55600080516020610e6c833981519152547fabd6e7cb50984ff9c2f3e18a2660c3353dadf4e3291deeb275dae2cd1e44fe055560026000908152600460209081527f91da3fd0782e51c6b3986e9e672fd566868e71f3dbc2d6c2cd6fbb3e361af2a792909255604080516080810190915242815260059290919082019061056d90610747565b815260200161057c6001610747565b815260200161058b6002610747565b90528154600180820184556000938452602080852084516004909402019283558381015191830191909155604080840151600280850191909155606094850151600394850155928252600080516020610e8c83398151915254600080516020610e6c83398151915254939095527fc3a24b0501bd2c13a7e57f2db4369ec4c223447539fc0724a9d55ac4a06ebd4d548151958652918501929092529083015286917f6ef2ff813efc9efc76792366c4aca2677b755a5a13affc54d96ef35dc8e9bb73910160405180910390a25050505050565b6005818154811061066e57600080fd5b60009182526020909120600490910201805460018201546002830154600390930154919350919084565b600080808360028111156106ae576106ae610d59565b036106c157506611c37937e080006106f2565b60018360028111156106d5576106d5610d59565b036106e85750662aa1efb94e00006106f2565b5066470de4df8200005b6103e86004600085600281111561070b5761070b610d59565b600281111561071c5761071c610d59565b815260200190815260200160002054826107369190610d85565b6107409190610db2565b9392505050565b6000808083600281111561075d5761075d610d59565b036107705750662386f26fc100006107a1565b600183600281111561078457610784610d59565b0361079757506658d15e176280006107a1565b50669fdf42f6e480005b6103e86003600085600281111561070b5761070b610d59565b6107c2610929565b6001600160a01b0381166107f157604051631e4fbdf760e01b8152600060048201526024015b60405180910390fd5b6107fa81610956565b50565b6005546060908083111561080f578092505b60008367ffffffffffffffff81111561082a5761082a610cb5565b60405190808252806020026020018201604052801561088657816020015b6108736040518060800160405280600081526020016000815260200160008152602001600081525090565b8152602001906001900390816108485790505b50905060005b84811015610921576005816108a18786610dc6565b6108ab9190610dd9565b815481106108bb576108bb610dec565b906000526020600020906004020160405180608001604052908160008201548152602001600182015481526020016002820154815260200160038201548152505082828151811061090e5761090e610dec565b602090810291909101015260010161088c565b509392505050565b6000546001600160a01b031633146103645760405163118cdaa760e01b81523360048201526024016107e8565b600080546001600160a01b038381166001600160a01b0319831681178455604051919092169283917f8be0079c531659141344cd1fd0a4f28419497f9722a3daafe3b4186f6b6457e09190a35050565b60008080808560078111156109bd576109bd610d59565b036109d15750600419915081905080610b8c565b60038560078111156109e5576109e5610d59565b03610a31576109f5601485610e02565b6109fe90610e23565b9250610a0b601985610e02565b610a1490610e23565b9150610a21601e85610e02565b610a2a90610e23565b9050610b8c565b6006856007811115610a4557610a45610d59565b03610a8157610a55600a85610e02565b610a5e90610e23565b9250610a6b600f85610e02565b610a7490610e23565b9150610a21601485610e02565b6001856007811115610a9557610a95610d59565b03610abf57610aa5600585610e02565b9250610ab2600785610e02565b9150610a2a600a85610e02565b6005856007811115610ad357610ad3610d59565b03610afd57610ae3600385610e02565b9250610af0600485610e02565b9150610a2a600585610e02565b6004856007811115610b1157610b11610d59565b03610b2e57610b21600685610e02565b9250610ab2600885610e02565b6002856007811115610b4257610b42610d59565b1480610b5f57506007856007811115610b5d57610b5d610d59565b145b15610b8c57610b6f600f85610e02565b9250610b7c601485610e02565b9150610b89601985610e02565b90505b9250925092565b600080610ba4600184900b85610e44565b90506101f48160030b1215610bbe576101f4915050610bdf565b6107d08160030b1315610bd6576107d0915050610bdf565b63ffffffff1690505b92915050565b600381106107fa57600080fd5b600060208284031215610c0457600080fd5b813561074081610be5565b600060208284031215610c2157600080fd5b5035919050565b600060208284031215610c3a57600080fd5b81356001600160a01b038116811461074057600080fd5b602080825282518282018190526000919060409081850190868401855b82811015610ca857815180518552868101518786015285810151868601526060908101519085015260809093019290850190600101610c6e565b5091979650505050505050565b634e487b7160e01b600052604160045260246000fd5b600060808284031215610cdd57600080fd5b6040516080810181811067ffffffffffffffff82111715610d0e57634e487b7160e01b600052604160045260246000fd5b604052825160088110610d2057600080fd5b8152602083015161ffff81168114610d3757600080fd5b6020820152604083810151908201526060928301519281019290925250919050565b634e487b7160e01b600052602160045260246000fd5b634e487b7160e01b600052601160045260246000fd5b8082028115828204841417610bdf57610bdf610d6f565b634e487b7160e01b600052601260045260246000fd5b600082610dc157610dc1610d9c565b500490565b81810381811115610bdf57610bdf610d6f565b80820180821115610bdf57610bdf610d6f565b634e487b7160e01b600052603260045260246000fd5b600061ffff80841680610e1757610e17610d9c565b92169190910492915050565b60008160010b617fff198103610e3b57610e3b610d6f565b60000392915050565b600381810b9083900b01637fffffff8113637fffffff1982121715610bdf57610bdf610d6f56fea15bc60c955c405d20d9149c709e2460f1c2d9a497496a7f46004d1772c3054c3617319a054d772f909f7c479a2cebe5066e836a939412e32403c99029b92effa264697066735822122041be879a7c220e57e7521db86b36a9297ceb1a07fa36f5efa4562b36dad4a27d64736f6c63430008180033",
  "devdoc": {
    "details": "Third contract in the chain reaction",
    "errors": {
      "OwnableInvalidOwner(address)": [
        {
          "details": "The owner is not a valid owner account. (eg. `address(0)`)"
        }
      ],
      "OwnableUnauthorizedAccount(address)": [
        {
          "details": "The caller account is not authorized to perform an operation."
        }
      ]
    },
    "kind": "dev",
    "methods": {
      "owner()": {
        "details": "Returns the address of the current owner."
      },
      "renounceOwnership()": {
        "details": "Leaves the contract without owner. It will not be possible to call `onlyOwner` functions. Can only be called by the current owner. NOTE: Renouncing ownership will leave the contract without an owner, thereby disabling any functionality that is only available to the owner."
      },
      "transferOwnership(address)": {
        "details": "Transfers ownership of the contract to a new account (`newOwner`). Can only be called by the current owner."
      },
      "updatePrices(uint256)": {
        "details": "Called after effects are applied"
      }
    },
    "title": "PriceOracle",
    "version": 1
  },
  "userdoc": {
    "kind": "user",
    "methods": {
      "getAllPrices()": {
        "notice": "Get all current prices"
      },
      "getCropPrice(uint8)": {
        "notice": "Get current crop sell price"
      },
      "getPriceHistory(uint256)": {
        "notice": "Get price history"
      },
      "getSeedPrice(uint8)": {
        "notice": "Get current seed price"
      },
      "updatePrices(uint256)": {
        "notice": "Update prices based on recent event"
      }
    },
    "notice": "Dynamic pricing based on events and effects",
    "version": 1
  },
  "storageLayout": {
    "storage": [
      {
        "astId": 8,
        "contract": "contracts/PriceOracle.sol:PriceOracle",
        "label": "_owner",
        "offset": 0,
        "slot": "0",
        "type": "t_address"
      },
      {
        "astId": 5833,
        "contract": "contracts/PriceOracle.sol:PriceOracle",
        "label": "gameEvents",
        "offset": 0,
        "slot": "1",
        "type": "t_contract(GameEvents)5496"
      },
      {
        "astId": 5836,
        "contract": "contracts/PriceOracle.sol:PriceOracle",
        "label": "gameEffects",
        "offset": 0,
        "slot": "2",
        "type": "t_contract(GameEffects)5193"
      },
      {
        "astId": 5867,
        "contract": "contracts/PriceOracle.sol:PriceOracle",
        "label": "cropMultipliers",
        "offset": 0,
        "slot": "3",
        "type": "t_mapping(t_enum(CropType)5840,t_uint256)"
      },
      {
        "astId": 5872,
        "contract": "contracts/PriceOracle.sol:PriceOracle",
        "label": "seedMultipliers",
        "offset": 0,
        "slot": "4",
        "type": "t_mapping(t_enum(SeedType)5844,t_uint256)"
      },
      {
        "astId": 5885,
        "contract": "contracts/PriceOracle.sol:PriceOracle",
        "label": "priceHistory",
        "offset": 0,
        "slot": "5",
        "type": "t_array(t_struct(PriceSnapshot)5881_storage)dyn_storage"
      }
    ],
    "types": {
      "t_address": {
        "encoding": "inplace",
        "label": "address",
        "numberOfBytes": "20"
      },
      "t_array(t_struct(PriceSnapshot)5881_storage)dyn_storage": {
        "base": "t_struct(PriceSnapshot)5881_storage",
        "encoding": "dynamic_array",
        "label": "struct PriceOracle.PriceSnapshot[]",
        "numberOfBytes": "32"
      },
      "t_contract(GameEffects)5193": {
        "encoding": "inplace",
        "label": "contract GameEffects",
        "numberOfBytes": "20"
      },
      "t_contract(GameEvents)5496": {
        "encoding": "inplace",
        "label": "contract GameEvents",
        "numberOfBytes": "20"
      },
      "t_enum(CropType)5840": {
        "encoding": "inplace",
        "label": "enum PriceOracle.CropType",
        "numberOfBytes": "1"
      },
      "t_enum(SeedType)5844": {
        "encoding": "inplace",
        "label": "enum PriceOracle.SeedType",
        "numberOfBytes": "1"
      },
      "t_mapping(t_enum(CropType)5840,t_uint256)": {
        "encoding": "mapping",
        "key": "t_enum(CropType)5840",
        "label": "mapping(enum PriceOracle.CropType => uint256)",
        "numberOfBytes": "32",
        "value": "t_uint256"
      },
      "t_mapping(t_enum(SeedType)5844,t_uint256)": {
        "encoding": "mapping",
        "key": "t_enum(SeedType)5844",
        "label": "mapping(enum PriceOracle.SeedType => uint256)",
        "numberOfBytes": "32",
        "value": "t_uint256"
      },
      "t_struct(PriceSnapshot)5881_storage": {
        "encoding": "inplace",
        "label": "struct PriceOracle.PriceSnapshot",
        "members": [
          {
            "astId": 5874,
            "contract": "contracts/PriceOracle.sol:PriceOracle",
            "label": "timestamp",
            "offset": 0,
            "slot": "0",
            "type": "t_uint256"
          },
          {
            "astId": 5876,
            "contract": "contracts/PriceOracle.sol:PriceOracle",
            "label": "wheatPrice",
            "offset": 0,
            "slot": "1",
            "type": "t_uint256"
          },
          {
            "astId": 5878,
            "contract": "contracts/PriceOracle.sol:PriceOracle",
            "label": "grapePrice",
            "offset": 0,
            "slot": "2",
            "type": "t_uint256"
          },
          {
            "astId": 5880,
            "contract": "contracts/PriceOracle.sol:PriceOracle",
            "label": "pumpkinPrice",
            "offset": 0,
            "slot": "3",
            "type": "t_uint256"
          }
        ],
        "numberOfBytes": "128"
      },
      "t_uint256": {
        "encoding": "inplace",
        "label": "uint256",
        "numberOfBytes": "32"
      }
    }
  }
}