{
  "_format": "hh-sol-artifact-1",
  "contractName": "FarmGame",
  "sourceName": "contracts/FarmGame.sol",
  "abi": [
    {
      "inputs": [
        {
          "internalType": "address",
          "name": "_token",
          "type": "address"
        }
      ],
      "stateMutability": "nonpayable",
      "type": "constructor"
    },
    {
      "anonymous": false,
      "inputs": [
        {
          "indexed": false,
          "internalType": "address",
          "name": "player",
          "type": "address"
        },
        {
          "indexed": false,
          "internalType": "uint256",
          "name": "newLevel",
          "type": "uint256"
        }
      ],
      "name": "LevelUp",
      "type": "event"
    },
    {
      "anonymous": false,
      "inputs": [
        {
          "indexed": false,
          "internalType": "address",
          "name": "player",
          "type": "address"
        },
        {
          "indexed": false,
          "internalType": "uint256",
          "name": "plotId",
          "type": "uint256"
        },
        {
          "indexed": false,
          "internalType": "uint256",
          "name": "reward",
          "type": "uint256"
        }
      ],
      "name": "PlantHarvested",
      "type": "event"
    },
    {
      "anonymous": false,
      "inputs": [
        {
          "indexed": false,
          "internalType": "address",
          "name": "player",
          "type": "address"
        },
        {
          "indexed": false,
          "internalType": "uint256",
          "name": "plotId",
          "type": "uint256"
        },
        {
          "indexed": false,
          "internalType": "uint256",
          "name": "seedId",
          "type": "uint256"
        }
      ],
      "name": "PlantPlanted",
      "type": "event"
    },
    {
      "anonymous": false,
      "inputs": [
        {
          "indexed": false,
          "internalType": "address",
          "name": "player",
          "type": "address"
        }
      ],
      "name": "PlayerInitialized",
      "type": "event"
    },
    {
      "anonymous": false,
      "inputs": [
        {
          "indexed": false,
          "internalType": "address",
          "name": "player",
          "type": "address"
        },
        {
          "indexed": false,
          "internalType": "uint256",
          "name": "newPlotId",
          "type": "uint256"
        }
      ],
      "name": "PlotPurchased",
      "type": "event"
    },
    {
      "anonymous": false,
      "inputs": [
        {
          "indexed": false,
          "internalType": "address",
          "name": "player",
          "type": "address"
        },
        {
          "indexed": false,
          "internalType": "uint256",
          "name": "seedId",
          "type": "uint256"
        },
        {
          "indexed": false,
          "internalType": "uint256",
          "name": "quantity",
          "type": "uint256"
        }
      ],
      "name": "SeedPurchased",
      "type": "event"
    },
    {
      "inputs": [],
      "name": "INITIAL_PLOTS",
      "outputs": [
        {
          "internalType": "uint256",
          "name": "",
          "type": "uint256"
        }
      ],
      "stateMutability": "view",
      "type": "function"
    },
    {
      "inputs": [],
      "name": "MAX_PLOTS",
      "outputs": [
        {
          "internalType": "uint256",
          "name": "",
          "type": "uint256"
        }
      ],
      "stateMutability": "view",
      "type": "function"
    },
    {
      "inputs": [],
      "name": "PLOT_PRICE",
      "outputs": [
        {
          "internalType": "uint256",
          "name": "",
          "type": "uint256"
        }
      ],
      "stateMutability": "view",
      "type": "function"
    },
    {
      "inputs": [],
      "name": "buyPlot",
      "outputs": [],
      "stateMutability": "nonpayable",
      "type": "function"
    },
    {
      "inputs": [
        {
          "internalType": "uint256",
          "name": "_seedId",
          "type": "uint256"
        },
        {
          "internalType": "uint256",
          "name": "_quantity",
          "type": "uint256"
        }
      ],
      "name": "buySeed",
      "outputs": [],
      "stateMutability": "nonpayable",
      "type": "function"
    },
    {
      "inputs": [
        {
          "internalType": "address",
          "name": "_player",
          "type": "address"
        },
        {
          "internalType": "uint256",
          "name": "_seedId",
          "type": "uint256"
        }
      ],
      "name": "getInventory",
      "outputs": [
        {
          "internalType": "uint256",
          "name": "",
          "type": "uint256"
        }
      ],
      "stateMutability": "view",
      "type": "function"
    },
    {
      "inputs": [
        {
          "internalType": "address",
          "name": "_player",
          "type": "address"
        }
      ],
      "name": "getPlayerInfo",
      "outputs": [
        {
          "internalType": "uint256",
          "name": "level",
          "type": "uint256"
        },
        {
          "internalType": "uint256",
          "name": "experience",
          "type": "uint256"
        },
        {
          "internalType": "uint256",
          "name": "plotCount",
          "type": "uint256"
        },
        {
          "internalType": "bool",
          "name": "initialized",
          "type": "bool"
        }
      ],
      "stateMutability": "view",
      "type": "function"
    },
    {
      "inputs": [
        {
          "internalType": "address",
          "name": "_player",
          "type": "address"
        },
        {
          "internalType": "uint256",
          "name": "_plotId",
          "type": "uint256"
        }
      ],
      "name": "getPlotInfo",
      "outputs": [
        {
          "internalType": "uint256",
          "name": "seedId",
          "type": "uint256"
        },
        {
          "internalType": "uint256",
          "name": "plantedAt",
          "type": "uint256"
        },
        {
          "internalType": "uint256",
          "name": "harvestTime",
          "type": "uint256"
        },
        {
          "internalType": "bool",
          "name": "harvested",
          "type": "bool"
        },
        {
          "internalType": "bool",
          "name": "canHarvest",
          "type": "bool"
        },
        {
          "internalType": "uint256",
          "name": "progress",
          "type": "uint256"
        }
      ],
      "stateMutability": "view",
      "type": "function"
    },
    {
      "inputs": [
        {
          "internalType": "uint256",
          "name": "_plotId",
          "type": "uint256"
        }
      ],
      "name": "harvest",
      "outputs": [],
      "stateMutability": "nonpayable",
      "type": "function"
    },
    {
      "inputs": [],
      "name": "initializePlayer",
      "outputs": [],
      "stateMutability": "nonpayable",
      "type": "function"
    },
    {
      "inputs": [
        {
          "internalType": "address",
          "name": "",
          "type": "address"
        },
        {
          "internalType": "uint256",
          "name": "",
          "type": "uint256"
        }
      ],
      "name": "inventory",
      "outputs": [
        {
          "internalType": "uint256",
          "name": "",
          "type": "uint256"
        }
      ],
      "stateMutability": "view",
      "type": "function"
    },
    {
      "inputs": [
        {
          "internalType": "uint256",
          "name": "_plotId",
          "type": "uint256"
        },
        {
          "internalType": "uint256",
          "name": "_seedId",
          "type": "uint256"
        }
      ],
      "name": "plantSeed",
      "outputs": [],
      "stateMutability": "nonpayable",
      "type": "function"
    },
    {
      "inputs": [
        {
          "internalType": "address",
          "name": "",
          "type": "address"
        }
      ],
      "name": "players",
      "outputs": [
        {
          "internalType": "uint256",
          "name": "level",
          "type": "uint256"
        },
        {
          "internalType": "uint256",
          "name": "experience",
          "type": "uint256"
        },
        {
          "internalType": "uint256",
          "name": "plotCount",
          "type": "uint256"
        },
        {
          "internalType": "bool",
          "name": "initialized",
          "type": "bool"
        }
      ],
      "stateMutability": "view",
      "type": "function"
    },
    {
      "inputs": [
        {
          "internalType": "address",
          "name": "",
          "type": "address"
        },
        {
          "internalType": "uint256",
          "name": "",
          "type": "uint256"
        }
      ],
      "name": "plots",
      "outputs": [
        {
          "internalType": "uint256",
          "name": "seedId",
          "type": "uint256"
        },
        {
          "internalType": "uint256",
          "name": "plantedAt",
          "type": "uint256"
        },
        {
          "internalType": "uint256",
          "name": "harvestTime",
          "type": "uint256"
        },
        {
          "internalType": "bool",
          "name": "harvested",
          "type": "bool"
        }
      ],
      "stateMutability": "view",
      "type": "function"
    },
    {
      "inputs": [],
      "name": "seedCount",
      "outputs": [
        {
          "internalType": "uint256",
          "name": "",
          "type": "uint256"
        }
      ],
      "stateMutability": "view",
      "type": "function"
    },
    {
      "inputs": [
        {
          "internalType": "uint256",
          "name": "",
          "type": "uint256"
        }
      ],
      "name": "seeds",
      "outputs": [
        {
          "internalType": "string",
          "name": "name",
          "type": "string"
        },
        {
          "internalType": "uint256",
          "name": "price",
          "type": "uint256"
        },
        {
          "internalType": "uint256",
          "name": "growthTime",
          "type": "uint256"
        },
        {
          "internalType": "uint256",
          "name": "baseYield",
          "type": "uint256"
        }
      ],
      "stateMutability": "view",
      "type": "function"
    },
    {
      "inputs": [],
      "name": "token",
      "outputs": [
        {
          "internalType": "contract IGameToken",
          "name": "",
          "type": "address"
        }
      ],
      "stateMutability": "view",
      "type": "function"
    }
  ],
  "bytecode": "0x60806040523480156200001157600080fd5b5060405162001603380380620016038339810160408190526200003491620002de565b600080546001600160a01b0319166001600160a01b0383161781556040805160c0810182526005608082019081526415da19585d60da1b60a08301528152678ac7230489e80000602080830191909152603c92820192909252601460608201529180526001905280517fa6eef7e35abe7026729641147f7915573c7e97b47efa546f5f6e3230263bcb49908190620000cd9082620003b5565b506020828101516001808401919091556040808501516002850155606094850151600390940193909355825160c0810184526004608082019081526321b7b93760e11b60a083015281526801158e460913d000008184015260789381019390935260329383019390935260008390529190915280517fcc69885fda6bcc1a4ace058b4a62bf5e179ea78fd58a1ccd71c22cc9b688792f908190620001729082620003b5565b50602082015181600101556040820151816002015560608201518160030155905050604051806080016040528060405180604001604052806006815260200165546f6d61746f60d01b81525081526020016801a055690d9db80000815260200160b48152602001605081525060016000600281526020019081526020016000206000820151816000019081620002099190620003b5565b506020828101516001808401919091556040808501516002850155606094850151600394850155805160c08101825260076080820190815266283ab6b835b4b760c91b60a083015281526802b5e3af16b18800008185015261012c918101919091526096948101949094526000929092525280517f7dfe757ecd65cbd7922a9c0161e935dd7fdbcc0e999689c7d31633896b1fc60b908190620002ad9082620003b5565b5060208201518160010155604082015181600201556060820151816003015590505060046002819055505062000481565b600060208284031215620002f157600080fd5b81516001600160a01b03811681146200030957600080fd5b9392505050565b634e487b7160e01b600052604160045260246000fd5b600181811c908216806200033b57607f821691505b6020821081036200035c57634e487b7160e01b600052602260045260246000fd5b50919050565b601f821115620003b057600081815260208120601f850160051c810160208610156200038b5750805b601f850160051c820191505b81811015620003ac5782815560010162000397565b5050505b505050565b81516001600160401b03811115620003d157620003d162000310565b620003e981620003e2845462000326565b8462000362565b602080601f831160018114620004215760008415620004085750858301515b600019600386901b1c1916600185901b178555620003ac565b600085815260208120601f198616915b82811015620004525788860151825594840194600190910190840162000431565b5085821015620004715787850151600019600388901b60f8161c191681555b5050505050600190811b01905550565b61117280620004916000396000f3fe608060405234801561001057600080fd5b506004361061010b5760003560e01c80638bed5bd2116100a2578063ddc6326211610071578063ddc63262146102bd578063e2eb41ff146102d0578063f0503e801461030a578063fc0c546a1461032d578063ffa9ccbc1461035857600080fd5b80638bed5bd214610256578063a82419ac1461025f578063c09d872f14610272578063c1bb4a30146102b557600080fd5b80634f87e864116100de5780634f87e8641461018957806359098a551461019c57806359328401146101a457806368f222fd1461022b57600080fd5b80630d7da7b5146101105780631b20fac51461015957806326889ac61461016357806346e8e70714610181575b600080fd5b61012361011e366004610f28565b61036b565b60408051968752602087019590955293850192909252151560608401521515608083015260a082015260c0015b60405180910390f35b610161610496565b005b61017368056bc75e2d6310000081565b604051908152602001610150565b610173600381565b610161610197366004610f52565b610594565b6101616107e1565b6102096101b2366004610f74565b6001600160a01b03166000908152600360208181526040928390208351608081018552815480825260018301549382018490526002830154958201869052919093015460ff16151560609093018390529390929190565b6040805194855260208501939093529183015215156060820152608001610150565b610173610239366004610f28565b600560209081526000928352604080842090915290825290205481565b61017360025481565b61016161026d366004610f52565b61098c565b610209610280366004610f28565b600460209081526000928352604080842090915290825290208054600182015460028301546003909301549192909160ff1684565b610173601481565b6101616102cb366004610f96565b610b4a565b6102096102de366004610f74565b600360208190526000918252604090912080546001820154600283015492909301549092919060ff1684565b61031d610318366004610f96565b610e31565b6040516101509493929190610faf565b600054610340906001600160a01b031681565b6040516001600160a01b039091168152602001610150565b610173610366366004610f28565b610ee1565b6001600160a01b0382166000908152600460209081526040808320848452825280832081516080810183528154815260018201549381019390935260028101549183018290526003015460ff1615156060830152829182918291829182919082036103eb576000806000806000809650965096509650965096505061048c565b60008160400151421015801561040357508160600151155b606083015190915060649015801561041e5750826040015142105b1561046a5760008360200151426104359190611028565b905060008460200151856040015161044d9190611028565b90508061045b83606461103b565b6104659190611052565b925050505b825160208401516040850151606090950151919a509850929650919450925090505b9295509295509295565b336000908152600360208190526040909120015460ff16156104f55760405162461bcd60e51b8152602060048201526013602482015272105b1c9958591e481a5b9a5d1a585b1a5e9959606a1b60448201526064015b60405180910390fd5b604080516080810182526001808252600060208084018281526003858701818152606087018681523380875283865289872098518955935196880196909655516002870155935194909301805460ff19169415159490941790935560058084528482208280528452908490205591519182527fdbf7a6401b89fe6cccabcdf9bb8462c8ffd83693f8429ee630f9b4ddb5783aba910160405180910390a1565b336000908152600360208190526040909120015460ff166105c75760405162461bcd60e51b81526004016104ec90611074565b3360009081526003602052604090206002015482106106175760405162461bcd60e51b815260206004820152600c60248201526b125b9d985b1a59081c1b1bdd60a21b60448201526064016104ec565b336000908152600460209081526040808320858452909152902060020154158061065e575033600090815260046020908152604080832085845290915290206003015460ff165b61069a5760405162461bcd60e51b815260206004820152600d60248201526c141b1bdd081bd8d8dd5c1a5959609a1b60448201526064016104ec565b3360009081526005602090815260408083208484529091529020546106ec5760405162461bcd60e51b81526020600482015260086024820152674e6f20736565647360c01b60448201526064016104ec565b33600090815260056020908152604080832084845290915281208054916107128361109d565b9190505550604051806080016040528082815260200142815260200160016000848152602001908152602001600020600201544261075091906110b4565b81526000602091820181905233808252600483526040808320878452845291829020845181558484015160018201558483015160028201556060948501516003909101805460ff1916911515919091179055815190815291820185905281018390527f443deb677b158d42d9989f309feeb2c861adadb2ea82bd1592611542218579ef910160405180910390a15050565b336000908152600360208190526040909120015460ff166108145760405162461bcd60e51b81526004016104ec90611074565b3360009081526003602052604090206002015460141161086a5760405162461bcd60e51b815260206004820152601160248201527013585e081c1b1bdd1cc81c995858da1959607a1b60448201526064016104ec565b6000546040516323b872dd60e01b815233600482015230602482015268056bc75e2d6310000060448201526001600160a01b03909116906323b872dd906064016020604051808303816000875af11580156108c9573d6000803e3d6000fd5b505050506040513d601f19601f820116820180604052508101906108ed91906110c7565b61092a5760405162461bcd60e51b815260206004820152600e60248201526d14185e5b595b9d0819985a5b195960921b60448201526064016104ec565b33600090815260036020526040812060020180549182919061094b836110e9565b909155505060408051338152602081018390527f8b46a7f79e88decd625a59436c04a2f66219964ecb5ea5f054f637fa2fbcbc8c910160405180910390a150565b60025482106109cc5760405162461bcd60e51b815260206004820152600c60248201526b125b9d985b1a59081cd9595960a21b60448201526064016104ec565b336000908152600360208190526040909120015460ff166109ff5760405162461bcd60e51b81526004016104ec90611074565b600082815260016020819052604082200154610a1c90839061103b565b6000546040516323b872dd60e01b8152336004820152306024820152604481018390529192506001600160a01b0316906323b872dd906064016020604051808303816000875af1158015610a74573d6000803e3d6000fd5b505050506040513d601f19601f82011682018060405250810190610a9891906110c7565b610ad55760405162461bcd60e51b815260206004820152600e60248201526d14185e5b595b9d0819985a5b195960921b60448201526064016104ec565b33600090815260056020908152604080832086845290915281208054849290610aff9084906110b4565b909155505060408051338152602081018590529081018390527f8c659ba7daa3b6ce33f362b1be0cfb61122f5f14beb8c33fa12760412352a76c9060600160405180910390a1505050565b3360009081526004602090815260408083208484529091529020600381015460ff1615610bad5760405162461bcd60e51b8152602060048201526011602482015270105b1c9958591e481a185c9d995cdd1959607a1b60448201526064016104ec565b8060020154421015610bed5760405162461bcd60e51b81526020600482015260096024820152684e6f7420726561647960b81b60448201526064016104ec565b6003808201805460ff19166001908117909155825460009081526020919091526040812090910154610c2790670de0b6b3a764000061103b565b3360009081526003602052604081205491925090600a90610c48908461103b565b610c529190611052565b90506000610c6082846110b4565b845460009081526001602081815260408084206003908101543386529252832090910180549394509092839290610c989084906110b4565b909155505033600090815260036020526040812060010154610cbc90606490611052565b610cc79060016110b4565b33600090815260036020526040902054909150811115610d2d5733600081815260036020908152604091829020849055815192835282018390527f91e51c29e7e87a74ad3b8ccba98538970f50a4309242735467f41e27c6b0fbac910160405180910390a15b60005460405163a9059cbb60e01b8152336004820152602481018590526001600160a01b039091169063a9059cbb906044016020604051808303816000875af1158015610d7e573d6000803e3d6000fd5b505050506040513d601f19601f82011682018060405250810190610da291906110c7565b610de75760405162461bcd60e51b815260206004820152601660248201527514995dd85c99081d1c985b9cd9995c8819985a5b195960521b60448201526064016104ec565b60408051338152602081018990529081018490527f7a00851cda71715d6bbc16375293a55b0c80fb8875b6eab096545227fca2b6619060600160405180910390a150505050505050565b600160205260009081526040902080548190610e4c90611102565b80601f0160208091040260200160405190810160405280929190818152602001828054610e7890611102565b8015610ec55780601f10610e9a57610100808354040283529160200191610ec5565b820191906000526020600020905b815481529060010190602001808311610ea857829003601f168201915b5050505050908060010154908060020154908060030154905084565b6001600160a01b03821660009081526005602090815260408083208484529091529020545b92915050565b80356001600160a01b0381168114610f2357600080fd5b919050565b60008060408385031215610f3b57600080fd5b610f4483610f0c565b946020939093013593505050565b60008060408385031215610f6557600080fd5b50508035926020909101359150565b600060208284031215610f8657600080fd5b610f8f82610f0c565b9392505050565b600060208284031215610fa857600080fd5b5035919050565b608081526000855180608084015260005b81811015610fdd57602081890181015160a0868401015201610fc0565b50600060a0828501015260a0601f19601f83011684010191505084602083015283604083015282606083015295945050505050565b634e487b7160e01b600052601160045260246000fd5b81810381811115610f0657610f06611012565b8082028115828204841417610f0657610f06611012565b60008261106f57634e487b7160e01b600052601260045260246000fd5b500490565b6020808252600f908201526e139bdd081a5b9a5d1a585b1a5e9959608a1b604082015260600190565b6000816110ac576110ac611012565b506000190190565b80820180821115610f0657610f06611012565b6000602082840312156110d957600080fd5b81518015158114610f8f57600080fd5b6000600182016110fb576110fb611012565b5060010190565b600181811c9082168061111657607f821691505b60208210810361113657634e487b7160e01b600052602260045260246000fd5b5091905056fea26469706673582212209f35b71401bd17a07aa904882e38be59073f6d7122134a15f277cd920476452164736f6c63430008130033",
  "linkReferences": {},
  "deployedLinkReferences": {}
}